{"contracts/CreateToken/Meter/contracts/CreateToken/Meter/CreateVerify.sol":{"CreateManage":{"abi":[{"inputs":[{"internalType":"address","name":"_owner","type":"address"},{"internalType":"address","name":"router_Addr","type":"address"},{"internalType":"contract StandardTokenFactory","name":"_standardTokenFactory","type":"address"},{"internalType":"contract LiquidityTokenFactory","name":"_liquidityTokenFactory","type":"address"}],"stateMutability":"nonpayable","type":"constructor"},{"anonymous":false,"inputs":[{"indexed":false,"internalType":"address","name":"","type":"address"}],"name":"CreateStandardSuccess","type":"event"},{"anonymous":false,"inputs":[{"indexed":false,"internalType":"uint256","name":"value","type":"uint256"}],"name":"OwnerWithdrawSuccess","type":"event"},{"anonymous":false,"inputs":[],"name":"SetFeeSuccess","type":"event"},{"anonymous":false,"inputs":[{"indexed":false,"internalType":"address","name":"","type":"address"}],"name":"createLiquditySuccess","type":"event"},{"anonymous":false,"inputs":[{"indexed":false,"internalType":"address","name":"","type":"address"}],"name":"setOwnerSucess","type":"event"},{"inputs":[{"internalType":"address","name":"creator_","type":"address"},{"internalType":"address","name":"reciever","type":"address"},{"internalType":"string","name":"name_","type":"string"},{"internalType":"string","name":"symbol_","type":"string"},{"internalType":"uint8","name":"decimal_","type":"uint8"},{"internalType":"uint256","name":"supply","type":"uint256"},{"internalType":"uint256","name":"settingflag","type":"uint256"},{"internalType":"uint256[4]","name":"fees","type":"uint256[4]"},{"components":[{"internalType":"address","name":"taxaddress","type":"address"},{"internalType":"uint256","name":"taxamount","type":"uint256"},{"internalType":"uint256","name":"mintflag","type":"uint256"},{"internalType":"uint256","name":"pauseflag","type":"uint256"},{"internalType":"uint256","name":"burnflag","type":"uint256"},{"internalType":"uint256","name":"blacklistflag","type":"uint256"}],"internalType":"struct SharedStructs.status","name":"_state","type":"tuple"}],"name":"createLiquidity","outputs":[],"stateMutability":"payable","type":"function"},{"inputs":[{"internalType":"address","name":"creator_","type":"address"},{"internalType":"string","name":"name_","type":"string"},{"internalType":"string","name":"symbol_","type":"string"},{"internalType":"uint8","name":"decimals_","type":"uint8"},{"internalType":"uint256","name":"tokenSupply_","type":"uint256"},{"components":[{"internalType":"address","name":"taxaddress","type":"address"},{"internalType":"uint256","name":"taxamount","type":"uint256"},{"internalType":"uint256","name":"mintflag","type":"uint256"},{"internalType":"uint256","name":"pauseflag","type":"uint256"},{"internalType":"uint256","name":"burnflag","type":"uint256"},{"internalType":"uint256","name":"blacklistflag","type":"uint256"}],"internalType":"struct SharedStructs.status","name":"_state","type":"tuple"}],"name":"createStandard","outputs":[],"stateMutability":"payable","type":"function"},{"inputs":[],"name":"fee","outputs":[{"internalType":"uint256","name":"","type":"uint256"}],"stateMutability":"view","type":"function"},{"inputs":[],"name":"getBalance","outputs":[{"internalType":"uint256","name":"","type":"uint256"}],"stateMutability":"view","type":"function"},{"inputs":[{"internalType":"address","name":"creater","type":"address"}],"name":"getCreatedToken","outputs":[{"internalType":"address[]","name":"","type":"address[]"}],"stateMutability":"view","type":"function"},{"inputs":[],"name":"owner","outputs":[{"internalType":"address","name":"","type":"address"}],"stateMutability":"view","type":"function"},{"inputs":[{"internalType":"uint256","name":"_fee","type":"uint256"}],"name":"setFee","outputs":[],"stateMutability":"nonpayable","type":"function"},{"inputs":[{"internalType":"address","name":"newowner","type":"address"}],"name":"setOwner","outputs":[],"stateMutability":"nonpayable","type":"function"}],"evm":{"bytecode":{"linkReferences":{},"object":"60806040523480156200001157600080fd5b506040516200181e3803806200181e833981810160405281019062000037919062000247565b836000806101000a81548173ffffffffffffffffffffffffffffffffffffffff021916908373ffffffffffffffffffffffffffffffffffffffff160217905550678ac7230489e8000060038190555082600160006101000a81548173ffffffffffffffffffffffffffffffffffffffff021916908373ffffffffffffffffffffffffffffffffffffffff16021790555081600460006101000a81548173ffffffffffffffffffffffffffffffffffffffff021916908373ffffffffffffffffffffffffffffffffffffffff16021790555080600560006101000a81548173ffffffffffffffffffffffffffffffffffffffff021916908373ffffffffffffffffffffffffffffffffffffffff16021790555050505050620002b9565b600080fd5b600073ffffffffffffffffffffffffffffffffffffffff82169050919050565b6000620001858262000158565b9050919050565b620001978162000178565b8114620001a357600080fd5b50565b600081519050620001b7816200018c565b92915050565b6000620001ca8262000178565b9050919050565b620001dc81620001bd565b8114620001e857600080fd5b50565b600081519050620001fc81620001d1565b92915050565b60006200020f8262000178565b9050919050565b620002218162000202565b81146200022d57600080fd5b50565b600081519050620002418162000216565b92915050565b6000806000806080858703121562000264576200026362000153565b5b60006200027487828801620001a6565b94505060206200028787828801620001a6565b93505060406200029a87828801620001eb565b9250506060620002ad8782880162000230565b91505092959194509250565b61155580620002c96000396000f3fe60806040526004361061007b5760003560e01c8063701680b61161004e578063701680b61461013a5780638da5cb5b14610156578063c6649aee14610181578063ddca3f431461019d5761007b565b806312065fe01461008057806313af4035146100ab57806336646180146100d457806369fe0e2d14610111575b600080fd5b34801561008c57600080fd5b506100956101c8565b6040516100a291906109bb565b60405180910390f35b3480156100b757600080fd5b506100d260048036038101906100cd9190610a48565b6101d0565b005b3480156100e057600080fd5b506100fb60048036038101906100f69190610a48565b6102f8565b6040516101089190610b33565b60405180910390f35b34801561011d57600080fd5b5061013860048036038101906101339190610b81565b6103c5565b005b610154600480360381019061014f9190610dd2565b6103fb565b005b34801561016257600080fd5b5061016b61063a565b6040516101789190610ea7565b60405180910390f35b61019b60048036038101906101969190610f78565b61065e565b005b3480156101a957600080fd5b506101b261099c565b6040516101bf91906109bb565b60405180910390f35b600047905090565b60008054906101000a900473ffffffffffffffffffffffffffffffffffffffff1673ffffffffffffffffffffffffffffffffffffffff163373ffffffffffffffffffffffffffffffffffffffff161461025e576040517f08c379a0000000000000000000000000000000000000000000000000000000008152600401610255906110d7565b60405180910390fd5b806000806101000a81548173ffffffffffffffffffffffffffffffffffffffff021916908373ffffffffffffffffffffffffffffffffffffffff1602179055507f2ad00119c52384b34359201efdeae8e4bcc95b285f433b645adb782ef8ffb36760008054906101000a900473ffffffffffffffffffffffffffffffffffffffff166040516102ed9190610ea7565b60405180910390a150565b6060600260008373ffffffffffffffffffffffffffffffffffffffff1673ffffffffffffffffffffffffffffffffffffffff1681526020019081526020016000208054806020026020016040519081016040528092919081815260200182805480156103b957602002820191906000526020600020905b8160009054906101000a900473ffffffffffffffffffffffffffffffffffffffff1673ffffffffffffffffffffffffffffffffffffffff168152602001906001019080831161036f575b50505050509050919050565b806003819055507f0a4987adc1364e3702695bde0b67f8b845289f283f5c7d8e223b3682c030ceb460405160405180910390a150565b600354341015610440576040517f08c379a000000000000000000000000000000000000000000000000000000000815260040161043790611143565b60405180910390fd5b6000600460009054906101000a900473ffffffffffffffffffffffffffffffffffffffff1673ffffffffffffffffffffffffffffffffffffffff1663706fb2ee8888888888886040518763ffffffff1660e01b81526004016104a79695949392919061126a565b6020604051808303816000875af11580156104c6573d6000803e3d6000fd5b505050506040513d601f19601f820116820180604052508101906104ea9190611318565b9050600260008873ffffffffffffffffffffffffffffffffffffffff1673ffffffffffffffffffffffffffffffffffffffff168152602001908152602001600020819080600181540180825580915050600190039060005260206000200160009091909190916101000a81548173ffffffffffffffffffffffffffffffffffffffff021916908373ffffffffffffffffffffffffffffffffffffffff16021790555060008060009054906101000a900473ffffffffffffffffffffffffffffffffffffffff1690508073ffffffffffffffffffffffffffffffffffffffff166108fc349081150290604051600060405180830381858888f193505050501580156105f8573d6000803e3d6000fd5b507f11d95a3a35d0b4b9b14fd17216057aeefef842668d998184cb9f2e114a467a91826040516106289190610ea7565b60405180910390a15050505050505050565b60008054906101000a900473ffffffffffffffffffffffffffffffffffffffff1681565b6003543410156106a3576040517f08c379a000000000000000000000000000000000000000000000000000000000815260040161069a90611143565b60405180910390fd5b6000600560009054906101000a900473ffffffffffffffffffffffffffffffffffffffff1673ffffffffffffffffffffffffffffffffffffffff1663b304372d600160009054906101000a900473ffffffffffffffffffffffffffffffffffffffff168c8c8c8c8c8c6040518863ffffffff1660e01b815260040161072e9796959493929190611345565b6020604051808303816000875af115801561074d573d6000803e3d6000fd5b505050506040513d601f19601f820116820180604052508101906107719190611412565b90508073ffffffffffffffffffffffffffffffffffffffff166367d2465685856040518363ffffffff1660e01b81526004016107ae9291906114db565b600060405180830381600087803b1580156107c857600080fd5b505af11580156107dc573d6000803e3d6000fd5b505050508073ffffffffffffffffffffffffffffffffffffffff166307ce3bb6836040518263ffffffff1660e01b81526004016108199190611504565b600060405180830381600087803b15801561083357600080fd5b505af1158015610847573d6000803e3d6000fd5b50505050600260008b73ffffffffffffffffffffffffffffffffffffffff1673ffffffffffffffffffffffffffffffffffffffff168152602001908152602001600020819080600181540180825580915050600190039060005260206000200160009091909190916101000a81548173ffffffffffffffffffffffffffffffffffffffff021916908373ffffffffffffffffffffffffffffffffffffffff16021790555060008060009054906101000a900473ffffffffffffffffffffffffffffffffffffffff1690508073ffffffffffffffffffffffffffffffffffffffff166108fc349081150290604051600060405180830381858888f19350505050158015610957573d6000803e3d6000fd5b507fd38b5c5c827552bf78686fe20cff5da58946cbe6fab7a370a203e365ced42253826040516109879190610ea7565b60405180910390a15050505050505050505050565b60035481565b6000819050919050565b6109b5816109a2565b82525050565b60006020820190506109d060008301846109ac565b92915050565b6000604051905090565b600080fd5b600080fd5b600073ffffffffffffffffffffffffffffffffffffffff82169050919050565b6000610a15826109ea565b9050919050565b610a2581610a0a565b8114610a3057600080fd5b50565b600081359050610a4281610a1c565b92915050565b600060208284031215610a5e57610a5d6109e0565b5b6000610a6c84828501610a33565b91505092915050565b600081519050919050565b600082825260208201905092915050565b6000819050602082019050919050565b610aaa81610a0a565b82525050565b6000610abc8383610aa1565b60208301905092915050565b6000602082019050919050565b6000610ae082610a75565b610aea8185610a80565b9350610af583610a91565b8060005b83811015610b26578151610b0d8882610ab0565b9750610b1883610ac8565b925050600181019050610af9565b5085935050505092915050565b60006020820190508181036000830152610b4d8184610ad5565b905092915050565b610b5e816109a2565b8114610b6957600080fd5b50565b600081359050610b7b81610b55565b92915050565b600060208284031215610b9757610b966109e0565b5b6000610ba584828501610b6c565b91505092915050565b600080fd5b600080fd5b6000601f19601f8301169050919050565b7f4e487b7100000000000000000000000000000000000000000000000000000000600052604160045260246000fd5b610c0182610bb8565b810181811067ffffffffffffffff82111715610c2057610c1f610bc9565b5b80604052505050565b6000610c336109d6565b9050610c3f8282610bf8565b919050565b600067ffffffffffffffff821115610c5f57610c5e610bc9565b5b610c6882610bb8565b9050602081019050919050565b82818337600083830152505050565b6000610c97610c9284610c44565b610c29565b905082815260208101848484011115610cb357610cb2610bb3565b5b610cbe848285610c75565b509392505050565b600082601f830112610cdb57610cda610bae565b5b8135610ceb848260208601610c84565b91505092915050565b600060ff82169050919050565b610d0a81610cf4565b8114610d1557600080fd5b50565b600081359050610d2781610d01565b92915050565b600080fd5b600060c08284031215610d4857610d47610d2d565b5b610d5260c0610c29565b90506000610d6284828501610a33565b6000830152506020610d7684828501610b6c565b6020830152506040610d8a84828501610b6c565b6040830152506060610d9e84828501610b6c565b6060830152506080610db284828501610b6c565b60808301525060a0610dc684828501610b6c565b60a08301525092915050565b6000806000806000806101608789031215610df057610def6109e0565b5b6000610dfe89828a01610a33565b965050602087013567ffffffffffffffff811115610e1f57610e1e6109e5565b5b610e2b89828a01610cc6565b955050604087013567ffffffffffffffff811115610e4c57610e4b6109e5565b5b610e5889828a01610cc6565b9450506060610e6989828a01610d18565b9350506080610e7a89828a01610b6c565b92505060a0610e8b89828a01610d32565b9150509295509295509295565b610ea181610a0a565b82525050565b6000602082019050610ebc6000830184610e98565b92915050565b600067ffffffffffffffff821115610edd57610edc610bc9565b5b602082029050919050565b600080fd5b6000610f00610efb84610ec2565b610c29565b90508060208402830185811115610f1a57610f19610ee8565b5b835b81811015610f435780610f2f8882610b6c565b845260208401935050602081019050610f1c565b5050509392505050565b600082601f830112610f6257610f61610bae565b5b6004610f6f848285610eed565b91505092915050565b60008060008060008060008060006102208a8c031215610f9b57610f9a6109e0565b5b6000610fa98c828d01610a33565b9950506020610fba8c828d01610a33565b98505060408a013567ffffffffffffffff811115610fdb57610fda6109e5565b5b610fe78c828d01610cc6565b97505060608a013567ffffffffffffffff811115611008576110076109e5565b5b6110148c828d01610cc6565b96505060806110258c828d01610d18565b95505060a06110368c828d01610b6c565b94505060c06110478c828d01610b6c565b93505060e06110588c828d01610f4d565b92505061016061106a8c828d01610d32565b9150509295985092959850929598565b600082825260208201905092915050565b7f4f6e6c79206d616e616765722063616e20646f20697400000000000000000000600082015250565b60006110c160168361107a565b91506110cc8261108b565b602082019050919050565b600060208201905081810360008301526110f0816110b4565b9050919050565b7f42616c616e636520697320696e737566666963656e7400000000000000000000600082015250565b600061112d60168361107a565b9150611138826110f7565b602082019050919050565b6000602082019050818103600083015261115c81611120565b9050919050565b600081519050919050565b60005b8381101561118c578082015181840152602081019050611171565b60008484015250505050565b60006111a382611163565b6111ad818561107a565b93506111bd81856020860161116e565b6111c681610bb8565b840191505092915050565b6111da81610cf4565b82525050565b6111e9816109a2565b82525050565b60c0820160008201516112056000850182610aa1565b50602082015161121860208501826111e0565b50604082015161122b60408501826111e0565b50606082015161123e60608501826111e0565b50608082015161125160808501826111e0565b5060a082015161126460a08501826111e0565b50505050565b6000610160820190506112806000830189610e98565b81810360208301526112928188611198565b905081810360408301526112a68187611198565b90506112b560608301866111d1565b6112c260808301856109ac565b6112cf60a08301846111ef565b979650505050505050565b60006112e582610a0a565b9050919050565b6112f5816112da565b811461130057600080fd5b50565b600081519050611312816112ec565b92915050565b60006020828403121561132e5761132d6109e0565b5b600061133c84828501611303565b91505092915050565b600060e08201905061135a600083018a610e98565b6113676020830189610e98565b6113746040830188610e98565b81810360608301526113868187611198565b9050818103608083015261139a8186611198565b90506113a960a08301856111d1565b6113b660c08301846109ac565b98975050505050505050565b60006113cd826109ea565b9050919050565b60006113df826113c2565b9050919050565b6113ef816113d4565b81146113fa57600080fd5b50565b60008151905061140c816113e6565b92915050565b600060208284031215611428576114276109e0565b5b6000611436848285016113fd565b91505092915050565b600060049050919050565b600081905092915050565b6000819050919050565b600061146b83836111e0565b60208301905092915050565b6000602082019050919050565b61148d8161143f565b611497818461144a565b92506114a282611455565b8060005b838110156114d35781516114ba878261145f565b96506114c583611477565b9250506001810190506114a6565b505050505050565b600060a0820190506114f060008301856109ac565b6114fd6020830184611484565b9392505050565b600060c08201905061151960008301846111ef565b9291505056fea264697066735822122061350e6e2a22a9b159d3cdcbc9e1f79025e43df055ee2554fd77d651b629d95a64736f6c63430008140033","opcodes":"PUSH1 0x80 PUSH1 0x40 MSTORE CALLVALUE DUP1 ISZERO PUSH3 0x11 JUMPI PUSH1 0x0 DUP1 REVERT JUMPDEST POP PUSH1 0x40 MLOAD PUSH3 0x181E CODESIZE SUB DUP1 PUSH3 0x181E DUP4 CODECOPY DUP2 DUP2 ADD PUSH1 0x40 MSTORE DUP2 ADD SWAP1 PUSH3 0x37 SWAP2 SWAP1 PUSH3 0x247 JUMP JUMPDEST DUP4 PUSH1 0x0 DUP1 PUSH2 0x100 EXP DUP2 SLOAD DUP2 PUSH20 0xFFFFFFFFFFFFFFFFFFFFFFFFFFFFFFFFFFFFFFFF MUL NOT AND SWAP1 DUP4 PUSH20 0xFFFFFFFFFFFFFFFFFFFFFFFFFFFFFFFFFFFFFFFF AND MUL OR SWAP1 SSTORE POP PUSH8 0x8AC7230489E80000 PUSH1 0x3 DUP2 SWAP1 SSTORE POP DUP3 PUSH1 0x1 PUSH1 0x0 PUSH2 0x100 EXP DUP2 SLOAD DUP2 PUSH20 0xFFFFFFFFFFFFFFFFFFFFFFFFFFFFFFFFFFFFFFFF MUL NOT AND SWAP1 DUP4 PUSH20 0xFFFFFFFFFFFFFFFFFFFFFFFFFFFFFFFFFFFFFFFF AND MUL OR SWAP1 SSTORE POP DUP2 PUSH1 0x4 PUSH1 0x0 PUSH2 0x100 EXP DUP2 SLOAD DUP2 PUSH20 0xFFFFFFFFFFFFFFFFFFFFFFFFFFFFFFFFFFFFFFFF MUL NOT AND SWAP1 DUP4 PUSH20 0xFFFFFFFFFFFFFFFFFFFFFFFFFFFFFFFFFFFFFFFF AND MUL OR SWAP1 SSTORE POP DUP1 PUSH1 0x5 PUSH1 0x0 PUSH2 0x100 EXP DUP2 SLOAD DUP2 PUSH20 0xFFFFFFFFFFFFFFFFFFFFFFFFFFFFFFFFFFFFFFFF MUL NOT AND SWAP1 DUP4 PUSH20 0xFFFFFFFFFFFFFFFFFFFFFFFFFFFFFFFFFFFFFFFF AND MUL OR SWAP1 SSTORE POP POP POP POP POP PUSH3 0x2B9 JUMP JUMPDEST PUSH1 0x0 DUP1 REVERT JUMPDEST PUSH1 0x0 PUSH20 0xFFFFFFFFFFFFFFFFFFFFFFFFFFFFFFFFFFFFFFFF DUP3 AND SWAP1 POP SWAP2 SWAP1 POP JUMP JUMPDEST PUSH1 0x0 PUSH3 0x185 DUP3 PUSH3 0x158 JUMP JUMPDEST SWAP1 POP SWAP2 SWAP1 POP JUMP JUMPDEST PUSH3 0x197 DUP2 PUSH3 0x178 JUMP JUMPDEST DUP2 EQ PUSH3 0x1A3 JUMPI PUSH1 0x0 DUP1 REVERT JUMPDEST POP JUMP JUMPDEST PUSH1 0x0 DUP2 MLOAD SWAP1 POP PUSH3 0x1B7 DUP2 PUSH3 0x18C JUMP JUMPDEST SWAP3 SWAP2 POP POP JUMP JUMPDEST PUSH1 0x0 PUSH3 0x1CA DUP3 PUSH3 0x178 JUMP JUMPDEST SWAP1 POP SWAP2 SWAP1 POP JUMP JUMPDEST PUSH3 0x1DC DUP2 PUSH3 0x1BD JUMP JUMPDEST DUP2 EQ PUSH3 0x1E8 JUMPI PUSH1 0x0 DUP1 REVERT JUMPDEST POP JUMP JUMPDEST PUSH1 0x0 DUP2 MLOAD SWAP1 POP PUSH3 0x1FC DUP2 PUSH3 0x1D1 JUMP JUMPDEST SWAP3 SWAP2 POP POP JUMP JUMPDEST PUSH1 0x0 PUSH3 0x20F DUP3 PUSH3 0x178 JUMP JUMPDEST SWAP1 POP SWAP2 SWAP1 POP JUMP JUMPDEST PUSH3 0x221 DUP2 PUSH3 0x202 JUMP JUMPDEST DUP2 EQ PUSH3 0x22D JUMPI PUSH1 0x0 DUP1 REVERT JUMPDEST POP JUMP JUMPDEST PUSH1 0x0 DUP2 MLOAD SWAP1 POP PUSH3 0x241 DUP2 PUSH3 0x216 JUMP JUMPDEST SWAP3 SWAP2 POP POP JUMP JUMPDEST PUSH1 0x0 DUP1 PUSH1 0x0 DUP1 PUSH1 0x80 DUP6 DUP8 SUB SLT ISZERO PUSH3 0x264 JUMPI PUSH3 0x263 PUSH3 0x153 JUMP JUMPDEST JUMPDEST PUSH1 0x0 PUSH3 0x274 DUP8 DUP3 DUP9 ADD PUSH3 0x1A6 JUMP JUMPDEST SWAP5 POP POP PUSH1 0x20 PUSH3 0x287 DUP8 DUP3 DUP9 ADD PUSH3 0x1A6 JUMP JUMPDEST SWAP4 POP POP PUSH1 0x40 PUSH3 0x29A DUP8 DUP3 DUP9 ADD PUSH3 0x1EB JUMP JUMPDEST SWAP3 POP POP PUSH1 0x60 PUSH3 0x2AD DUP8 DUP3 DUP9 ADD PUSH3 0x230 JUMP JUMPDEST SWAP2 POP POP SWAP3 SWAP6 SWAP2 SWAP5 POP SWAP3 POP JUMP JUMPDEST PUSH2 0x1555 DUP1 PUSH3 0x2C9 PUSH1 0x0 CODECOPY PUSH1 0x0 RETURN INVALID PUSH1 0x80 PUSH1 0x40 MSTORE PUSH1 0x4 CALLDATASIZE LT PUSH2 0x7B JUMPI PUSH1 0x0 CALLDATALOAD PUSH1 0xE0 SHR DUP1 PUSH4 0x701680B6 GT PUSH2 0x4E JUMPI DUP1 PUSH4 0x701680B6 EQ PUSH2 0x13A JUMPI DUP1 PUSH4 0x8DA5CB5B EQ PUSH2 0x156 JUMPI DUP1 PUSH4 0xC6649AEE EQ PUSH2 0x181 JUMPI DUP1 PUSH4 0xDDCA3F43 EQ PUSH2 0x19D JUMPI PUSH2 0x7B JUMP JUMPDEST DUP1 PUSH4 0x12065FE0 EQ PUSH2 0x80 JUMPI DUP1 PUSH4 0x13AF4035 EQ PUSH2 0xAB JUMPI DUP1 PUSH4 0x36646180 EQ PUSH2 0xD4 JUMPI DUP1 PUSH4 0x69FE0E2D EQ PUSH2 0x111 JUMPI JUMPDEST PUSH1 0x0 DUP1 REVERT JUMPDEST CALLVALUE DUP1 ISZERO PUSH2 0x8C JUMPI PUSH1 0x0 DUP1 REVERT JUMPDEST POP PUSH2 0x95 PUSH2 0x1C8 JUMP JUMPDEST PUSH1 0x40 MLOAD PUSH2 0xA2 SWAP2 SWAP1 PUSH2 0x9BB JUMP JUMPDEST PUSH1 0x40 MLOAD DUP1 SWAP2 SUB SWAP1 RETURN JUMPDEST CALLVALUE DUP1 ISZERO PUSH2 0xB7 JUMPI PUSH1 0x0 DUP1 REVERT JUMPDEST POP PUSH2 0xD2 PUSH1 0x4 DUP1 CALLDATASIZE SUB DUP2 ADD SWAP1 PUSH2 0xCD SWAP2 SWAP1 PUSH2 0xA48 JUMP JUMPDEST PUSH2 0x1D0 JUMP JUMPDEST STOP JUMPDEST CALLVALUE DUP1 ISZERO PUSH2 0xE0 JUMPI PUSH1 0x0 DUP1 REVERT JUMPDEST POP PUSH2 0xFB PUSH1 0x4 DUP1 CALLDATASIZE SUB DUP2 ADD SWAP1 PUSH2 0xF6 SWAP2 SWAP1 PUSH2 0xA48 JUMP JUMPDEST PUSH2 0x2F8 JUMP JUMPDEST PUSH1 0x40 MLOAD PUSH2 0x108 SWAP2 SWAP1 PUSH2 0xB33 JUMP JUMPDEST PUSH1 0x40 MLOAD DUP1 SWAP2 SUB SWAP1 RETURN JUMPDEST CALLVALUE DUP1 ISZERO PUSH2 0x11D JUMPI PUSH1 0x0 DUP1 REVERT JUMPDEST POP PUSH2 0x138 PUSH1 0x4 DUP1 CALLDATASIZE SUB DUP2 ADD SWAP1 PUSH2 0x133 SWAP2 SWAP1 PUSH2 0xB81 JUMP JUMPDEST PUSH2 0x3C5 JUMP JUMPDEST STOP JUMPDEST PUSH2 0x154 PUSH1 0x4 DUP1 CALLDATASIZE SUB DUP2 ADD SWAP1 PUSH2 0x14F SWAP2 SWAP1 PUSH2 0xDD2 JUMP JUMPDEST PUSH2 0x3FB JUMP JUMPDEST STOP JUMPDEST CALLVALUE DUP1 ISZERO PUSH2 0x162 JUMPI PUSH1 0x0 DUP1 REVERT JUMPDEST POP PUSH2 0x16B PUSH2 0x63A JUMP JUMPDEST PUSH1 0x40 MLOAD PUSH2 0x178 SWAP2 SWAP1 PUSH2 0xEA7 JUMP JUMPDEST PUSH1 0x40 MLOAD DUP1 SWAP2 SUB SWAP1 RETURN JUMPDEST PUSH2 0x19B PUSH1 0x4 DUP1 CALLDATASIZE SUB DUP2 ADD SWAP1 PUSH2 0x196 SWAP2 SWAP1 PUSH2 0xF78 JUMP JUMPDEST PUSH2 0x65E JUMP JUMPDEST STOP JUMPDEST CALLVALUE DUP1 ISZERO PUSH2 0x1A9 JUMPI PUSH1 0x0 DUP1 REVERT JUMPDEST POP PUSH2 0x1B2 PUSH2 0x99C JUMP JUMPDEST PUSH1 0x40 MLOAD PUSH2 0x1BF SWAP2 SWAP1 PUSH2 0x9BB JUMP JUMPDEST PUSH1 0x40 MLOAD DUP1 SWAP2 SUB SWAP1 RETURN JUMPDEST PUSH1 0x0 SELFBALANCE SWAP1 POP SWAP1 JUMP JUMPDEST PUSH1 0x0 DUP1 SLOAD SWAP1 PUSH2 0x100 EXP SWAP1 DIV PUSH20 0xFFFFFFFFFFFFFFFFFFFFFFFFFFFFFFFFFFFFFFFF AND PUSH20 0xFFFFFFFFFFFFFFFFFFFFFFFFFFFFFFFFFFFFFFFF AND CALLER PUSH20 0xFFFFFFFFFFFFFFFFFFFFFFFFFFFFFFFFFFFFFFFF AND EQ PUSH2 0x25E JUMPI PUSH1 0x40 MLOAD PUSH32 0x8C379A000000000000000000000000000000000000000000000000000000000 DUP2 MSTORE PUSH1 0x4 ADD PUSH2 0x255 SWAP1 PUSH2 0x10D7 JUMP JUMPDEST PUSH1 0x40 MLOAD DUP1 SWAP2 SUB SWAP1 REVERT JUMPDEST DUP1 PUSH1 0x0 DUP1 PUSH2 0x100 EXP DUP2 SLOAD DUP2 PUSH20 0xFFFFFFFFFFFFFFFFFFFFFFFFFFFFFFFFFFFFFFFF MUL NOT AND SWAP1 DUP4 PUSH20 0xFFFFFFFFFFFFFFFFFFFFFFFFFFFFFFFFFFFFFFFF AND MUL OR SWAP1 SSTORE POP PUSH32 0x2AD00119C52384B34359201EFDEAE8E4BCC95B285F433B645ADB782EF8FFB367 PUSH1 0x0 DUP1 SLOAD SWAP1 PUSH2 0x100 EXP SWAP1 DIV PUSH20 0xFFFFFFFFFFFFFFFFFFFFFFFFFFFFFFFFFFFFFFFF AND PUSH1 0x40 MLOAD PUSH2 0x2ED SWAP2 SWAP1 PUSH2 0xEA7 JUMP JUMPDEST PUSH1 0x40 MLOAD DUP1 SWAP2 SUB SWAP1 LOG1 POP JUMP JUMPDEST PUSH1 0x60 PUSH1 0x2 PUSH1 0x0 DUP4 PUSH20 0xFFFFFFFFFFFFFFFFFFFFFFFFFFFFFFFFFFFFFFFF AND PUSH20 0xFFFFFFFFFFFFFFFFFFFFFFFFFFFFFFFFFFFFFFFF AND DUP2 MSTORE PUSH1 0x20 ADD SWAP1 DUP2 MSTORE PUSH1 0x20 ADD PUSH1 0x0 KECCAK256 DUP1 SLOAD DUP1 PUSH1 0x20 MUL PUSH1 0x20 ADD PUSH1 0x40 MLOAD SWAP1 DUP2 ADD PUSH1 0x40 MSTORE DUP1 SWAP3 SWAP2 SWAP1 DUP2 DUP2 MSTORE PUSH1 0x20 ADD DUP3 DUP1 SLOAD DUP1 ISZERO PUSH2 0x3B9 JUMPI PUSH1 0x20 MUL DUP3 ADD SWAP2 SWAP1 PUSH1 0x0 MSTORE PUSH1 0x20 PUSH1 0x0 KECCAK256 SWAP1 JUMPDEST DUP2 PUSH1 0x0 SWAP1 SLOAD SWAP1 PUSH2 0x100 EXP SWAP1 DIV PUSH20 0xFFFFFFFFFFFFFFFFFFFFFFFFFFFFFFFFFFFFFFFF AND PUSH20 0xFFFFFFFFFFFFFFFFFFFFFFFFFFFFFFFFFFFFFFFF AND DUP2 MSTORE PUSH1 0x20 ADD SWAP1 PUSH1 0x1 ADD SWAP1 DUP1 DUP4 GT PUSH2 0x36F JUMPI JUMPDEST POP POP POP POP POP SWAP1 POP SWAP2 SWAP1 POP JUMP JUMPDEST DUP1 PUSH1 0x3 DUP2 SWAP1 SSTORE POP PUSH32 0xA4987ADC1364E3702695BDE0B67F8B845289F283F5C7D8E223B3682C030CEB4 PUSH1 0x40 MLOAD PUSH1 0x40 MLOAD DUP1 SWAP2 SUB SWAP1 LOG1 POP JUMP JUMPDEST PUSH1 0x3 SLOAD CALLVALUE LT ISZERO PUSH2 0x440 JUMPI PUSH1 0x40 MLOAD PUSH32 0x8C379A000000000000000000000000000000000000000000000000000000000 DUP2 MSTORE PUSH1 0x4 ADD PUSH2 0x437 SWAP1 PUSH2 0x1143 JUMP JUMPDEST PUSH1 0x40 MLOAD DUP1 SWAP2 SUB SWAP1 REVERT JUMPDEST PUSH1 0x0 PUSH1 0x4 PUSH1 0x0 SWAP1 SLOAD SWAP1 PUSH2 0x100 EXP SWAP1 DIV PUSH20 0xFFFFFFFFFFFFFFFFFFFFFFFFFFFFFFFFFFFFFFFF AND PUSH20 0xFFFFFFFFFFFFFFFFFFFFFFFFFFFFFFFFFFFFFFFF AND PUSH4 0x706FB2EE DUP9 DUP9 DUP9 DUP9 DUP9 DUP9 PUSH1 0x40 MLOAD DUP8 PUSH4 0xFFFFFFFF AND PUSH1 0xE0 SHL DUP2 MSTORE PUSH1 0x4 ADD PUSH2 0x4A7 SWAP7 SWAP6 SWAP5 SWAP4 SWAP3 SWAP2 SWAP1 PUSH2 0x126A JUMP JUMPDEST PUSH1 0x20 PUSH1 0x40 MLOAD DUP1 DUP4 SUB DUP2 PUSH1 0x0 DUP8 GAS CALL ISZERO DUP1 ISZERO PUSH2 0x4C6 JUMPI RETURNDATASIZE PUSH1 0x0 DUP1 RETURNDATACOPY RETURNDATASIZE PUSH1 0x0 REVERT JUMPDEST POP POP POP POP PUSH1 0x40 MLOAD RETURNDATASIZE PUSH1 0x1F NOT PUSH1 0x1F DUP3 ADD AND DUP3 ADD DUP1 PUSH1 0x40 MSTORE POP DUP2 ADD SWAP1 PUSH2 0x4EA SWAP2 SWAP1 PUSH2 0x1318 JUMP JUMPDEST SWAP1 POP PUSH1 0x2 PUSH1 0x0 DUP9 PUSH20 0xFFFFFFFFFFFFFFFFFFFFFFFFFFFFFFFFFFFFFFFF AND PUSH20 0xFFFFFFFFFFFFFFFFFFFFFFFFFFFFFFFFFFFFFFFF AND DUP2 MSTORE PUSH1 0x20 ADD SWAP1 DUP2 MSTORE PUSH1 0x20 ADD PUSH1 0x0 KECCAK256 DUP2 SWAP1 DUP1 PUSH1 0x1 DUP2 SLOAD ADD DUP1 DUP3 SSTORE DUP1 SWAP2 POP POP PUSH1 0x1 SWAP1 SUB SWAP1 PUSH1 0x0 MSTORE PUSH1 0x20 PUSH1 0x0 KECCAK256 ADD PUSH1 0x0 SWAP1 SWAP2 SWAP1 SWAP2 SWAP1 SWAP2 PUSH2 0x100 EXP DUP2 SLOAD DUP2 PUSH20 0xFFFFFFFFFFFFFFFFFFFFFFFFFFFFFFFFFFFFFFFF MUL NOT AND SWAP1 DUP4 PUSH20 0xFFFFFFFFFFFFFFFFFFFFFFFFFFFFFFFFFFFFFFFF AND MUL OR SWAP1 SSTORE POP PUSH1 0x0 DUP1 PUSH1 0x0 SWAP1 SLOAD SWAP1 PUSH2 0x100 EXP SWAP1 DIV PUSH20 0xFFFFFFFFFFFFFFFFFFFFFFFFFFFFFFFFFFFFFFFF AND SWAP1 POP DUP1 PUSH20 0xFFFFFFFFFFFFFFFFFFFFFFFFFFFFFFFFFFFFFFFF AND PUSH2 0x8FC CALLVALUE SWAP1 DUP2 ISZERO MUL SWAP1 PUSH1 0x40 MLOAD PUSH1 0x0 PUSH1 0x40 MLOAD DUP1 DUP4 SUB DUP2 DUP6 DUP9 DUP9 CALL SWAP4 POP POP POP POP ISZERO DUP1 ISZERO PUSH2 0x5F8 JUMPI RETURNDATASIZE PUSH1 0x0 DUP1 RETURNDATACOPY RETURNDATASIZE PUSH1 0x0 REVERT JUMPDEST POP PUSH32 0x11D95A3A35D0B4B9B14FD17216057AEEFEF842668D998184CB9F2E114A467A91 DUP3 PUSH1 0x40 MLOAD PUSH2 0x628 SWAP2 SWAP1 PUSH2 0xEA7 JUMP JUMPDEST PUSH1 0x40 MLOAD DUP1 SWAP2 SUB SWAP1 LOG1 POP POP POP POP POP POP POP POP JUMP JUMPDEST PUSH1 0x0 DUP1 SLOAD SWAP1 PUSH2 0x100 EXP SWAP1 DIV PUSH20 0xFFFFFFFFFFFFFFFFFFFFFFFFFFFFFFFFFFFFFFFF AND DUP2 JUMP JUMPDEST PUSH1 0x3 SLOAD CALLVALUE LT ISZERO PUSH2 0x6A3 JUMPI PUSH1 0x40 MLOAD PUSH32 0x8C379A000000000000000000000000000000000000000000000000000000000 DUP2 MSTORE PUSH1 0x4 ADD PUSH2 0x69A SWAP1 PUSH2 0x1143 JUMP JUMPDEST PUSH1 0x40 MLOAD DUP1 SWAP2 SUB SWAP1 REVERT JUMPDEST PUSH1 0x0 PUSH1 0x5 PUSH1 0x0 SWAP1 SLOAD SWAP1 PUSH2 0x100 EXP SWAP1 DIV PUSH20 0xFFFFFFFFFFFFFFFFFFFFFFFFFFFFFFFFFFFFFFFF AND PUSH20 0xFFFFFFFFFFFFFFFFFFFFFFFFFFFFFFFFFFFFFFFF AND PUSH4 0xB304372D PUSH1 0x1 PUSH1 0x0 SWAP1 SLOAD SWAP1 PUSH2 0x100 EXP SWAP1 DIV PUSH20 0xFFFFFFFFFFFFFFFFFFFFFFFFFFFFFFFFFFFFFFFF AND DUP13 DUP13 DUP13 DUP13 DUP13 DUP13 PUSH1 0x40 MLOAD DUP9 PUSH4 0xFFFFFFFF AND PUSH1 0xE0 SHL DUP2 MSTORE PUSH1 0x4 ADD PUSH2 0x72E SWAP8 SWAP7 SWAP6 SWAP5 SWAP4 SWAP3 SWAP2 SWAP1 PUSH2 0x1345 JUMP JUMPDEST PUSH1 0x20 PUSH1 0x40 MLOAD DUP1 DUP4 SUB DUP2 PUSH1 0x0 DUP8 GAS CALL ISZERO DUP1 ISZERO PUSH2 0x74D JUMPI RETURNDATASIZE PUSH1 0x0 DUP1 RETURNDATACOPY RETURNDATASIZE PUSH1 0x0 REVERT JUMPDEST POP POP POP POP PUSH1 0x40 MLOAD RETURNDATASIZE PUSH1 0x1F NOT PUSH1 0x1F DUP3 ADD AND DUP3 ADD DUP1 PUSH1 0x40 MSTORE POP DUP2 ADD SWAP1 PUSH2 0x771 SWAP2 SWAP1 PUSH2 0x1412 JUMP JUMPDEST SWAP1 POP DUP1 PUSH20 0xFFFFFFFFFFFFFFFFFFFFFFFFFFFFFFFFFFFFFFFF AND PUSH4 0x67D24656 DUP6 DUP6 PUSH1 0x40 MLOAD DUP4 PUSH4 0xFFFFFFFF AND PUSH1 0xE0 SHL DUP2 MSTORE PUSH1 0x4 ADD PUSH2 0x7AE SWAP3 SWAP2 SWAP1 PUSH2 0x14DB JUMP JUMPDEST PUSH1 0x0 PUSH1 0x40 MLOAD DUP1 DUP4 SUB DUP2 PUSH1 0x0 DUP8 DUP1 EXTCODESIZE ISZERO DUP1 ISZERO PUSH2 0x7C8 JUMPI PUSH1 0x0 DUP1 REVERT JUMPDEST POP GAS CALL ISZERO DUP1 ISZERO PUSH2 0x7DC JUMPI RETURNDATASIZE PUSH1 0x0 DUP1 RETURNDATACOPY RETURNDATASIZE PUSH1 0x0 REVERT JUMPDEST POP POP POP POP DUP1 PUSH20 0xFFFFFFFFFFFFFFFFFFFFFFFFFFFFFFFFFFFFFFFF AND PUSH4 0x7CE3BB6 DUP4 PUSH1 0x40 MLOAD DUP3 PUSH4 0xFFFFFFFF AND PUSH1 0xE0 SHL DUP2 MSTORE PUSH1 0x4 ADD PUSH2 0x819 SWAP2 SWAP1 PUSH2 0x1504 JUMP JUMPDEST PUSH1 0x0 PUSH1 0x40 MLOAD DUP1 DUP4 SUB DUP2 PUSH1 0x0 DUP8 DUP1 EXTCODESIZE ISZERO DUP1 ISZERO PUSH2 0x833 JUMPI PUSH1 0x0 DUP1 REVERT JUMPDEST POP GAS CALL ISZERO DUP1 ISZERO PUSH2 0x847 JUMPI RETURNDATASIZE PUSH1 0x0 DUP1 RETURNDATACOPY RETURNDATASIZE PUSH1 0x0 REVERT JUMPDEST POP POP POP POP PUSH1 0x2 PUSH1 0x0 DUP12 PUSH20 0xFFFFFFFFFFFFFFFFFFFFFFFFFFFFFFFFFFFFFFFF AND PUSH20 0xFFFFFFFFFFFFFFFFFFFFFFFFFFFFFFFFFFFFFFFF AND DUP2 MSTORE PUSH1 0x20 ADD SWAP1 DUP2 MSTORE PUSH1 0x20 ADD PUSH1 0x0 KECCAK256 DUP2 SWAP1 DUP1 PUSH1 0x1 DUP2 SLOAD ADD DUP1 DUP3 SSTORE DUP1 SWAP2 POP POP PUSH1 0x1 SWAP1 SUB SWAP1 PUSH1 0x0 MSTORE PUSH1 0x20 PUSH1 0x0 KECCAK256 ADD PUSH1 0x0 SWAP1 SWAP2 SWAP1 SWAP2 SWAP1 SWAP2 PUSH2 0x100 EXP DUP2 SLOAD DUP2 PUSH20 0xFFFFFFFFFFFFFFFFFFFFFFFFFFFFFFFFFFFFFFFF MUL NOT AND SWAP1 DUP4 PUSH20 0xFFFFFFFFFFFFFFFFFFFFFFFFFFFFFFFFFFFFFFFF AND MUL OR SWAP1 SSTORE POP PUSH1 0x0 DUP1 PUSH1 0x0 SWAP1 SLOAD SWAP1 PUSH2 0x100 EXP SWAP1 DIV PUSH20 0xFFFFFFFFFFFFFFFFFFFFFFFFFFFFFFFFFFFFFFFF AND SWAP1 POP DUP1 PUSH20 0xFFFFFFFFFFFFFFFFFFFFFFFFFFFFFFFFFFFFFFFF AND PUSH2 0x8FC CALLVALUE SWAP1 DUP2 ISZERO MUL SWAP1 PUSH1 0x40 MLOAD PUSH1 0x0 PUSH1 0x40 MLOAD DUP1 DUP4 SUB DUP2 DUP6 DUP9 DUP9 CALL SWAP4 POP POP POP POP ISZERO DUP1 ISZERO PUSH2 0x957 JUMPI RETURNDATASIZE PUSH1 0x0 DUP1 RETURNDATACOPY RETURNDATASIZE PUSH1 0x0 REVERT JUMPDEST POP PUSH32 0xD38B5C5C827552BF78686FE20CFF5DA58946CBE6FAB7A370A203E365CED42253 DUP3 PUSH1 0x40 MLOAD PUSH2 0x987 SWAP2 SWAP1 PUSH2 0xEA7 JUMP JUMPDEST PUSH1 0x40 MLOAD DUP1 SWAP2 SUB SWAP1 LOG1 POP POP POP POP POP POP POP POP POP POP POP JUMP JUMPDEST PUSH1 0x3 SLOAD DUP2 JUMP JUMPDEST PUSH1 0x0 DUP2 SWAP1 POP SWAP2 SWAP1 POP JUMP JUMPDEST PUSH2 0x9B5 DUP2 PUSH2 0x9A2 JUMP JUMPDEST DUP3 MSTORE POP POP JUMP JUMPDEST PUSH1 0x0 PUSH1 0x20 DUP3 ADD SWAP1 POP PUSH2 0x9D0 PUSH1 0x0 DUP4 ADD DUP5 PUSH2 0x9AC JUMP JUMPDEST SWAP3 SWAP2 POP POP JUMP JUMPDEST PUSH1 0x0 PUSH1 0x40 MLOAD SWAP1 POP SWAP1 JUMP JUMPDEST PUSH1 0x0 DUP1 REVERT JUMPDEST PUSH1 0x0 DUP1 REVERT JUMPDEST PUSH1 0x0 PUSH20 0xFFFFFFFFFFFFFFFFFFFFFFFFFFFFFFFFFFFFFFFF DUP3 AND SWAP1 POP SWAP2 SWAP1 POP JUMP JUMPDEST PUSH1 0x0 PUSH2 0xA15 DUP3 PUSH2 0x9EA JUMP JUMPDEST SWAP1 POP SWAP2 SWAP1 POP JUMP JUMPDEST PUSH2 0xA25 DUP2 PUSH2 0xA0A JUMP JUMPDEST DUP2 EQ PUSH2 0xA30 JUMPI PUSH1 0x0 DUP1 REVERT JUMPDEST POP JUMP JUMPDEST PUSH1 0x0 DUP2 CALLDATALOAD SWAP1 POP PUSH2 0xA42 DUP2 PUSH2 0xA1C JUMP JUMPDEST SWAP3 SWAP2 POP POP JUMP JUMPDEST PUSH1 0x0 PUSH1 0x20 DUP3 DUP5 SUB SLT ISZERO PUSH2 0xA5E JUMPI PUSH2 0xA5D PUSH2 0x9E0 JUMP JUMPDEST JUMPDEST PUSH1 0x0 PUSH2 0xA6C DUP5 DUP3 DUP6 ADD PUSH2 0xA33 JUMP JUMPDEST SWAP2 POP POP SWAP3 SWAP2 POP POP JUMP JUMPDEST PUSH1 0x0 DUP2 MLOAD SWAP1 POP SWAP2 SWAP1 POP JUMP JUMPDEST PUSH1 0x0 DUP3 DUP3 MSTORE PUSH1 0x20 DUP3 ADD SWAP1 POP SWAP3 SWAP2 POP POP JUMP JUMPDEST PUSH1 0x0 DUP2 SWAP1 POP PUSH1 0x20 DUP3 ADD SWAP1 POP SWAP2 SWAP1 POP JUMP JUMPDEST PUSH2 0xAAA DUP2 PUSH2 0xA0A JUMP JUMPDEST DUP3 MSTORE POP POP JUMP JUMPDEST PUSH1 0x0 PUSH2 0xABC DUP4 DUP4 PUSH2 0xAA1 JUMP JUMPDEST PUSH1 0x20 DUP4 ADD SWAP1 POP SWAP3 SWAP2 POP POP JUMP JUMPDEST PUSH1 0x0 PUSH1 0x20 DUP3 ADD SWAP1 POP SWAP2 SWAP1 POP JUMP JUMPDEST PUSH1 0x0 PUSH2 0xAE0 DUP3 PUSH2 0xA75 JUMP JUMPDEST PUSH2 0xAEA DUP2 DUP6 PUSH2 0xA80 JUMP JUMPDEST SWAP4 POP PUSH2 0xAF5 DUP4 PUSH2 0xA91 JUMP JUMPDEST DUP1 PUSH1 0x0 JUMPDEST DUP4 DUP2 LT ISZERO PUSH2 0xB26 JUMPI DUP2 MLOAD PUSH2 0xB0D DUP9 DUP3 PUSH2 0xAB0 JUMP JUMPDEST SWAP8 POP PUSH2 0xB18 DUP4 PUSH2 0xAC8 JUMP JUMPDEST SWAP3 POP POP PUSH1 0x1 DUP2 ADD SWAP1 POP PUSH2 0xAF9 JUMP JUMPDEST POP DUP6 SWAP4 POP POP POP POP SWAP3 SWAP2 POP POP JUMP JUMPDEST PUSH1 0x0 PUSH1 0x20 DUP3 ADD SWAP1 POP DUP2 DUP2 SUB PUSH1 0x0 DUP4 ADD MSTORE PUSH2 0xB4D DUP2 DUP5 PUSH2 0xAD5 JUMP JUMPDEST SWAP1 POP SWAP3 SWAP2 POP POP JUMP JUMPDEST PUSH2 0xB5E DUP2 PUSH2 0x9A2 JUMP JUMPDEST DUP2 EQ PUSH2 0xB69 JUMPI PUSH1 0x0 DUP1 REVERT JUMPDEST POP JUMP JUMPDEST PUSH1 0x0 DUP2 CALLDATALOAD SWAP1 POP PUSH2 0xB7B DUP2 PUSH2 0xB55 JUMP JUMPDEST SWAP3 SWAP2 POP POP JUMP JUMPDEST PUSH1 0x0 PUSH1 0x20 DUP3 DUP5 SUB SLT ISZERO PUSH2 0xB97 JUMPI PUSH2 0xB96 PUSH2 0x9E0 JUMP JUMPDEST JUMPDEST PUSH1 0x0 PUSH2 0xBA5 DUP5 DUP3 DUP6 ADD PUSH2 0xB6C JUMP JUMPDEST SWAP2 POP POP SWAP3 SWAP2 POP POP JUMP JUMPDEST PUSH1 0x0 DUP1 REVERT JUMPDEST PUSH1 0x0 DUP1 REVERT JUMPDEST PUSH1 0x0 PUSH1 0x1F NOT PUSH1 0x1F DUP4 ADD AND SWAP1 POP SWAP2 SWAP1 POP JUMP JUMPDEST PUSH32 0x4E487B7100000000000000000000000000000000000000000000000000000000 PUSH1 0x0 MSTORE PUSH1 0x41 PUSH1 0x4 MSTORE PUSH1 0x24 PUSH1 0x0 REVERT JUMPDEST PUSH2 0xC01 DUP3 PUSH2 0xBB8 JUMP JUMPDEST DUP2 ADD DUP2 DUP2 LT PUSH8 0xFFFFFFFFFFFFFFFF DUP3 GT OR ISZERO PUSH2 0xC20 JUMPI PUSH2 0xC1F PUSH2 0xBC9 JUMP JUMPDEST JUMPDEST DUP1 PUSH1 0x40 MSTORE POP POP POP JUMP JUMPDEST PUSH1 0x0 PUSH2 0xC33 PUSH2 0x9D6 JUMP JUMPDEST SWAP1 POP PUSH2 0xC3F DUP3 DUP3 PUSH2 0xBF8 JUMP JUMPDEST SWAP2 SWAP1 POP JUMP JUMPDEST PUSH1 0x0 PUSH8 0xFFFFFFFFFFFFFFFF DUP3 GT ISZERO PUSH2 0xC5F JUMPI PUSH2 0xC5E PUSH2 0xBC9 JUMP JUMPDEST JUMPDEST PUSH2 0xC68 DUP3 PUSH2 0xBB8 JUMP JUMPDEST SWAP1 POP PUSH1 0x20 DUP2 ADD SWAP1 POP SWAP2 SWAP1 POP JUMP JUMPDEST DUP3 DUP2 DUP4 CALLDATACOPY PUSH1 0x0 DUP4 DUP4 ADD MSTORE POP POP POP JUMP JUMPDEST PUSH1 0x0 PUSH2 0xC97 PUSH2 0xC92 DUP5 PUSH2 0xC44 JUMP JUMPDEST PUSH2 0xC29 JUMP JUMPDEST SWAP1 POP DUP3 DUP2 MSTORE PUSH1 0x20 DUP2 ADD DUP5 DUP5 DUP5 ADD GT ISZERO PUSH2 0xCB3 JUMPI PUSH2 0xCB2 PUSH2 0xBB3 JUMP JUMPDEST JUMPDEST PUSH2 0xCBE DUP5 DUP3 DUP6 PUSH2 0xC75 JUMP JUMPDEST POP SWAP4 SWAP3 POP POP POP JUMP JUMPDEST PUSH1 0x0 DUP3 PUSH1 0x1F DUP4 ADD SLT PUSH2 0xCDB JUMPI PUSH2 0xCDA PUSH2 0xBAE JUMP JUMPDEST JUMPDEST DUP2 CALLDATALOAD PUSH2 0xCEB DUP5 DUP3 PUSH1 0x20 DUP7 ADD PUSH2 0xC84 JUMP JUMPDEST SWAP2 POP POP SWAP3 SWAP2 POP POP JUMP JUMPDEST PUSH1 0x0 PUSH1 0xFF DUP3 AND SWAP1 POP SWAP2 SWAP1 POP JUMP JUMPDEST PUSH2 0xD0A DUP2 PUSH2 0xCF4 JUMP JUMPDEST DUP2 EQ PUSH2 0xD15 JUMPI PUSH1 0x0 DUP1 REVERT JUMPDEST POP JUMP JUMPDEST PUSH1 0x0 DUP2 CALLDATALOAD SWAP1 POP PUSH2 0xD27 DUP2 PUSH2 0xD01 JUMP JUMPDEST SWAP3 SWAP2 POP POP JUMP JUMPDEST PUSH1 0x0 DUP1 REVERT JUMPDEST PUSH1 0x0 PUSH1 0xC0 DUP3 DUP5 SUB SLT ISZERO PUSH2 0xD48 JUMPI PUSH2 0xD47 PUSH2 0xD2D JUMP JUMPDEST JUMPDEST PUSH2 0xD52 PUSH1 0xC0 PUSH2 0xC29 JUMP JUMPDEST SWAP1 POP PUSH1 0x0 PUSH2 0xD62 DUP5 DUP3 DUP6 ADD PUSH2 0xA33 JUMP JUMPDEST PUSH1 0x0 DUP4 ADD MSTORE POP PUSH1 0x20 PUSH2 0xD76 DUP5 DUP3 DUP6 ADD PUSH2 0xB6C JUMP JUMPDEST PUSH1 0x20 DUP4 ADD MSTORE POP PUSH1 0x40 PUSH2 0xD8A DUP5 DUP3 DUP6 ADD PUSH2 0xB6C JUMP JUMPDEST PUSH1 0x40 DUP4 ADD MSTORE POP PUSH1 0x60 PUSH2 0xD9E DUP5 DUP3 DUP6 ADD PUSH2 0xB6C JUMP JUMPDEST PUSH1 0x60 DUP4 ADD MSTORE POP PUSH1 0x80 PUSH2 0xDB2 DUP5 DUP3 DUP6 ADD PUSH2 0xB6C JUMP JUMPDEST PUSH1 0x80 DUP4 ADD MSTORE POP PUSH1 0xA0 PUSH2 0xDC6 DUP5 DUP3 DUP6 ADD PUSH2 0xB6C JUMP JUMPDEST PUSH1 0xA0 DUP4 ADD MSTORE POP SWAP3 SWAP2 POP POP JUMP JUMPDEST PUSH1 0x0 DUP1 PUSH1 0x0 DUP1 PUSH1 0x0 DUP1 PUSH2 0x160 DUP8 DUP10 SUB SLT ISZERO PUSH2 0xDF0 JUMPI PUSH2 0xDEF PUSH2 0x9E0 JUMP JUMPDEST JUMPDEST PUSH1 0x0 PUSH2 0xDFE DUP10 DUP3 DUP11 ADD PUSH2 0xA33 JUMP JUMPDEST SWAP7 POP POP PUSH1 0x20 DUP8 ADD CALLDATALOAD PUSH8 0xFFFFFFFFFFFFFFFF DUP2 GT ISZERO PUSH2 0xE1F JUMPI PUSH2 0xE1E PUSH2 0x9E5 JUMP JUMPDEST JUMPDEST PUSH2 0xE2B DUP10 DUP3 DUP11 ADD PUSH2 0xCC6 JUMP JUMPDEST SWAP6 POP POP PUSH1 0x40 DUP8 ADD CALLDATALOAD PUSH8 0xFFFFFFFFFFFFFFFF DUP2 GT ISZERO PUSH2 0xE4C JUMPI PUSH2 0xE4B PUSH2 0x9E5 JUMP JUMPDEST JUMPDEST PUSH2 0xE58 DUP10 DUP3 DUP11 ADD PUSH2 0xCC6 JUMP JUMPDEST SWAP5 POP POP PUSH1 0x60 PUSH2 0xE69 DUP10 DUP3 DUP11 ADD PUSH2 0xD18 JUMP JUMPDEST SWAP4 POP POP PUSH1 0x80 PUSH2 0xE7A DUP10 DUP3 DUP11 ADD PUSH2 0xB6C JUMP JUMPDEST SWAP3 POP POP PUSH1 0xA0 PUSH2 0xE8B DUP10 DUP3 DUP11 ADD PUSH2 0xD32 JUMP JUMPDEST SWAP2 POP POP SWAP3 SWAP6 POP SWAP3 SWAP6 POP SWAP3 SWAP6 JUMP JUMPDEST PUSH2 0xEA1 DUP2 PUSH2 0xA0A JUMP JUMPDEST DUP3 MSTORE POP POP JUMP JUMPDEST PUSH1 0x0 PUSH1 0x20 DUP3 ADD SWAP1 POP PUSH2 0xEBC PUSH1 0x0 DUP4 ADD DUP5 PUSH2 0xE98 JUMP JUMPDEST SWAP3 SWAP2 POP POP JUMP JUMPDEST PUSH1 0x0 PUSH8 0xFFFFFFFFFFFFFFFF DUP3 GT ISZERO PUSH2 0xEDD JUMPI PUSH2 0xEDC PUSH2 0xBC9 JUMP JUMPDEST JUMPDEST PUSH1 0x20 DUP3 MUL SWAP1 POP SWAP2 SWAP1 POP JUMP JUMPDEST PUSH1 0x0 DUP1 REVERT JUMPDEST PUSH1 0x0 PUSH2 0xF00 PUSH2 0xEFB DUP5 PUSH2 0xEC2 JUMP JUMPDEST PUSH2 0xC29 JUMP JUMPDEST SWAP1 POP DUP1 PUSH1 0x20 DUP5 MUL DUP4 ADD DUP6 DUP2 GT ISZERO PUSH2 0xF1A JUMPI PUSH2 0xF19 PUSH2 0xEE8 JUMP JUMPDEST JUMPDEST DUP4 JUMPDEST DUP2 DUP2 LT ISZERO PUSH2 0xF43 JUMPI DUP1 PUSH2 0xF2F DUP9 DUP3 PUSH2 0xB6C JUMP JUMPDEST DUP5 MSTORE PUSH1 0x20 DUP5 ADD SWAP4 POP POP PUSH1 0x20 DUP2 ADD SWAP1 POP PUSH2 0xF1C JUMP JUMPDEST POP POP POP SWAP4 SWAP3 POP POP POP JUMP JUMPDEST PUSH1 0x0 DUP3 PUSH1 0x1F DUP4 ADD SLT PUSH2 0xF62 JUMPI PUSH2 0xF61 PUSH2 0xBAE JUMP JUMPDEST JUMPDEST PUSH1 0x4 PUSH2 0xF6F DUP5 DUP3 DUP6 PUSH2 0xEED JUMP JUMPDEST SWAP2 POP POP SWAP3 SWAP2 POP POP JUMP JUMPDEST PUSH1 0x0 DUP1 PUSH1 0x0 DUP1 PUSH1 0x0 DUP1 PUSH1 0x0 DUP1 PUSH1 0x0 PUSH2 0x220 DUP11 DUP13 SUB SLT ISZERO PUSH2 0xF9B JUMPI PUSH2 0xF9A PUSH2 0x9E0 JUMP JUMPDEST JUMPDEST PUSH1 0x0 PUSH2 0xFA9 DUP13 DUP3 DUP14 ADD PUSH2 0xA33 JUMP JUMPDEST SWAP10 POP POP PUSH1 0x20 PUSH2 0xFBA DUP13 DUP3 DUP14 ADD PUSH2 0xA33 JUMP JUMPDEST SWAP9 POP POP PUSH1 0x40 DUP11 ADD CALLDATALOAD PUSH8 0xFFFFFFFFFFFFFFFF DUP2 GT ISZERO PUSH2 0xFDB JUMPI PUSH2 0xFDA PUSH2 0x9E5 JUMP JUMPDEST JUMPDEST PUSH2 0xFE7 DUP13 DUP3 DUP14 ADD PUSH2 0xCC6 JUMP JUMPDEST SWAP8 POP POP PUSH1 0x60 DUP11 ADD CALLDATALOAD PUSH8 0xFFFFFFFFFFFFFFFF DUP2 GT ISZERO PUSH2 0x1008 JUMPI PUSH2 0x1007 PUSH2 0x9E5 JUMP JUMPDEST JUMPDEST PUSH2 0x1014 DUP13 DUP3 DUP14 ADD PUSH2 0xCC6 JUMP JUMPDEST SWAP7 POP POP PUSH1 0x80 PUSH2 0x1025 DUP13 DUP3 DUP14 ADD PUSH2 0xD18 JUMP JUMPDEST SWAP6 POP POP PUSH1 0xA0 PUSH2 0x1036 DUP13 DUP3 DUP14 ADD PUSH2 0xB6C JUMP JUMPDEST SWAP5 POP POP PUSH1 0xC0 PUSH2 0x1047 DUP13 DUP3 DUP14 ADD PUSH2 0xB6C JUMP JUMPDEST SWAP4 POP POP PUSH1 0xE0 PUSH2 0x1058 DUP13 DUP3 DUP14 ADD PUSH2 0xF4D JUMP JUMPDEST SWAP3 POP POP PUSH2 0x160 PUSH2 0x106A DUP13 DUP3 DUP14 ADD PUSH2 0xD32 JUMP JUMPDEST SWAP2 POP POP SWAP3 SWAP6 SWAP9 POP SWAP3 SWAP6 SWAP9 POP SWAP3 SWAP6 SWAP9 JUMP JUMPDEST PUSH1 0x0 DUP3 DUP3 MSTORE PUSH1 0x20 DUP3 ADD SWAP1 POP SWAP3 SWAP2 POP POP JUMP JUMPDEST PUSH32 0x4F6E6C79206D616E616765722063616E20646F20697400000000000000000000 PUSH1 0x0 DUP3 ADD MSTORE POP JUMP JUMPDEST PUSH1 0x0 PUSH2 0x10C1 PUSH1 0x16 DUP4 PUSH2 0x107A JUMP JUMPDEST SWAP2 POP PUSH2 0x10CC DUP3 PUSH2 0x108B JUMP JUMPDEST PUSH1 0x20 DUP3 ADD SWAP1 POP SWAP2 SWAP1 POP JUMP JUMPDEST PUSH1 0x0 PUSH1 0x20 DUP3 ADD SWAP1 POP DUP2 DUP2 SUB PUSH1 0x0 DUP4 ADD MSTORE PUSH2 0x10F0 DUP2 PUSH2 0x10B4 JUMP JUMPDEST SWAP1 POP SWAP2 SWAP1 POP JUMP JUMPDEST PUSH32 0x42616C616E636520697320696E737566666963656E7400000000000000000000 PUSH1 0x0 DUP3 ADD MSTORE POP JUMP JUMPDEST PUSH1 0x0 PUSH2 0x112D PUSH1 0x16 DUP4 PUSH2 0x107A JUMP JUMPDEST SWAP2 POP PUSH2 0x1138 DUP3 PUSH2 0x10F7 JUMP JUMPDEST PUSH1 0x20 DUP3 ADD SWAP1 POP SWAP2 SWAP1 POP JUMP JUMPDEST PUSH1 0x0 PUSH1 0x20 DUP3 ADD SWAP1 POP DUP2 DUP2 SUB PUSH1 0x0 DUP4 ADD MSTORE PUSH2 0x115C DUP2 PUSH2 0x1120 JUMP JUMPDEST SWAP1 POP SWAP2 SWAP1 POP JUMP JUMPDEST PUSH1 0x0 DUP2 MLOAD SWAP1 POP SWAP2 SWAP1 POP JUMP JUMPDEST PUSH1 0x0 JUMPDEST DUP4 DUP2 LT ISZERO PUSH2 0x118C JUMPI DUP1 DUP3 ADD MLOAD DUP2 DUP5 ADD MSTORE PUSH1 0x20 DUP2 ADD SWAP1 POP PUSH2 0x1171 JUMP JUMPDEST PUSH1 0x0 DUP5 DUP5 ADD MSTORE POP POP POP POP JUMP JUMPDEST PUSH1 0x0 PUSH2 0x11A3 DUP3 PUSH2 0x1163 JUMP JUMPDEST PUSH2 0x11AD DUP2 DUP6 PUSH2 0x107A JUMP JUMPDEST SWAP4 POP PUSH2 0x11BD DUP2 DUP6 PUSH1 0x20 DUP7 ADD PUSH2 0x116E JUMP JUMPDEST PUSH2 0x11C6 DUP2 PUSH2 0xBB8 JUMP JUMPDEST DUP5 ADD SWAP2 POP POP SWAP3 SWAP2 POP POP JUMP JUMPDEST PUSH2 0x11DA DUP2 PUSH2 0xCF4 JUMP JUMPDEST DUP3 MSTORE POP POP JUMP JUMPDEST PUSH2 0x11E9 DUP2 PUSH2 0x9A2 JUMP JUMPDEST DUP3 MSTORE POP POP JUMP JUMPDEST PUSH1 0xC0 DUP3 ADD PUSH1 0x0 DUP3 ADD MLOAD PUSH2 0x1205 PUSH1 0x0 DUP6 ADD DUP3 PUSH2 0xAA1 JUMP JUMPDEST POP PUSH1 0x20 DUP3 ADD MLOAD PUSH2 0x1218 PUSH1 0x20 DUP6 ADD DUP3 PUSH2 0x11E0 JUMP JUMPDEST POP PUSH1 0x40 DUP3 ADD MLOAD PUSH2 0x122B PUSH1 0x40 DUP6 ADD DUP3 PUSH2 0x11E0 JUMP JUMPDEST POP PUSH1 0x60 DUP3 ADD MLOAD PUSH2 0x123E PUSH1 0x60 DUP6 ADD DUP3 PUSH2 0x11E0 JUMP JUMPDEST POP PUSH1 0x80 DUP3 ADD MLOAD PUSH2 0x1251 PUSH1 0x80 DUP6 ADD DUP3 PUSH2 0x11E0 JUMP JUMPDEST POP PUSH1 0xA0 DUP3 ADD MLOAD PUSH2 0x1264 PUSH1 0xA0 DUP6 ADD DUP3 PUSH2 0x11E0 JUMP JUMPDEST POP POP POP POP JUMP JUMPDEST PUSH1 0x0 PUSH2 0x160 DUP3 ADD SWAP1 POP PUSH2 0x1280 PUSH1 0x0 DUP4 ADD DUP10 PUSH2 0xE98 JUMP JUMPDEST DUP2 DUP2 SUB PUSH1 0x20 DUP4 ADD MSTORE PUSH2 0x1292 DUP2 DUP9 PUSH2 0x1198 JUMP JUMPDEST SWAP1 POP DUP2 DUP2 SUB PUSH1 0x40 DUP4 ADD MSTORE PUSH2 0x12A6 DUP2 DUP8 PUSH2 0x1198 JUMP JUMPDEST SWAP1 POP PUSH2 0x12B5 PUSH1 0x60 DUP4 ADD DUP7 PUSH2 0x11D1 JUMP JUMPDEST PUSH2 0x12C2 PUSH1 0x80 DUP4 ADD DUP6 PUSH2 0x9AC JUMP JUMPDEST PUSH2 0x12CF PUSH1 0xA0 DUP4 ADD DUP5 PUSH2 0x11EF JUMP JUMPDEST SWAP8 SWAP7 POP POP POP POP POP POP POP JUMP JUMPDEST PUSH1 0x0 PUSH2 0x12E5 DUP3 PUSH2 0xA0A JUMP JUMPDEST SWAP1 POP SWAP2 SWAP1 POP JUMP JUMPDEST PUSH2 0x12F5 DUP2 PUSH2 0x12DA JUMP JUMPDEST DUP2 EQ PUSH2 0x1300 JUMPI PUSH1 0x0 DUP1 REVERT JUMPDEST POP JUMP JUMPDEST PUSH1 0x0 DUP2 MLOAD SWAP1 POP PUSH2 0x1312 DUP2 PUSH2 0x12EC JUMP JUMPDEST SWAP3 SWAP2 POP POP JUMP JUMPDEST PUSH1 0x0 PUSH1 0x20 DUP3 DUP5 SUB SLT ISZERO PUSH2 0x132E JUMPI PUSH2 0x132D PUSH2 0x9E0 JUMP JUMPDEST JUMPDEST PUSH1 0x0 PUSH2 0x133C DUP5 DUP3 DUP6 ADD PUSH2 0x1303 JUMP JUMPDEST SWAP2 POP POP SWAP3 SWAP2 POP POP JUMP JUMPDEST PUSH1 0x0 PUSH1 0xE0 DUP3 ADD SWAP1 POP PUSH2 0x135A PUSH1 0x0 DUP4 ADD DUP11 PUSH2 0xE98 JUMP JUMPDEST PUSH2 0x1367 PUSH1 0x20 DUP4 ADD DUP10 PUSH2 0xE98 JUMP JUMPDEST PUSH2 0x1374 PUSH1 0x40 DUP4 ADD DUP9 PUSH2 0xE98 JUMP JUMPDEST DUP2 DUP2 SUB PUSH1 0x60 DUP4 ADD MSTORE PUSH2 0x1386 DUP2 DUP8 PUSH2 0x1198 JUMP JUMPDEST SWAP1 POP DUP2 DUP2 SUB PUSH1 0x80 DUP4 ADD MSTORE PUSH2 0x139A DUP2 DUP7 PUSH2 0x1198 JUMP JUMPDEST SWAP1 POP PUSH2 0x13A9 PUSH1 0xA0 DUP4 ADD DUP6 PUSH2 0x11D1 JUMP JUMPDEST PUSH2 0x13B6 PUSH1 0xC0 DUP4 ADD DUP5 PUSH2 0x9AC JUMP JUMPDEST SWAP9 SWAP8 POP POP POP POP POP POP POP POP JUMP JUMPDEST PUSH1 0x0 PUSH2 0x13CD DUP3 PUSH2 0x9EA JUMP JUMPDEST SWAP1 POP SWAP2 SWAP1 POP JUMP JUMPDEST PUSH1 0x0 PUSH2 0x13DF DUP3 PUSH2 0x13C2 JUMP JUMPDEST SWAP1 POP SWAP2 SWAP1 POP JUMP JUMPDEST PUSH2 0x13EF DUP2 PUSH2 0x13D4 JUMP JUMPDEST DUP2 EQ PUSH2 0x13FA JUMPI PUSH1 0x0 DUP1 REVERT JUMPDEST POP JUMP JUMPDEST PUSH1 0x0 DUP2 MLOAD SWAP1 POP PUSH2 0x140C DUP2 PUSH2 0x13E6 JUMP JUMPDEST SWAP3 SWAP2 POP POP JUMP JUMPDEST PUSH1 0x0 PUSH1 0x20 DUP3 DUP5 SUB SLT ISZERO PUSH2 0x1428 JUMPI PUSH2 0x1427 PUSH2 0x9E0 JUMP JUMPDEST JUMPDEST PUSH1 0x0 PUSH2 0x1436 DUP5 DUP3 DUP6 ADD PUSH2 0x13FD JUMP JUMPDEST SWAP2 POP POP SWAP3 SWAP2 POP POP JUMP JUMPDEST PUSH1 0x0 PUSH1 0x4 SWAP1 POP SWAP2 SWAP1 POP JUMP JUMPDEST PUSH1 0x0 DUP2 SWAP1 POP SWAP3 SWAP2 POP POP JUMP JUMPDEST PUSH1 0x0 DUP2 SWAP1 POP SWAP2 SWAP1 POP JUMP JUMPDEST PUSH1 0x0 PUSH2 0x146B DUP4 DUP4 PUSH2 0x11E0 JUMP JUMPDEST PUSH1 0x20 DUP4 ADD SWAP1 POP SWAP3 SWAP2 POP POP JUMP JUMPDEST PUSH1 0x0 PUSH1 0x20 DUP3 ADD SWAP1 POP SWAP2 SWAP1 POP JUMP JUMPDEST PUSH2 0x148D DUP2 PUSH2 0x143F JUMP JUMPDEST PUSH2 0x1497 DUP2 DUP5 PUSH2 0x144A JUMP JUMPDEST SWAP3 POP PUSH2 0x14A2 DUP3 PUSH2 0x1455 JUMP JUMPDEST DUP1 PUSH1 0x0 JUMPDEST DUP4 DUP2 LT ISZERO PUSH2 0x14D3 JUMPI DUP2 MLOAD PUSH2 0x14BA DUP8 DUP3 PUSH2 0x145F JUMP JUMPDEST SWAP7 POP PUSH2 0x14C5 DUP4 PUSH2 0x1477 JUMP JUMPDEST SWAP3 POP POP PUSH1 0x1 DUP2 ADD SWAP1 POP PUSH2 0x14A6 JUMP JUMPDEST POP POP POP POP POP POP JUMP JUMPDEST PUSH1 0x0 PUSH1 0xA0 DUP3 ADD SWAP1 POP PUSH2 0x14F0 PUSH1 0x0 DUP4 ADD DUP6 PUSH2 0x9AC JUMP JUMPDEST PUSH2 0x14FD PUSH1 0x20 DUP4 ADD DUP5 PUSH2 0x1484 JUMP JUMPDEST SWAP4 SWAP3 POP POP POP JUMP JUMPDEST PUSH1 0x0 PUSH1 0xC0 DUP3 ADD SWAP1 POP PUSH2 0x1519 PUSH1 0x0 DUP4 ADD DUP5 PUSH2 0x11EF JUMP JUMPDEST SWAP3 SWAP2 POP POP JUMP INVALID LOG2 PUSH5 0x6970667358 0x22 SLT KECCAK256 PUSH2 0x350E PUSH15 0x2A22A9B159D3CDCBC9E1F79025E43D CREATE SSTORE 0xEE 0x25 SLOAD REVERT PUSH24 0xD651B629D95A64736F6C6343000814003300000000000000 "},"methodIdentifiers":{"createLiquidity(address,address,string,string,uint8,uint256,uint256,uint256[4],(address,uint256,uint256,uint256,uint256,uint256))":"c6649aee","createStandard(address,string,string,uint8,uint256,(address,uint256,uint256,uint256,uint256,uint256))":"701680b6","fee()":"ddca3f43","getBalance()":"12065fe0","getCreatedToken(address)":"36646180","owner()":"8da5cb5b","setFee(uint256)":"69fe0e2d","setOwner(address)":"13af4035"}}}}}