{
  "_format": "hh-sol-artifact-1",
  "contractName": "LiquidityToken",
  "sourceName": "contracts/CreateToken/Meter/contracts/CreateToken/Meter/LiquidityToken.sol",
  "abi": [
    {
      "inputs": [
        {
          "internalType": "address",
          "name": "creator_",
          "type": "address"
        },
        {
          "internalType": "address",
          "name": "unirouter",
          "type": "address"
        },
        {
          "internalType": "address",
          "name": "reciever",
          "type": "address"
        },
        {
          "internalType": "uint8",
          "name": "decimal_",
          "type": "uint8"
        },
        {
          "internalType": "uint256",
          "name": "supply",
          "type": "uint256"
        },
        {
          "internalType": "string",
          "name": "name_",
          "type": "string"
        },
        {
          "internalType": "string",
          "name": "symbol_",
          "type": "string"
        }
      ],
      "stateMutability": "nonpayable",
      "type": "constructor"
    },
    {
      "anonymous": false,
      "inputs": [
        {
          "indexed": true,
          "internalType": "address",
          "name": "owner",
          "type": "address"
        },
        {
          "indexed": true,
          "internalType": "address",
          "name": "spender",
          "type": "address"
        },
        {
          "indexed": false,
          "internalType": "uint256",
          "name": "value",
          "type": "uint256"
        }
      ],
      "name": "Approval",
      "type": "event"
    },
    {
      "anonymous": false,
      "inputs": [
        {
          "indexed": true,
          "internalType": "address",
          "name": "user",
          "type": "address"
        },
        {
          "indexed": false,
          "internalType": "bool",
          "name": "value",
          "type": "bool"
        }
      ],
      "name": "BlacklistUpdated",
      "type": "event"
    },
    {
      "anonymous": false,
      "inputs": [
        {
          "indexed": false,
          "internalType": "uint256",
          "name": "",
          "type": "uint256"
        }
      ],
      "name": "BurnSuccess",
      "type": "event"
    },
    {
      "anonymous": false,
      "inputs": [
        {
          "indexed": false,
          "internalType": "bool",
          "name": "enabled",
          "type": "bool"
        }
      ],
      "name": "BuyBackEnabledUpdated",
      "type": "event"
    },
    {
      "anonymous": false,
      "inputs": [
        {
          "indexed": false,
          "internalType": "uint256",
          "name": "",
          "type": "uint256"
        }
      ],
      "name": "MintSuccess",
      "type": "event"
    },
    {
      "anonymous": false,
      "inputs": [
        {
          "indexed": false,
          "internalType": "address",
          "name": "account",
          "type": "address"
        }
      ],
      "name": "Paused",
      "type": "event"
    },
    {
      "anonymous": false,
      "inputs": [
        {
          "indexed": false,
          "internalType": "uint256",
          "name": "tokenAmount",
          "type": "uint256"
        }
      ],
      "name": "RewardLiquidityProviders",
      "type": "event"
    },
    {
      "anonymous": false,
      "inputs": [
        {
          "indexed": false,
          "internalType": "uint256",
          "name": "tokensSwapped",
          "type": "uint256"
        },
        {
          "indexed": false,
          "internalType": "uint256",
          "name": "ethReceived",
          "type": "uint256"
        },
        {
          "indexed": false,
          "internalType": "uint256",
          "name": "tokensIntoLiqudity",
          "type": "uint256"
        }
      ],
      "name": "SwapAndLiquify",
      "type": "event"
    },
    {
      "anonymous": false,
      "inputs": [
        {
          "indexed": false,
          "internalType": "bool",
          "name": "enabled",
          "type": "bool"
        }
      ],
      "name": "SwapAndLiquifyEnabledUpdated",
      "type": "event"
    },
    {
      "anonymous": false,
      "inputs": [
        {
          "indexed": false,
          "internalType": "uint256",
          "name": "amountIn",
          "type": "uint256"
        },
        {
          "indexed": false,
          "internalType": "address[]",
          "name": "path",
          "type": "address[]"
        }
      ],
      "name": "SwapETHForTokens",
      "type": "event"
    },
    {
      "anonymous": false,
      "inputs": [
        {
          "indexed": false,
          "internalType": "uint256",
          "name": "amountIn",
          "type": "uint256"
        },
        {
          "indexed": false,
          "internalType": "address[]",
          "name": "path",
          "type": "address[]"
        }
      ],
      "name": "SwapTokensForETH",
      "type": "event"
    },
    {
      "anonymous": false,
      "inputs": [
        {
          "indexed": true,
          "internalType": "address",
          "name": "from",
          "type": "address"
        },
        {
          "indexed": true,
          "internalType": "address",
          "name": "to",
          "type": "address"
        },
        {
          "indexed": false,
          "internalType": "uint256",
          "name": "value",
          "type": "uint256"
        }
      ],
      "name": "Transfer",
      "type": "event"
    },
    {
      "anonymous": false,
      "inputs": [
        {
          "indexed": false,
          "internalType": "address",
          "name": "account",
          "type": "address"
        }
      ],
      "name": "Unpaused",
      "type": "event"
    },
    {
      "inputs": [],
      "name": "UniswapPair",
      "outputs": [
        {
          "internalType": "address",
          "name": "",
          "type": "address"
        }
      ],
      "stateMutability": "view",
      "type": "function"
    },
    {
      "inputs": [],
      "name": "UniswapRouter",
      "outputs": [
        {
          "internalType": "contract IUniswapV2Router02",
          "name": "",
          "type": "address"
        }
      ],
      "stateMutability": "view",
      "type": "function"
    },
    {
      "inputs": [],
      "name": "_liquidityFee",
      "outputs": [
        {
          "internalType": "uint256",
          "name": "",
          "type": "uint256"
        }
      ],
      "stateMutability": "view",
      "type": "function"
    },
    {
      "inputs": [],
      "name": "_maxTxAmount",
      "outputs": [
        {
          "internalType": "uint256",
          "name": "",
          "type": "uint256"
        }
      ],
      "stateMutability": "view",
      "type": "function"
    },
    {
      "inputs": [],
      "name": "_pause",
      "outputs": [],
      "stateMutability": "nonpayable",
      "type": "function"
    },
    {
      "inputs": [],
      "name": "_taxFee",
      "outputs": [
        {
          "internalType": "uint256",
          "name": "",
          "type": "uint256"
        }
      ],
      "stateMutability": "view",
      "type": "function"
    },
    {
      "inputs": [],
      "name": "_unpause",
      "outputs": [],
      "stateMutability": "nonpayable",
      "type": "function"
    },
    {
      "inputs": [
        {
          "internalType": "address",
          "name": "_owner",
          "type": "address"
        },
        {
          "internalType": "address",
          "name": "spender",
          "type": "address"
        }
      ],
      "name": "allowance",
      "outputs": [
        {
          "internalType": "uint256",
          "name": "",
          "type": "uint256"
        }
      ],
      "stateMutability": "view",
      "type": "function"
    },
    {
      "inputs": [
        {
          "internalType": "address",
          "name": "spender",
          "type": "address"
        },
        {
          "internalType": "uint256",
          "name": "amount",
          "type": "uint256"
        }
      ],
      "name": "approve",
      "outputs": [
        {
          "internalType": "bool",
          "name": "",
          "type": "bool"
        }
      ],
      "stateMutability": "nonpayable",
      "type": "function"
    },
    {
      "inputs": [
        {
          "internalType": "address",
          "name": "account",
          "type": "address"
        }
      ],
      "name": "balanceOf",
      "outputs": [
        {
          "internalType": "uint256",
          "name": "",
          "type": "uint256"
        }
      ],
      "stateMutability": "view",
      "type": "function"
    },
    {
      "inputs": [
        {
          "internalType": "address",
          "name": "user",
          "type": "address"
        },
        {
          "internalType": "bool",
          "name": "value",
          "type": "bool"
        }
      ],
      "name": "blacklistUpdate",
      "outputs": [],
      "stateMutability": "nonpayable",
      "type": "function"
    },
    {
      "inputs": [
        {
          "internalType": "uint256",
          "name": "amount",
          "type": "uint256"
        }
      ],
      "name": "burn",
      "outputs": [],
      "stateMutability": "nonpayable",
      "type": "function"
    },
    {
      "inputs": [],
      "name": "buyBackEnabled",
      "outputs": [
        {
          "internalType": "bool",
          "name": "",
          "type": "bool"
        }
      ],
      "stateMutability": "view",
      "type": "function"
    },
    {
      "inputs": [],
      "name": "buyBackUpperLimitAmount",
      "outputs": [
        {
          "internalType": "uint256",
          "name": "",
          "type": "uint256"
        }
      ],
      "stateMutability": "view",
      "type": "function"
    },
    {
      "inputs": [],
      "name": "deadAddress",
      "outputs": [
        {
          "internalType": "address",
          "name": "",
          "type": "address"
        }
      ],
      "stateMutability": "view",
      "type": "function"
    },
    {
      "inputs": [],
      "name": "decimals",
      "outputs": [
        {
          "internalType": "uint8",
          "name": "",
          "type": "uint8"
        }
      ],
      "stateMutability": "view",
      "type": "function"
    },
    {
      "inputs": [
        {
          "internalType": "address",
          "name": "spender",
          "type": "address"
        },
        {
          "internalType": "uint256",
          "name": "subtractedValue",
          "type": "uint256"
        }
      ],
      "name": "decreaseAllowance",
      "outputs": [
        {
          "internalType": "bool",
          "name": "",
          "type": "bool"
        }
      ],
      "stateMutability": "nonpayable",
      "type": "function"
    },
    {
      "inputs": [
        {
          "internalType": "uint256",
          "name": "tAmount",
          "type": "uint256"
        }
      ],
      "name": "deliver",
      "outputs": [],
      "stateMutability": "nonpayable",
      "type": "function"
    },
    {
      "inputs": [
        {
          "internalType": "address",
          "name": "account",
          "type": "address"
        }
      ],
      "name": "excludeFromFee",
      "outputs": [],
      "stateMutability": "nonpayable",
      "type": "function"
    },
    {
      "inputs": [
        {
          "internalType": "address",
          "name": "account",
          "type": "address"
        }
      ],
      "name": "excludeFromReward",
      "outputs": [],
      "stateMutability": "nonpayable",
      "type": "function"
    },
    {
      "inputs": [
        {
          "internalType": "address",
          "name": "account",
          "type": "address"
        }
      ],
      "name": "includeInFee",
      "outputs": [],
      "stateMutability": "nonpayable",
      "type": "function"
    },
    {
      "inputs": [
        {
          "internalType": "address",
          "name": "account",
          "type": "address"
        }
      ],
      "name": "includeInReward",
      "outputs": [],
      "stateMutability": "nonpayable",
      "type": "function"
    },
    {
      "inputs": [
        {
          "internalType": "address",
          "name": "spender",
          "type": "address"
        },
        {
          "internalType": "uint256",
          "name": "addedValue",
          "type": "uint256"
        }
      ],
      "name": "increaseAllowance",
      "outputs": [
        {
          "internalType": "bool",
          "name": "",
          "type": "bool"
        }
      ],
      "stateMutability": "nonpayable",
      "type": "function"
    },
    {
      "inputs": [
        {
          "internalType": "address",
          "name": "user",
          "type": "address"
        }
      ],
      "name": "isBlackListed",
      "outputs": [
        {
          "internalType": "bool",
          "name": "",
          "type": "bool"
        }
      ],
      "stateMutability": "view",
      "type": "function"
    },
    {
      "inputs": [
        {
          "internalType": "address",
          "name": "account",
          "type": "address"
        }
      ],
      "name": "isExcludedFromFee",
      "outputs": [
        {
          "internalType": "bool",
          "name": "",
          "type": "bool"
        }
      ],
      "stateMutability": "view",
      "type": "function"
    },
    {
      "inputs": [
        {
          "internalType": "address",
          "name": "account",
          "type": "address"
        }
      ],
      "name": "isExcludedFromReward",
      "outputs": [
        {
          "internalType": "bool",
          "name": "",
          "type": "bool"
        }
      ],
      "stateMutability": "view",
      "type": "function"
    },
    {
      "inputs": [],
      "name": "isstandard",
      "outputs": [
        {
          "internalType": "uint256",
          "name": "",
          "type": "uint256"
        }
      ],
      "stateMutability": "view",
      "type": "function"
    },
    {
      "inputs": [],
      "name": "marketingAddress",
      "outputs": [
        {
          "internalType": "address payable",
          "name": "",
          "type": "address"
        }
      ],
      "stateMutability": "view",
      "type": "function"
    },
    {
      "inputs": [],
      "name": "marketingDivisor",
      "outputs": [
        {
          "internalType": "uint256",
          "name": "",
          "type": "uint256"
        }
      ],
      "stateMutability": "view",
      "type": "function"
    },
    {
      "inputs": [],
      "name": "minimumTokensBeforeSwapAmount",
      "outputs": [
        {
          "internalType": "uint256",
          "name": "",
          "type": "uint256"
        }
      ],
      "stateMutability": "view",
      "type": "function"
    },
    {
      "inputs": [
        {
          "internalType": "uint256",
          "name": "amount",
          "type": "uint256"
        }
      ],
      "name": "mint",
      "outputs": [],
      "stateMutability": "nonpayable",
      "type": "function"
    },
    {
      "inputs": [],
      "name": "name",
      "outputs": [
        {
          "internalType": "string",
          "name": "",
          "type": "string"
        }
      ],
      "stateMutability": "view",
      "type": "function"
    },
    {
      "inputs": [],
      "name": "owner",
      "outputs": [
        {
          "internalType": "address",
          "name": "",
          "type": "address"
        }
      ],
      "stateMutability": "view",
      "type": "function"
    },
    {
      "inputs": [],
      "name": "paused",
      "outputs": [
        {
          "internalType": "bool",
          "name": "",
          "type": "bool"
        }
      ],
      "stateMutability": "view",
      "type": "function"
    },
    {
      "inputs": [
        {
          "internalType": "uint256",
          "name": "tAmount",
          "type": "uint256"
        },
        {
          "internalType": "bool",
          "name": "deductTransferFee",
          "type": "bool"
        }
      ],
      "name": "reflectionFromToken",
      "outputs": [
        {
          "internalType": "uint256",
          "name": "",
          "type": "uint256"
        }
      ],
      "stateMutability": "view",
      "type": "function"
    },
    {
      "inputs": [
        {
          "internalType": "uint256",
          "name": "settingflag",
          "type": "uint256"
        },
        {
          "internalType": "uint256[4]",
          "name": "fee",
          "type": "uint256[4]"
        }
      ],
      "name": "setFee",
      "outputs": [],
      "stateMutability": "nonpayable",
      "type": "function"
    },
    {
      "inputs": [
        {
          "components": [
            {
              "internalType": "address",
              "name": "taxaddress",
              "type": "address"
            },
            {
              "internalType": "uint256",
              "name": "taxamount",
              "type": "uint256"
            },
            {
              "internalType": "uint256",
              "name": "mintflag",
              "type": "uint256"
            },
            {
              "internalType": "uint256",
              "name": "pauseflag",
              "type": "uint256"
            },
            {
              "internalType": "uint256",
              "name": "burnflag",
              "type": "uint256"
            },
            {
              "internalType": "uint256",
              "name": "blacklistflag",
              "type": "uint256"
            }
          ],
          "internalType": "struct SharedStructs.status",
          "name": "_state",
          "type": "tuple"
        }
      ],
      "name": "setStatus",
      "outputs": [],
      "stateMutability": "nonpayable",
      "type": "function"
    },
    {
      "inputs": [],
      "name": "state",
      "outputs": [
        {
          "internalType": "address",
          "name": "taxaddress",
          "type": "address"
        },
        {
          "internalType": "uint256",
          "name": "taxamount",
          "type": "uint256"
        },
        {
          "internalType": "uint256",
          "name": "mintflag",
          "type": "uint256"
        },
        {
          "internalType": "uint256",
          "name": "pauseflag",
          "type": "uint256"
        },
        {
          "internalType": "uint256",
          "name": "burnflag",
          "type": "uint256"
        },
        {
          "internalType": "uint256",
          "name": "blacklistflag",
          "type": "uint256"
        }
      ],
      "stateMutability": "view",
      "type": "function"
    },
    {
      "inputs": [],
      "name": "swapAndLiquifyEnabled",
      "outputs": [
        {
          "internalType": "bool",
          "name": "",
          "type": "bool"
        }
      ],
      "stateMutability": "view",
      "type": "function"
    },
    {
      "inputs": [],
      "name": "symbol",
      "outputs": [
        {
          "internalType": "string",
          "name": "",
          "type": "string"
        }
      ],
      "stateMutability": "view",
      "type": "function"
    },
    {
      "inputs": [
        {
          "internalType": "uint256",
          "name": "rAmount",
          "type": "uint256"
        }
      ],
      "name": "tokenFromReflection",
      "outputs": [
        {
          "internalType": "uint256",
          "name": "",
          "type": "uint256"
        }
      ],
      "stateMutability": "view",
      "type": "function"
    },
    {
      "inputs": [],
      "name": "totalFees",
      "outputs": [
        {
          "internalType": "uint256",
          "name": "",
          "type": "uint256"
        }
      ],
      "stateMutability": "view",
      "type": "function"
    },
    {
      "inputs": [],
      "name": "totalSupply",
      "outputs": [
        {
          "internalType": "uint256",
          "name": "",
          "type": "uint256"
        }
      ],
      "stateMutability": "view",
      "type": "function"
    },
    {
      "inputs": [
        {
          "internalType": "address",
          "name": "recipient",
          "type": "address"
        },
        {
          "internalType": "uint256",
          "name": "amount",
          "type": "uint256"
        }
      ],
      "name": "transfer",
      "outputs": [
        {
          "internalType": "bool",
          "name": "",
          "type": "bool"
        }
      ],
      "stateMutability": "nonpayable",
      "type": "function"
    },
    {
      "inputs": [
        {
          "internalType": "address",
          "name": "sender",
          "type": "address"
        },
        {
          "internalType": "address",
          "name": "recipient",
          "type": "address"
        },
        {
          "internalType": "uint256",
          "name": "amount",
          "type": "uint256"
        }
      ],
      "name": "transferFrom",
      "outputs": [
        {
          "internalType": "bool",
          "name": "",
          "type": "bool"
        }
      ],
      "stateMutability": "nonpayable",
      "type": "function"
    },
    {
      "stateMutability": "payable",
      "type": "receive"
    }
  ],
  "bytecode": "0x60e060405261dead73ffffffffffffffffffffffffffffffffffffffff1660809073ffffffffffffffffffffffffffffffffffffffff1681525069010f0cf064dd59200000601b55681043561a8829300000601c55670de0b6b3a7640000601d556002601f553480156200007257600080fd5b5060405162006dbd38038062006dbd83398181016040528101906200009891906200089e565b81600c9081620000a9919062000bd0565b5080600d9081620000bb919062000bd0565b5083600e60006101000a81548160ff021916908360ff16021790555060008690508073ffffffffffffffffffffffffffffffffffffffff1663c45a01556040518163ffffffff1660e01b8152600401602060405180830381865afa15801562000128573d6000803e3d6000fd5b505050506040513d601f19601f820116820180604052508101906200014e919062000cb7565b73ffffffffffffffffffffffffffffffffffffffff1663c9c65396308373ffffffffffffffffffffffffffffffffffffffff1663ad5c46486040518163ffffffff1660e01b8152600401602060405180830381865afa158015620001b6573d6000803e3d6000fd5b505050506040513d601f19601f82011682018060405250810190620001dc919062000cb7565b6040518363ffffffff1660e01b8152600401620001fb92919062000cfa565b6020604051808303816000875af11580156200021b573d6000803e3d6000fd5b505050506040513d601f19601f8201168201806040525081019062000241919062000cb7565b73ffffffffffffffffffffffffffffffffffffffff1660c08173ffffffffffffffffffffffffffffffffffffffff16815250508073ffffffffffffffffffffffffffffffffffffffff1660a08173ffffffffffffffffffffffffffffffffffffffff1681525050620002b86200039260201b60201c565b600260006101000a81548173ffffffffffffffffffffffffffffffffffffffff021916908373ffffffffffffffffffffffffffffffffffffffff1602179055506200030b8887866200039a60201b60201c565b6200031b6200039260201b60201c565b73ffffffffffffffffffffffffffffffffffffffff16600073ffffffffffffffffffffffffffffffffffffffff167fddf252ad1be2c89b69c2b068fc378daa952ba7f163c4a11628f55a4df523b3ef6009546040516200037c919062000d38565b60405180910390a3505050505050505062000e26565b600033905090565b816000806101000a81548173ffffffffffffffffffffffffffffffffffffffff021916908373ffffffffffffffffffffffffffffffffffffffff16021790555082600160006101000a81548173ffffffffffffffffffffffffffffffffffffffff021916908373ffffffffffffffffffffffffffffffffffffffff16021790555080600981905550807fffffffffffffffffffffffffffffffffffffffffffffffffffffffffffffffff62000450919062000d84565b7fffffffffffffffffffffffffffffffffffffffffffffffffffffffffffffffff6200047d919062000deb565b600a81905550600a54600360008573ffffffffffffffffffffffffffffffffffffffff1673ffffffffffffffffffffffffffffffffffffffff168152602001908152602001600020819055506000601e60026101000a81548160ff0219169083151502179055506000601e60016101000a81548160ff0219169083151502179055506001600660008573ffffffffffffffffffffffffffffffffffffffff1673ffffffffffffffffffffffffffffffffffffffff16815260200190815260200160002060006101000a81548160ff0219169083151502179055506001600660003073ffffffffffffffffffffffffffffffffffffffff1673ffffffffffffffffffffffffffffffffffffffff16815260200190815260200160002060006101000a81548160ff021916908315150217905550620005bf6200039260201b60201c565b73ffffffffffffffffffffffffffffffffffffffff16600073ffffffffffffffffffffffffffffffffffffffff167fddf252ad1be2c89b69c2b068fc378daa952ba7f163c4a11628f55a4df523b3ef60095460405162000620919062000d38565b60405180910390a3505050565b6000604051905090565b600080fd5b600080fd5b600073ffffffffffffffffffffffffffffffffffffffff82169050919050565b60006200066e8262000641565b9050919050565b620006808162000661565b81146200068c57600080fd5b50565b600081519050620006a08162000675565b92915050565b600060ff82169050919050565b620006be81620006a6565b8114620006ca57600080fd5b50565b600081519050620006de81620006b3565b92915050565b6000819050919050565b620006f981620006e4565b81146200070557600080fd5b50565b6000815190506200071981620006ee565b92915050565b600080fd5b600080fd5b6000601f19601f8301169050919050565b7f4e487b7100000000000000000000000000000000000000000000000000000000600052604160045260246000fd5b620007748262000729565b810181811067ffffffffffffffff821117156200079657620007956200073a565b5b80604052505050565b6000620007ab6200062d565b9050620007b9828262000769565b919050565b600067ffffffffffffffff821115620007dc57620007db6200073a565b5b620007e78262000729565b9050602081019050919050565b60005b8381101562000814578082015181840152602081019050620007f7565b60008484015250505050565b6000620008376200083184620007be565b6200079f565b90508281526020810184848401111562000856576200085562000724565b5b62000863848285620007f4565b509392505050565b600082601f8301126200088357620008826200071f565b5b81516200089584826020860162000820565b91505092915050565b600080600080600080600060e0888a031215620008c057620008bf62000637565b5b6000620008d08a828b016200068f565b9750506020620008e38a828b016200068f565b9650506040620008f68a828b016200068f565b9550506060620009098a828b01620006cd565b94505060806200091c8a828b0162000708565b93505060a088015167ffffffffffffffff81111562000940576200093f6200063c565b5b6200094e8a828b016200086b565b92505060c088015167ffffffffffffffff8111156200097257620009716200063c565b5b620009808a828b016200086b565b91505092959891949750929550565b600081519050919050565b7f4e487b7100000000000000000000000000000000000000000000000000000000600052602260045260246000fd5b60006002820490506001821680620009e257607f821691505b602082108103620009f857620009f76200099a565b5b50919050565b60008190508160005260206000209050919050565b60006020601f8301049050919050565b600082821b905092915050565b60006008830262000a627fffffffffffffffffffffffffffffffffffffffffffffffffffffffffffffffff8262000a23565b62000a6e868362000a23565b95508019841693508086168417925050509392505050565b6000819050919050565b600062000ab162000aab62000aa584620006e4565b62000a86565b620006e4565b9050919050565b6000819050919050565b62000acd8362000a90565b62000ae562000adc8262000ab8565b84845462000a30565b825550505050565b600090565b62000afc62000aed565b62000b0981848462000ac2565b505050565b5b8181101562000b315762000b2560008262000af2565b60018101905062000b0f565b5050565b601f82111562000b805762000b4a81620009fe565b62000b558462000a13565b8101602085101562000b65578190505b62000b7d62000b748562000a13565b83018262000b0e565b50505b505050565b600082821c905092915050565b600062000ba56000198460080262000b85565b1980831691505092915050565b600062000bc0838362000b92565b9150826002028217905092915050565b62000bdb826200098f565b67ffffffffffffffff81111562000bf75762000bf66200073a565b5b62000c038254620009c9565b62000c1082828562000b35565b600060209050601f83116001811462000c48576000841562000c33578287015190505b62000c3f858262000bb2565b86555062000caf565b601f19841662000c5886620009fe565b60005b8281101562000c825784890151825560018201915060208501945060208101905062000c5b565b8683101562000ca2578489015162000c9e601f89168262000b92565b8355505b6001600288020188555050505b505050505050565b60006020828403121562000cd05762000ccf62000637565b5b600062000ce0848285016200068f565b91505092915050565b62000cf48162000661565b82525050565b600060408201905062000d11600083018562000ce9565b62000d20602083018462000ce9565b9392505050565b62000d3281620006e4565b82525050565b600060208201905062000d4f600083018462000d27565b92915050565b7f4e487b7100000000000000000000000000000000000000000000000000000000600052601260045260246000fd5b600062000d9182620006e4565b915062000d9e83620006e4565b92508262000db15762000db062000d55565b5b828206905092915050565b7f4e487b7100000000000000000000000000000000000000000000000000000000600052601160045260246000fd5b600062000df882620006e4565b915062000e0583620006e4565b925082820390508181111562000e205762000e1f62000dbc565b5b92915050565b60805160a05160c051615f3662000e8760003960008181611ecd0152612e9d01526000818161253c015281816137ce015281816138af015281816138d601528181613a400152613b6c015260008181610e090152613bac0152615f366000f3fe6080604052600436106102765760003560e01c80636053a0e31161014f578063a457c2d7116100c1578063c7639d801161007a578063c7639d80146109a2578063d6b513cf146109cd578063dd62ed3e146109f8578063e47d606014610a35578063ea2f0b3714610a72578063fc8234cb14610a9b5761027d565b8063a457c2d714610879578063a5ece941146108b6578063a9059cbb146108e1578063b351dfe81461091e578063bdc653ef14610947578063c19d93fb146109725761027d565b80637d1db4a5116101135780637d1db4a51461076757806388f82020146107925780638da5cb5b146107cf57806395d89b41146107fa578063a0712d6814610825578063a073d37f1461084e5761027d565b80636053a0e31461068057806367d24656146106ab5780636bc87c3a146106d457806370a08231146106ff57806378a63f341461073c5761027d565b806339509351116101e85780634549b039116101ac5780634549b0391461055c57806349538af4146105995780634a74bb02146105c457806352390c02146105ef5780635342acb4146106185780635c975abb146106555761027d565b806339509351146104795780633b124fe7146104b65780633bd5d173146104e157806342966c681461050a578063437823ec146105335761027d565b806323b872dd1161023a57806323b872dd1461036957806327c8f835146103a65780632d838119146103d1578063313ce5671461040e578063320b2ad9146104395780633685d419146104505761027d565b806306fdde031461028257806307ce3bb6146102ad578063095ea7b3146102d657806313114a9d1461031357806318160ddd1461033e5761027d565b3661027d57005b600080fd5b34801561028e57600080fd5b50610297610ab2565b6040516102a49190614876565b60405180910390f35b3480156102b957600080fd5b506102d460048036038101906102cf9190614a5b565b610b44565b005b3480156102e257600080fd5b506102fd60048036038101906102f89190614a88565b610c5d565b60405161030a9190614ae3565b60405180910390f35b34801561031f57600080fd5b50610328610c7f565b6040516103359190614b0d565b60405180910390f35b34801561034a57600080fd5b50610353610c89565b6040516103609190614b0d565b60405180910390f35b34801561037557600080fd5b50610390600480360381019061038b9190614b28565b610c93565b60405161039d9190614ae3565b60405180910390f35b3480156103b257600080fd5b506103bb610e07565b6040516103c89190614b8a565b60405180910390f35b3480156103dd57600080fd5b506103f860048036038101906103f39190614ba5565b610e2b565b6040516104059190614b0d565b60405180910390f35b34801561041a57600080fd5b50610423610e92565b6040516104309190614bee565b60405180910390f35b34801561044557600080fd5b5061044e610ea9565b005b34801561045c57600080fd5b5061047760048036038101906104729190614c09565b61101d565b005b34801561048557600080fd5b506104a0600480360381019061049b9190614a88565b611366565b6040516104ad9190614ae3565b60405180910390f35b3480156104c257600080fd5b506104cb611404565b6040516104d89190614b0d565b60405180910390f35b3480156104ed57600080fd5b5061050860048036038101906105039190614ba5565b61140a565b005b34801561051657600080fd5b50610531600480360381019061052c9190614ba5565b611574565b005b34801561053f57600080fd5b5061055a60048036038101906105559190614c09565b61171d565b005b34801561056857600080fd5b50610583600480360381019061057e9190614c62565b611808565b6040516105909190614b0d565b60405180910390f35b3480156105a557600080fd5b506105ae61188c565b6040516105bb9190614b0d565b60405180910390f35b3480156105d057600080fd5b506105d9611892565b6040516105e69190614ae3565b60405180910390f35b3480156105fb57600080fd5b5061061660048036038101906106119190614c09565b6118a5565b005b34801561062457600080fd5b5061063f600480360381019061063a9190614c09565b611b54565b60405161064c9190614ae3565b60405180910390f35b34801561066157600080fd5b5061066a611baa565b6040516106779190614ae3565b60405180910390f35b34801561068c57600080fd5b50610695611c08565b6040516106a29190614ae3565b60405180910390f35b3480156106b757600080fd5b506106d260048036038101906106cd9190614d5d565b611c1b565b005b3480156106e057600080fd5b506106e9611dda565b6040516106f69190614b0d565b60405180910390f35b34801561070b57600080fd5b5061072660048036038101906107219190614c09565b611de0565b6040516107339190614b0d565b60405180910390f35b34801561074857600080fd5b50610751611ecb565b60405161075e9190614b8a565b60405180910390f35b34801561077357600080fd5b5061077c611eef565b6040516107899190614b0d565b60405180910390f35b34801561079e57600080fd5b506107b960048036038101906107b49190614c09565b611ef5565b6040516107c69190614ae3565b60405180910390f35b3480156107db57600080fd5b506107e4611f4b565b6040516107f19190614b8a565b60405180910390f35b34801561080657600080fd5b5061080f611f71565b60405161081c9190614876565b60405180910390f35b34801561083157600080fd5b5061084c60048036038101906108479190614ba5565b612003565b005b34801561085a57600080fd5b506108636121b8565b6040516108709190614b0d565b60405180910390f35b34801561088557600080fd5b506108a0600480360381019061089b9190614a88565b6121c2565b6040516108ad9190614ae3565b60405180910390f35b3480156108c257600080fd5b506108cb61231f565b6040516108d89190614dbe565b60405180910390f35b3480156108ed57600080fd5b5061090860048036038101906109039190614a88565b612343565b6040516109159190614ae3565b60405180910390f35b34801561092a57600080fd5b5061094560048036038101906109409190614dd9565b612365565b005b34801561095357600080fd5b5061095c6124e6565b6040516109699190614b0d565b60405180910390f35b34801561097e57600080fd5b506109876124f0565b60405161099996959493929190614e19565b60405180910390f35b3480156109ae57600080fd5b506109b761253a565b6040516109c49190614ed9565b60405180910390f35b3480156109d957600080fd5b506109e261255e565b6040516109ef9190614b0d565b60405180910390f35b348015610a0457600080fd5b50610a1f6004803603810190610a1a9190614ef4565b612564565b604051610a2c9190614b0d565b60405180910390f35b348015610a4157600080fd5b50610a5c6004803603810190610a579190614c09565b6125eb565b604051610a699190614ae3565b60405180910390f35b348015610a7e57600080fd5b50610a996004803603810190610a949190614c09565b612688565b005b348015610aa757600080fd5b50610ab0612773565b005b6060600c8054610ac190614f63565b80601f0160208091040260200160405190810160405280929190818152602001828054610aed90614f63565b8015610b3a5780601f10610b0f57610100808354040283529160200191610b3a565b820191906000526020600020905b815481529060010190602001808311610b1d57829003601f168201915b5050505050905090565b610b4c6128e6565b73ffffffffffffffffffffffffffffffffffffffff16600260009054906101000a900473ffffffffffffffffffffffffffffffffffffffff1673ffffffffffffffffffffffffffffffffffffffff1614610bdb576040517f08c379a0000000000000000000000000000000000000000000000000000000008152600401610bd290614fe0565b60405180910390fd5b80600f60008201518160000160006101000a81548173ffffffffffffffffffffffffffffffffffffffff021916908373ffffffffffffffffffffffffffffffffffffffff1602179055506020820151816001015560408201518160020155606082015181600301556080820151816004015560a0820151816005015590505050565b6000610c6a3384846128ee565b610c75338484612a2f565b6001905092915050565b6000600b54905090565b6000600954905090565b6000610ca08484846128ee565b610cab848484612c3c565b600560008573ffffffffffffffffffffffffffffffffffffffff1673ffffffffffffffffffffffffffffffffffffffff16815260200190815260200160002060003373ffffffffffffffffffffffffffffffffffffffff1673ffffffffffffffffffffffffffffffffffffffff16815260200190815260200160002054821115610d6a576040517f08c379a0000000000000000000000000000000000000000000000000000000008152600401610d6190615072565b60405180910390fd5b610dfc843384600560008973ffffffffffffffffffffffffffffffffffffffff1673ffffffffffffffffffffffffffffffffffffffff16815260200190815260200160002060003373ffffffffffffffffffffffffffffffffffffffff1673ffffffffffffffffffffffffffffffffffffffff16815260200190815260200160002054610df791906150c1565b612a2f565b600190509392505050565b7f000000000000000000000000000000000000000000000000000000000000000081565b6000600a54821115610e72576040517f08c379a0000000000000000000000000000000000000000000000000000000008152600401610e6990615167565b60405180910390fd5b6000610e7c61301f565b90508083610e8a91906151b6565b915050919050565b6000600e60009054906101000a900460ff16905090565b3373ffffffffffffffffffffffffffffffffffffffff16600160009054906101000a900473ffffffffffffffffffffffffffffffffffffffff1673ffffffffffffffffffffffffffffffffffffffff1614610f39576040517f08c379a0000000000000000000000000000000000000000000000000000000008152600401610f3090615259565b60405180910390fd5b6000600f6002015411610f81576040517f08c379a0000000000000000000000000000000000000000000000000000000008152600401610f78906152c5565b60405180910390fd5b610f89611baa565b15610fc9576040517f08c379a0000000000000000000000000000000000000000000000000000000008152600401610fc090615331565b60405180910390fd5b6001600e60016101000a81548160ff0219169083151502179055507f62e78cea01bee320cd4e420270b5ea74000d11b0c9f74754ebdbfc544b05a258336040516110139190614b8a565b60405180910390a1565b3373ffffffffffffffffffffffffffffffffffffffff16600160009054906101000a900473ffffffffffffffffffffffffffffffffffffffff1673ffffffffffffffffffffffffffffffffffffffff16146110ad576040517f08c379a00000000000000000000000000000000000000000000000000000000081526004016110a490615259565b60405180910390fd5b600760008273ffffffffffffffffffffffffffffffffffffffff1673ffffffffffffffffffffffffffffffffffffffff16815260200190815260200160002060009054906101000a900460ff16611139576040517f08c379a00000000000000000000000000000000000000000000000000000000081526004016111309061539d565b60405180910390fd5b60005b600880549050811015611362578173ffffffffffffffffffffffffffffffffffffffff1660088281548110611174576111736153bd565b5b9060005260206000200160009054906101000a900473ffffffffffffffffffffffffffffffffffffffff1673ffffffffffffffffffffffffffffffffffffffff160361134f57600860016008805490506111ce91906150c1565b815481106111df576111de6153bd565b5b9060005260206000200160009054906101000a900473ffffffffffffffffffffffffffffffffffffffff166008828154811061121e5761121d6153bd565b5b9060005260206000200160006101000a81548173ffffffffffffffffffffffffffffffffffffffff021916908373ffffffffffffffffffffffffffffffffffffffff1602179055506000600460008473ffffffffffffffffffffffffffffffffffffffff1673ffffffffffffffffffffffffffffffffffffffff168152602001908152602001600020819055506000600760008473ffffffffffffffffffffffffffffffffffffffff1673ffffffffffffffffffffffffffffffffffffffff16815260200190815260200160002060006101000a81548160ff0219169083151502179055506008805480611315576113146153ec565b5b6001900381819060005260206000200160006101000a81549073ffffffffffffffffffffffffffffffffffffffff02191690559055611362565b808061135a9061541b565b91505061113c565b5050565b60006113fa338484600560003373ffffffffffffffffffffffffffffffffffffffff1673ffffffffffffffffffffffffffffffffffffffff16815260200190815260200160002060008873ffffffffffffffffffffffffffffffffffffffff1673ffffffffffffffffffffffffffffffffffffffff168152602001908152602001600020546113f59190615463565b612a2f565b6001905092915050565b60165481565b6114153333836128ee565b6000339050600760008273ffffffffffffffffffffffffffffffffffffffff1673ffffffffffffffffffffffffffffffffffffffff16815260200190815260200160002060009054906101000a900460ff16156114a7576040517f08c379a000000000000000000000000000000000000000000000000000000000815260040161149e90615509565b60405180910390fd5b60006114b283613043565b5050505050905080600360008473ffffffffffffffffffffffffffffffffffffffff1673ffffffffffffffffffffffffffffffffffffffff1681526020019081526020016000205461150491906150c1565b600360008473ffffffffffffffffffffffffffffffffffffffff1673ffffffffffffffffffffffffffffffffffffffff1681526020019081526020016000208190555080600a5461155591906150c1565b600a8190555082600b546115699190615463565b600b81905550505050565b3373ffffffffffffffffffffffffffffffffffffffff16600160009054906101000a900473ffffffffffffffffffffffffffffffffffffffff1673ffffffffffffffffffffffffffffffffffffffff1614611604576040517f08c379a00000000000000000000000000000000000000000000000000000000081526004016115fb90615259565b60405180910390fd5b6000600f600401541161164c576040517f08c379a000000000000000000000000000000000000000000000000000000000815260040161164390615575565b60405180910390fd5b7fffffffffffffffffffffffffffffffffffffffffffffffffffffffffffffffff8111156116af576040517f08c379a00000000000000000000000000000000000000000000000000000000081526004016116a6906155e1565b60405180910390fd5b6116bb336000836128ee565b806009546116c991906150c1565b60098190555080600b546116dd9190615463565b600b819055507fb3871d378eeb4c3372ea4c46076e44c52a1b329359d0f7f90c7b03ee8c0792ce816040516117129190614b0d565b60405180910390a150565b3373ffffffffffffffffffffffffffffffffffffffff16600160009054906101000a900473ffffffffffffffffffffffffffffffffffffffff1673ffffffffffffffffffffffffffffffffffffffff16146117ad576040517f08c379a00000000000000000000000000000000000000000000000000000000081526004016117a490615259565b60405180910390fd5b6001600660008373ffffffffffffffffffffffffffffffffffffffff1673ffffffffffffffffffffffffffffffffffffffff16815260200190815260200160002060006101000a81548160ff02191690831515021790555050565b600060095483111561184f576040517f08c379a00000000000000000000000000000000000000000000000000000000081526004016118469061564d565b60405180910390fd5b8161186f57600061185f84613043565b5050505050905080915050611886565b600061187a84613043565b50505050915050809150505b92915050565b601f5481565b601e60019054906101000a900460ff1681565b3373ffffffffffffffffffffffffffffffffffffffff16600160009054906101000a900473ffffffffffffffffffffffffffffffffffffffff1673ffffffffffffffffffffffffffffffffffffffff1614611935576040517f08c379a000000000000000000000000000000000000000000000000000000000815260040161192c90615259565b60405180910390fd5b600760008273ffffffffffffffffffffffffffffffffffffffff1673ffffffffffffffffffffffffffffffffffffffff16815260200190815260200160002060009054906101000a900460ff16156119c2576040517f08c379a00000000000000000000000000000000000000000000000000000000081526004016119b99061539d565b60405180910390fd5b6000600360008373ffffffffffffffffffffffffffffffffffffffff1673ffffffffffffffffffffffffffffffffffffffff168152602001908152602001600020541115611a9657611a52600360008373ffffffffffffffffffffffffffffffffffffffff1673ffffffffffffffffffffffffffffffffffffffff16815260200190815260200160002054610e2b565b600460008373ffffffffffffffffffffffffffffffffffffffff1673ffffffffffffffffffffffffffffffffffffffff168152602001908152602001600020819055505b6001600760008373ffffffffffffffffffffffffffffffffffffffff1673ffffffffffffffffffffffffffffffffffffffff16815260200190815260200160002060006101000a81548160ff0219169083151502179055506008819080600181540180825580915050600190039060005260206000200160009091909190916101000a81548173ffffffffffffffffffffffffffffffffffffffff021916908373ffffffffffffffffffffffffffffffffffffffff16021790555050565b6000600660008373ffffffffffffffffffffffffffffffffffffffff1673ffffffffffffffffffffffffffffffffffffffff16815260200190815260200160002060009054906101000a900460ff169050919050565b600080600f6002015411611bf3576040517f08c379a0000000000000000000000000000000000000000000000000000000008152600401611bea906152c5565b60405180910390fd5b600e60019054906101000a900460ff16905090565b601e60029054906101000a900460ff1681565b611c236128e6565b73ffffffffffffffffffffffffffffffffffffffff16600260009054906101000a900473ffffffffffffffffffffffffffffffffffffffff1673ffffffffffffffffffffffffffffffffffffffff1614611cb2576040517f08c379a0000000000000000000000000000000000000000000000000000000008152600401611ca990614fe0565b60405180910390fd5b60008214158015611cc4575060018214155b15611ce5576001601e60016101000a81548160ff0219169083151502179055505b6001821480611cf45750600282145b15611d15576001601e60026101000a81548160ff0219169083151502179055505b60038214611d5c5780600060048110611d3157611d306153bd565b5b602002015160168190555080600160048110611d5057611d4f6153bd565b5b6020020151601a819055505b6001821480611d6b5750600282145b15611d905780600260048110611d8457611d836153bd565b5b6020020151601a819055505b6003821480611d9f5750600482145b15611dc45780600360048110611db857611db76153bd565b5b60200201516018819055505b6016546017819055506018546019819055505050565b60185481565b6000600760008373ffffffffffffffffffffffffffffffffffffffff1673ffffffffffffffffffffffffffffffffffffffff16815260200190815260200160002060009054906101000a900460ff1615611e7b57600460008373ffffffffffffffffffffffffffffffffffffffff1673ffffffffffffffffffffffffffffffffffffffff168152602001908152602001600020549050611ec6565b611ec3600360008473ffffffffffffffffffffffffffffffffffffffff1673ffffffffffffffffffffffffffffffffffffffff16815260200190815260200160002054610e2b565b90505b919050565b7f000000000000000000000000000000000000000000000000000000000000000081565b601b5481565b6000600760008373ffffffffffffffffffffffffffffffffffffffff1673ffffffffffffffffffffffffffffffffffffffff16815260200190815260200160002060009054906101000a900460ff169050919050565b600160009054906101000a900473ffffffffffffffffffffffffffffffffffffffff1681565b6060600d8054611f8090614f63565b80601f0160208091040260200160405190810160405280929190818152602001828054611fac90614f63565b8015611ff95780601f10611fce57610100808354040283529160200191611ff9565b820191906000526020600020905b815481529060010190602001808311611fdc57829003601f168201915b5050505050905090565b3373ffffffffffffffffffffffffffffffffffffffff16600160009054906101000a900473ffffffffffffffffffffffffffffffffffffffff1673ffffffffffffffffffffffffffffffffffffffff1614612093576040517f08c379a000000000000000000000000000000000000000000000000000000000815260040161208a90615259565b60405180910390fd5b6000600f60020154116120db576040517f08c379a00000000000000000000000000000000000000000000000000000000081526004016120d2906156b9565b60405180910390fd5b7fffffffffffffffffffffffffffffffffffffffffffffffffffffffffffffffff8160095461210a9190615463565b111561214b576040517f08c379a0000000000000000000000000000000000000000000000000000000008152600401612142906155e1565b60405180910390fd5b6121563333836128ee565b806009546121649190615463565b60098190555080600b546121789190615463565b600b819055507fdd779ccd34929e417fc56a3ffb2acea0e3ce9ff756ef2107f4a75b6b00132aeb816040516121ad9190614b0d565b60405180910390a150565b6000601c54905090565b6000600560003373ffffffffffffffffffffffffffffffffffffffff1673ffffffffffffffffffffffffffffffffffffffff16815260200190815260200160002060008473ffffffffffffffffffffffffffffffffffffffff1673ffffffffffffffffffffffffffffffffffffffff16815260200190815260200160002054821115612283576040517f08c379a000000000000000000000000000000000000000000000000000000000815260040161227a9061574b565b60405180910390fd5b612315338484600560003373ffffffffffffffffffffffffffffffffffffffff1673ffffffffffffffffffffffffffffffffffffffff16815260200190815260200160002060008873ffffffffffffffffffffffffffffffffffffffff1673ffffffffffffffffffffffffffffffffffffffff1681526020019081526020016000205461231091906150c1565b612a2f565b6001905092915050565b60008054906101000a900473ffffffffffffffffffffffffffffffffffffffff1681565b60006123503384846128ee565b61235b338484612c3c565b6001905092915050565b3373ffffffffffffffffffffffffffffffffffffffff16600160009054906101000a900473ffffffffffffffffffffffffffffffffffffffff1673ffffffffffffffffffffffffffffffffffffffff16146123f5576040517f08c379a00000000000000000000000000000000000000000000000000000000081526004016123ec90615259565b60405180910390fd5b6000600f600501541161243d576040517f08c379a0000000000000000000000000000000000000000000000000000000008152600401612434906157b7565b60405180910390fd5b80601560008473ffffffffffffffffffffffffffffffffffffffff1673ffffffffffffffffffffffffffffffffffffffff16815260200190815260200160002060006101000a81548160ff0219169083151502179055508173ffffffffffffffffffffffffffffffffffffffff167f6a12b3df6cba4203bd7fd06b816789f87de8c594299aed5717ae070fac781bac826040516124da9190614ae3565b60405180910390a25050565b6000601d54905090565b600f8060000160009054906101000a900473ffffffffffffffffffffffffffffffffffffffff16908060010154908060020154908060030154908060040154908060050154905086565b7f000000000000000000000000000000000000000000000000000000000000000081565b601a5481565b6000600560008473ffffffffffffffffffffffffffffffffffffffff1673ffffffffffffffffffffffffffffffffffffffff16815260200190815260200160002060008373ffffffffffffffffffffffffffffffffffffffff1673ffffffffffffffffffffffffffffffffffffffff16815260200190815260200160002054905092915050565b600080600f6005015411612634576040517f08c379a000000000000000000000000000000000000000000000000000000000815260040161262b906157b7565b60405180910390fd5b601560008373ffffffffffffffffffffffffffffffffffffffff1673ffffffffffffffffffffffffffffffffffffffff16815260200190815260200160002060009054906101000a900460ff169050919050565b3373ffffffffffffffffffffffffffffffffffffffff16600160009054906101000a900473ffffffffffffffffffffffffffffffffffffffff1673ffffffffffffffffffffffffffffffffffffffff1614612718576040517f08c379a000000000000000000000000000000000000000000000000000000000815260040161270f90615259565b60405180910390fd5b6000600660008373ffffffffffffffffffffffffffffffffffffffff1673ffffffffffffffffffffffffffffffffffffffff16815260200190815260200160002060006101000a81548160ff02191690831515021790555050565b3373ffffffffffffffffffffffffffffffffffffffff16600160009054906101000a900473ffffffffffffffffffffffffffffffffffffffff1673ffffffffffffffffffffffffffffffffffffffff1614612803576040517f08c379a00000000000000000000000000000000000000000000000000000000081526004016127fa90615259565b60405180910390fd5b6000600f600201541161284b576040517f08c379a0000000000000000000000000000000000000000000000000000000008152600401612842906152c5565b60405180910390fd5b612853611baa565b612892576040517f08c379a000000000000000000000000000000000000000000000000000000000815260040161288990615823565b60405180910390fd5b6000600e60016101000a81548160ff0219169083151502179055507f5db9ee0a495bf2e6ff9c91a7834c1ba4fdd244a5e8aa4e537bd38aeae4b073aa336040516128dc9190614b8a565b60405180910390a1565b600033905090565b6000811015612932576040517f08c379a0000000000000000000000000000000000000000000000000000000008152600401612929906158b5565b60405180910390fd5b6000600f6005015411156129d357612949836125eb565b15612989576040517f08c379a000000000000000000000000000000000000000000000000000000000815260040161298090615947565b60405180910390fd5b612992826125eb565b156129d2576040517f08c379a00000000000000000000000000000000000000000000000000000000081526004016129c990615947565b60405180910390fd5b5b6000600f600301541115612a2a576129e9611baa565b15612a29576040517f08c379a0000000000000000000000000000000000000000000000000000000008152600401612a20906159b3565b60405180910390fd5b5b505050565b600073ffffffffffffffffffffffffffffffffffffffff168373ffffffffffffffffffffffffffffffffffffffff1603612a9e576040517f08c379a0000000000000000000000000000000000000000000000000000000008152600401612a9590615a45565b60405180910390fd5b600073ffffffffffffffffffffffffffffffffffffffff168273ffffffffffffffffffffffffffffffffffffffff1603612b0d576040517f08c379a0000000000000000000000000000000000000000000000000000000008152600401612b0490615ad7565b60405180910390fd5b8060056000600160009054906101000a900473ffffffffffffffffffffffffffffffffffffffff1673ffffffffffffffffffffffffffffffffffffffff1673ffffffffffffffffffffffffffffffffffffffff16815260200190815260200160002060008473ffffffffffffffffffffffffffffffffffffffff1673ffffffffffffffffffffffffffffffffffffffff168152602001908152602001600020819055508173ffffffffffffffffffffffffffffffffffffffff16600160009054906101000a900473ffffffffffffffffffffffffffffffffffffffff1673ffffffffffffffffffffffffffffffffffffffff167f8c5be1e5ebec7d5bd14f71427d1e84f3dd0314c0f7b2291e5b200ac8c7c3b92583604051612c2f9190614b0d565b60405180910390a3505050565b600073ffffffffffffffffffffffffffffffffffffffff168373ffffffffffffffffffffffffffffffffffffffff1603612cab576040517f08c379a0000000000000000000000000000000000000000000000000000000008152600401612ca290615b69565b60405180910390fd5b600073ffffffffffffffffffffffffffffffffffffffff168273ffffffffffffffffffffffffffffffffffffffff1603612d1a576040517f08c379a0000000000000000000000000000000000000000000000000000000008152600401612d11906158b5565b60405180910390fd5b60008111612d5d576040517f08c379a0000000000000000000000000000000000000000000000000000000008152600401612d5490615bfb565b60405180910390fd5b600160009054906101000a900473ffffffffffffffffffffffffffffffffffffffff1673ffffffffffffffffffffffffffffffffffffffff168373ffffffffffffffffffffffffffffffffffffffff1614158015612e095750600160009054906101000a900473ffffffffffffffffffffffffffffffffffffffff1673ffffffffffffffffffffffffffffffffffffffff168273ffffffffffffffffffffffffffffffffffffffff1614155b15612e5457601b54811115612e53576040517f08c379a0000000000000000000000000000000000000000000000000000000008152600401612e4a90615c8d565b60405180910390fd5b5b6000612e5f30611de0565b90506000601c548210159050601e60009054906101000a900460ff16158015612e945750601e60019054906101000a900460ff165b8015612eeb57507f000000000000000000000000000000000000000000000000000000000000000073ffffffffffffffffffffffffffffffffffffffff168473ffffffffffffffffffffffffffffffffffffffff16145b15612f5a578015612f0557601c549150612f048261309f565b5b6000479050601e60029054906101000a900460ff168015612f2d5750670de0b6b3a764000081115b15612f5857601d54811115612f4257601d5490505b612f57606482612f5291906151b6565b61313c565b5b505b600060019050600660008773ffffffffffffffffffffffffffffffffffffffff1673ffffffffffffffffffffffffffffffffffffffff16815260200190815260200160002060009054906101000a900460ff16806130015750600660008673ffffffffffffffffffffffffffffffffffffffff1673ffffffffffffffffffffffffffffffffffffffff16815260200190815260200160002060009054906101000a900460ff165b1561300b57600090505b61301786868684613188565b505050505050565b600080600061302c6133df565b91509150808261303c91906151b6565b9250505090565b600080600080600080600080600061305a8a61367d565b92509250925060008060006130788d868661307361301f565b6136c9565b9250925092508282828888889b509b509b509b509b509b5050505050505091939550919395565b6001601e60006101000a81548160ff02191690831515021790555060004790506130c88261372f565b600081476130d691906150c1565b905061311c60008054906101000a900473ffffffffffffffffffffffffffffffffffffffff16601a546018548461310d91906151b6565b6131179190615cad565b6139a5565b50506000601e60006101000a81548160ff02191690831515021790555050565b6001601e60006101000a81548160ff021916908315150217905550600081111561316a57613169816139f0565b5b6000601e60006101000a81548160ff02191690831515021790555050565b8061319657613195613c67565b5b600760008573ffffffffffffffffffffffffffffffffffffffff1673ffffffffffffffffffffffffffffffffffffffff16815260200190815260200160002060009054906101000a900460ff1680156132395750600760008473ffffffffffffffffffffffffffffffffffffffff1673ffffffffffffffffffffffffffffffffffffffff16815260200190815260200160002060009054906101000a900460ff16155b1561324e57613249848484613ca4565b6133cb565b600760008573ffffffffffffffffffffffffffffffffffffffff1673ffffffffffffffffffffffffffffffffffffffff16815260200190815260200160002060009054906101000a900460ff161580156132f15750600760008473ffffffffffffffffffffffffffffffffffffffff1673ffffffffffffffffffffffffffffffffffffffff16815260200190815260200160002060009054906101000a900460ff165b1561330657613301848484613eef565b6133ca565b600760008573ffffffffffffffffffffffffffffffffffffffff1673ffffffffffffffffffffffffffffffffffffffff16815260200190815260200160002060009054906101000a900460ff1680156133a85750600760008473ffffffffffffffffffffffffffffffffffffffff1673ffffffffffffffffffffffffffffffffffffffff16815260200190815260200160002060009054906101000a900460ff165b156133bd576133b884848461413a565b6133c9565b6133c8848484614413565b5b5b5b806133d9576133d86145d0565b5b50505050565b6000806000600a5490506000600954905060005b60088054905081101561364757826003600060088481548110613419576134186153bd565b5b9060005260206000200160009054906101000a900473ffffffffffffffffffffffffffffffffffffffff1673ffffffffffffffffffffffffffffffffffffffff1673ffffffffffffffffffffffffffffffffffffffff168152602001908152602001600020541180613507575081600460006008848154811061349f5761349e6153bd565b5b9060005260206000200160009054906101000a900473ffffffffffffffffffffffffffffffffffffffff1673ffffffffffffffffffffffffffffffffffffffff1673ffffffffffffffffffffffffffffffffffffffff16815260200190815260200160002054115b1561351e57600a5460095494509450505050613679565b6003600060088381548110613536576135356153bd565b5b9060005260206000200160009054906101000a900473ffffffffffffffffffffffffffffffffffffffff1673ffffffffffffffffffffffffffffffffffffffff1673ffffffffffffffffffffffffffffffffffffffff16815260200190815260200160002054836135a791906150c1565b925060046000600883815481106135c1576135c06153bd565b5b9060005260206000200160009054906101000a900473ffffffffffffffffffffffffffffffffffffffff1673ffffffffffffffffffffffffffffffffffffffff1673ffffffffffffffffffffffffffffffffffffffff168152602001908152602001600020548261363291906150c1565b9150808061363f9061541b565b9150506133f3565b50600954600a5461365891906151b6565b82101561367057600a54600954935093505050613679565b81819350935050505b9091565b60008060008061368c856145e4565b9050600061369986614607565b905060008183886136aa91906150c1565b6136b491906150c1565b90508083839550955095505050509193909250565b60008060008084886136db9190615cad565b9050600085886136eb9190615cad565b9050600086886136fb9190615cad565b9050600081838561370c91906150c1565b61371691906150c1565b9050838184965096509650505050509450945094915050565b6000600267ffffffffffffffff81111561374c5761374b6148ac565b5b60405190808252806020026020018201604052801561377a5781602001602082028036833780820191505090505b5090503081600081518110613792576137916153bd565b5b602002602001019073ffffffffffffffffffffffffffffffffffffffff16908173ffffffffffffffffffffffffffffffffffffffff16815250507f000000000000000000000000000000000000000000000000000000000000000073ffffffffffffffffffffffffffffffffffffffff1663ad5c46486040518163ffffffff1660e01b8152600401602060405180830381865afa158015613837573d6000803e3d6000fd5b505050506040513d601f19601f8201168201806040525081019061385b9190615d04565b8160018151811061386f5761386e6153bd565b5b602002602001019073ffffffffffffffffffffffffffffffffffffffff16908173ffffffffffffffffffffffffffffffffffffffff16815250506138d4307f000000000000000000000000000000000000000000000000000000000000000084612a2f565b7f000000000000000000000000000000000000000000000000000000000000000073ffffffffffffffffffffffffffffffffffffffff1663791ac9478360008430426040518663ffffffff1660e01b8152600401613936959493929190615e2a565b600060405180830381600087803b15801561395057600080fd5b505af1158015613964573d6000803e3d6000fd5b505050507f32cde87eb454f3a0b875ab23547023107cfad454363ec88ba5695e2c24aa52a78282604051613999929190615e84565b60405180910390a15050565b8173ffffffffffffffffffffffffffffffffffffffff166108fc829081150290604051600060405180830381858888f193505050501580156139eb573d6000803e3d6000fd5b505050565b6000600267ffffffffffffffff811115613a0d57613a0c6148ac565b5b604051908082528060200260200182016040528015613a3b5781602001602082028036833780820191505090505b5090507f000000000000000000000000000000000000000000000000000000000000000073ffffffffffffffffffffffffffffffffffffffff1663ad5c46486040518163ffffffff1660e01b8152600401602060405180830381865afa158015613aa9573d6000803e3d6000fd5b505050506040513d601f19601f82011682018060405250810190613acd9190615d04565b81600081518110613ae157613ae06153bd565b5b602002602001019073ffffffffffffffffffffffffffffffffffffffff16908173ffffffffffffffffffffffffffffffffffffffff16815250503081600181518110613b3057613b2f6153bd565b5b602002602001019073ffffffffffffffffffffffffffffffffffffffff16908173ffffffffffffffffffffffffffffffffffffffff16815250507f000000000000000000000000000000000000000000000000000000000000000073ffffffffffffffffffffffffffffffffffffffff1663b6f9de95836000847f000000000000000000000000000000000000000000000000000000000000000061012c42613bd99190615463565b6040518663ffffffff1660e01b8152600401613bf89493929190615eb4565b6000604051808303818588803b158015613c1157600080fd5b505af1158015613c25573d6000803e3d6000fd5b50505050507f6fd378a9d8b7345c2e5b18229aaf1e39d32b177b501d0a0d26a0a858a23a96248282604051613c5b929190615e84565b60405180910390a15050565b6000601654148015613c7b57506000601854145b613ca257601654601781905550601854601981905550600060168190555060006018819055505b565b600080600080600080613cb687613043565b95509550955095509550955086600460008b73ffffffffffffffffffffffffffffffffffffffff1673ffffffffffffffffffffffffffffffffffffffff16815260200190815260200160002054613d0d91906150c1565b600460008b73ffffffffffffffffffffffffffffffffffffffff1673ffffffffffffffffffffffffffffffffffffffff1681526020019081526020016000208190555085600360008b73ffffffffffffffffffffffffffffffffffffffff1673ffffffffffffffffffffffffffffffffffffffff16815260200190815260200160002054613d9b91906150c1565b600360008b73ffffffffffffffffffffffffffffffffffffffff1673ffffffffffffffffffffffffffffffffffffffff1681526020019081526020016000208190555084600360008a73ffffffffffffffffffffffffffffffffffffffff1673ffffffffffffffffffffffffffffffffffffffff16815260200190815260200160002054613e299190615463565b600360008a73ffffffffffffffffffffffffffffffffffffffff1673ffffffffffffffffffffffffffffffffffffffff16815260200190815260200160002081905550613e758161462a565b613e7f84836147ba565b8773ffffffffffffffffffffffffffffffffffffffff168973ffffffffffffffffffffffffffffffffffffffff167fddf252ad1be2c89b69c2b068fc378daa952ba7f163c4a11628f55a4df523b3ef85604051613edc9190614b0d565b60405180910390a3505050505050505050565b600080600080600080613f0187613043565b95509550955095509550955085600360008b73ffffffffffffffffffffffffffffffffffffffff1673ffffffffffffffffffffffffffffffffffffffff16815260200190815260200160002054613f5891906150c1565b600360008b73ffffffffffffffffffffffffffffffffffffffff1673ffffffffffffffffffffffffffffffffffffffff1681526020019081526020016000208190555082600460008a73ffffffffffffffffffffffffffffffffffffffff1673ffffffffffffffffffffffffffffffffffffffff16815260200190815260200160002054613fe69190615463565b600460008a73ffffffffffffffffffffffffffffffffffffffff1673ffffffffffffffffffffffffffffffffffffffff1681526020019081526020016000208190555084600360008a73ffffffffffffffffffffffffffffffffffffffff1673ffffffffffffffffffffffffffffffffffffffff168152602001908152602001600020546140749190615463565b600360008a73ffffffffffffffffffffffffffffffffffffffff1673ffffffffffffffffffffffffffffffffffffffff168152602001908152602001600020819055506140c08161462a565b6140ca84836147ba565b8773ffffffffffffffffffffffffffffffffffffffff168973ffffffffffffffffffffffffffffffffffffffff167fddf252ad1be2c89b69c2b068fc378daa952ba7f163c4a11628f55a4df523b3ef856040516141279190614b0d565b60405180910390a3505050505050505050565b60008060008060008061414c87613043565b95509550955095509550955086600460008b73ffffffffffffffffffffffffffffffffffffffff1673ffffffffffffffffffffffffffffffffffffffff168152602001908152602001600020546141a391906150c1565b600460008b73ffffffffffffffffffffffffffffffffffffffff1673ffffffffffffffffffffffffffffffffffffffff1681526020019081526020016000208190555085600360008b73ffffffffffffffffffffffffffffffffffffffff1673ffffffffffffffffffffffffffffffffffffffff1681526020019081526020016000205461423191906150c1565b600360008b73ffffffffffffffffffffffffffffffffffffffff1673ffffffffffffffffffffffffffffffffffffffff1681526020019081526020016000208190555082600460008a73ffffffffffffffffffffffffffffffffffffffff1673ffffffffffffffffffffffffffffffffffffffff168152602001908152602001600020546142bf9190615463565b600460008a73ffffffffffffffffffffffffffffffffffffffff1673ffffffffffffffffffffffffffffffffffffffff1681526020019081526020016000208190555084600360008a73ffffffffffffffffffffffffffffffffffffffff1673ffffffffffffffffffffffffffffffffffffffff1681526020019081526020016000205461434d9190615463565b600360008a73ffffffffffffffffffffffffffffffffffffffff1673ffffffffffffffffffffffffffffffffffffffff168152602001908152602001600020819055506143998161462a565b6143a384836147ba565b8773ffffffffffffffffffffffffffffffffffffffff168973ffffffffffffffffffffffffffffffffffffffff167fddf252ad1be2c89b69c2b068fc378daa952ba7f163c4a11628f55a4df523b3ef856040516144009190614b0d565b60405180910390a3505050505050505050565b60008060008060008061442587613043565b95509550955095509550955085600360008b73ffffffffffffffffffffffffffffffffffffffff1673ffffffffffffffffffffffffffffffffffffffff1681526020019081526020016000205461447c91906150c1565b600360008b73ffffffffffffffffffffffffffffffffffffffff1673ffffffffffffffffffffffffffffffffffffffff1681526020019081526020016000208190555084600360008a73ffffffffffffffffffffffffffffffffffffffff1673ffffffffffffffffffffffffffffffffffffffff1681526020019081526020016000205461450a9190615463565b600360008a73ffffffffffffffffffffffffffffffffffffffff1673ffffffffffffffffffffffffffffffffffffffff168152602001908152602001600020819055506145568161462a565b61456084836147ba565b8773ffffffffffffffffffffffffffffffffffffffff168973ffffffffffffffffffffffffffffffffffffffff167fddf252ad1be2c89b69c2b068fc378daa952ba7f163c4a11628f55a4df523b3ef856040516145bd9190614b0d565b60405180910390a3505050505050505050565b601754601681905550601954601881905550565b60006064601654836145f69190615cad565b61460091906151b6565b9050919050565b60006064601854836146199190615cad565b61462391906151b6565b9050919050565b600061463461301f565b9050600081836146449190615cad565b905080600360003073ffffffffffffffffffffffffffffffffffffffff1673ffffffffffffffffffffffffffffffffffffffff168152602001908152602001600020546146919190615463565b600360003073ffffffffffffffffffffffffffffffffffffffff1673ffffffffffffffffffffffffffffffffffffffff16815260200190815260200160002081905550600760003073ffffffffffffffffffffffffffffffffffffffff1673ffffffffffffffffffffffffffffffffffffffff16815260200190815260200160002060009054906101000a900460ff16156147b55782600460003073ffffffffffffffffffffffffffffffffffffffff1673ffffffffffffffffffffffffffffffffffffffff168152602001908152602001600020546147719190615463565b600460003073ffffffffffffffffffffffffffffffffffffffff1673ffffffffffffffffffffffffffffffffffffffff168152602001908152602001600020819055505b505050565b81600a546147c891906150c1565b600a8190555080600b546147dc9190615463565b600b819055505050565b600081519050919050565b600082825260208201905092915050565b60005b83811015614820578082015181840152602081019050614805565b60008484015250505050565b6000601f19601f8301169050919050565b6000614848826147e6565b61485281856147f1565b9350614862818560208601614802565b61486b8161482c565b840191505092915050565b60006020820190508181036000830152614890818461483d565b905092915050565b6000604051905090565b600080fd5b600080fd5b7f4e487b7100000000000000000000000000000000000000000000000000000000600052604160045260246000fd5b6148e48261482c565b810181811067ffffffffffffffff82111715614903576149026148ac565b5b80604052505050565b6000614916614898565b905061492282826148db565b919050565b600073ffffffffffffffffffffffffffffffffffffffff82169050919050565b600061495282614927565b9050919050565b61496281614947565b811461496d57600080fd5b50565b60008135905061497f81614959565b92915050565b6000819050919050565b61499881614985565b81146149a357600080fd5b50565b6000813590506149b58161498f565b92915050565b600060c082840312156149d1576149d06148a7565b5b6149db60c061490c565b905060006149eb84828501614970565b60008301525060206149ff848285016149a6565b6020830152506040614a13848285016149a6565b6040830152506060614a27848285016149a6565b6060830152506080614a3b848285016149a6565b60808301525060a0614a4f848285016149a6565b60a08301525092915050565b600060c08284031215614a7157614a706148a2565b5b6000614a7f848285016149bb565b91505092915050565b60008060408385031215614a9f57614a9e6148a2565b5b6000614aad85828601614970565b9250506020614abe858286016149a6565b9150509250929050565b60008115159050919050565b614add81614ac8565b82525050565b6000602082019050614af86000830184614ad4565b92915050565b614b0781614985565b82525050565b6000602082019050614b226000830184614afe565b92915050565b600080600060608486031215614b4157614b406148a2565b5b6000614b4f86828701614970565b9350506020614b6086828701614970565b9250506040614b71868287016149a6565b9150509250925092565b614b8481614947565b82525050565b6000602082019050614b9f6000830184614b7b565b92915050565b600060208284031215614bbb57614bba6148a2565b5b6000614bc9848285016149a6565b91505092915050565b600060ff82169050919050565b614be881614bd2565b82525050565b6000602082019050614c036000830184614bdf565b92915050565b600060208284031215614c1f57614c1e6148a2565b5b6000614c2d84828501614970565b91505092915050565b614c3f81614ac8565b8114614c4a57600080fd5b50565b600081359050614c5c81614c36565b92915050565b60008060408385031215614c7957614c786148a2565b5b6000614c87858286016149a6565b9250506020614c9885828601614c4d565b9150509250929050565b600080fd5b600067ffffffffffffffff821115614cc257614cc16148ac565b5b602082029050919050565b600080fd5b6000614ce5614ce084614ca7565b61490c565b90508060208402830185811115614cff57614cfe614ccd565b5b835b81811015614d285780614d1488826149a6565b845260208401935050602081019050614d01565b5050509392505050565b600082601f830112614d4757614d46614ca2565b5b6004614d54848285614cd2565b91505092915050565b60008060a08385031215614d7457614d736148a2565b5b6000614d82858286016149a6565b9250506020614d9385828601614d32565b9150509250929050565b6000614da882614927565b9050919050565b614db881614d9d565b82525050565b6000602082019050614dd36000830184614daf565b92915050565b60008060408385031215614df057614def6148a2565b5b6000614dfe85828601614970565b9250506020614e0f85828601614c4d565b9150509250929050565b600060c082019050614e2e6000830189614b7b565b614e3b6020830188614afe565b614e486040830187614afe565b614e556060830186614afe565b614e626080830185614afe565b614e6f60a0830184614afe565b979650505050505050565b6000819050919050565b6000614e9f614e9a614e9584614927565b614e7a565b614927565b9050919050565b6000614eb182614e84565b9050919050565b6000614ec382614ea6565b9050919050565b614ed381614eb8565b82525050565b6000602082019050614eee6000830184614eca565b92915050565b60008060408385031215614f0b57614f0a6148a2565b5b6000614f1985828601614970565b9250506020614f2a85828601614970565b9150509250929050565b7f4e487b7100000000000000000000000000000000000000000000000000000000600052602260045260246000fd5b60006002820490506001821680614f7b57607f821691505b602082108103614f8e57614f8d614f34565b5b50919050565b7f4d616e6167653a63616c6c6572206973206e6f7420746865206d616e61676572600082015250565b6000614fca6020836147f1565b9150614fd582614f94565b602082019050919050565b60006020820190508181036000830152614ff981614fbd565b9050919050565b7f45524332303a207472616e7366657220616d6f756e742065786365656473206160008201527f6c6c6f77616e6365000000000000000000000000000000000000000000000000602082015250565b600061505c6028836147f1565b915061506782615000565b604082019050919050565b6000602082019050818103600083015261508b8161504f565b9050919050565b7f4e487b7100000000000000000000000000000000000000000000000000000000600052601160045260246000fd5b60006150cc82614985565b91506150d783614985565b92508282039050818111156150ef576150ee615092565b5b92915050565b7f416d6f756e74206d757374206265206c657373207468616e20746f74616c207260008201527f65666c656374696f6e7300000000000000000000000000000000000000000000602082015250565b6000615151602a836147f1565b915061515c826150f5565b604082019050919050565b6000602082019050818103600083015261518081615144565b9050919050565b7f4e487b7100000000000000000000000000000000000000000000000000000000600052601260045260246000fd5b60006151c182614985565b91506151cc83614985565b9250826151dc576151db615187565b5b828204905092915050565b7f4f776e61626c653a2063616c6c6572206973206e6f742074686520637265617460008201527f6f72000000000000000000000000000000000000000000000000000000000000602082015250565b60006152436022836147f1565b915061524e826151e7565b604082019050919050565b6000602082019050818103600083015261527281615236565b9050919050565b7f5061757361626c653a2044697361626c65642050617573650000000000000000600082015250565b60006152af6018836147f1565b91506152ba82615279565b602082019050919050565b600060208201905081810360008301526152de816152a2565b9050919050565b7f5061757361626c653a2070617573656400000000000000000000000000000000600082015250565b600061531b6010836147f1565b9150615326826152e5565b602082019050919050565b6000602082019050818103600083015261534a8161530e565b9050919050565b7f4163636f756e7420697320616c7265616479206578636c756465640000000000600082015250565b6000615387601b836147f1565b915061539282615351565b602082019050919050565b600060208201905081810360008301526153b68161537a565b9050919050565b7f4e487b7100000000000000000000000000000000000000000000000000000000600052603260045260246000fd5b7f4e487b7100000000000000000000000000000000000000000000000000000000600052603160045260246000fd5b600061542682614985565b91507fffffffffffffffffffffffffffffffffffffffffffffffffffffffffffffffff820361545857615457615092565b5b600182019050919050565b600061546e82614985565b915061547983614985565b925082820190508082111561549157615490615092565b5b92915050565b7f4578636c75646564206164647265737365732063616e6e6f742063616c6c207460008201527f6869732066756e6374696f6e0000000000000000000000000000000000000000602082015250565b60006154f3602c836147f1565b91506154fe82615497565b604082019050919050565b60006020820190508181036000830152615522816154e6565b9050919050565b7f4275726e61626c653a2044697361626c6564204275726e000000000000000000600082015250565b600061555f6017836147f1565b915061556a82615529565b602082019050919050565b6000602082019050818103600083015261558e81615552565b9050919050565b7f65786365656473206c696d697400000000000000000000000000000000000000600082015250565b60006155cb600d836147f1565b91506155d682615595565b602082019050919050565b600060208201905081810360008301526155fa816155be565b9050919050565b7f416d6f756e74206d757374206265206c657373207468616e20737570706c7900600082015250565b6000615637601f836147f1565b915061564282615601565b602082019050919050565b600060208201905081810360008301526156668161562a565b9050919050565b7f4d696e7461626c653a2044697361626c6564204d696e74000000000000000000600082015250565b60006156a36017836147f1565b91506156ae8261566d565b602082019050919050565b600060208201905081810360008301526156d281615696565b9050919050565b7f45524332303a2064656372656173656420616c6c6f77616e63652062656c6f7760008201527f207a65726f000000000000000000000000000000000000000000000000000000602082015250565b60006157356025836147f1565b9150615740826156d9565b604082019050919050565b6000602082019050818103600083015261576481615728565b9050919050565b7f426c61636b6c6973743a2044697361626c656420426c61636b6c697374000000600082015250565b60006157a1601d836147f1565b91506157ac8261576b565b602082019050919050565b600060208201905081810360008301526157d081615794565b9050919050565b7f5061757361626c653a206e6f7420706175736564000000000000000000000000600082015250565b600061580d6014836147f1565b9150615818826157d7565b602082019050919050565b6000602082019050818103600083015261583c81615800565b9050919050565b7f45524332303a207472616e7366657220746f20746865207a65726f206164647260008201527f6573730000000000000000000000000000000000000000000000000000000000602082015250565b600061589f6023836147f1565b91506158aa82615843565b604082019050919050565b600060208201905081810360008301526158ce81615892565b9050919050565b7f546f6b656e207472616e7366657220726566757365642e20526563656976657260008201527f206973206f6e20626c61636b6c69737400000000000000000000000000000000602082015250565b60006159316030836147f1565b915061593c826158d5565b604082019050919050565b6000602082019050818103600083015261596081615924565b9050919050565b7f546f6b656e206973205061757365642e00000000000000000000000000000000600082015250565b600061599d6010836147f1565b91506159a882615967565b602082019050919050565b600060208201905081810360008301526159cc81615990565b9050919050565b7f45524332303a20617070726f76652066726f6d20746865207a65726f2061646460008201527f7265737300000000000000000000000000000000000000000000000000000000602082015250565b6000615a2f6024836147f1565b9150615a3a826159d3565b604082019050919050565b60006020820190508181036000830152615a5e81615a22565b9050919050565b7f45524332303a20617070726f766520746f20746865207a65726f20616464726560008201527f7373000000000000000000000000000000000000000000000000000000000000602082015250565b6000615ac16022836147f1565b9150615acc82615a65565b604082019050919050565b60006020820190508181036000830152615af081615ab4565b9050919050565b7f45524332303a207472616e736665722066726f6d20746865207a65726f20616460008201527f6472657373000000000000000000000000000000000000000000000000000000602082015250565b6000615b536025836147f1565b9150615b5e82615af7565b604082019050919050565b60006020820190508181036000830152615b8281615b46565b9050919050565b7f5472616e7366657220616d6f756e74206d75737420626520677265617465722060008201527f7468616e207a65726f0000000000000000000000000000000000000000000000602082015250565b6000615be56029836147f1565b9150615bf082615b89565b604082019050919050565b60006020820190508181036000830152615c1481615bd8565b9050919050565b7f5472616e7366657220616d6f756e74206578636565647320746865206d61785460008201527f78416d6f756e742e000000000000000000000000000000000000000000000000602082015250565b6000615c776028836147f1565b9150615c8282615c1b565b604082019050919050565b60006020820190508181036000830152615ca681615c6a565b9050919050565b6000615cb882614985565b9150615cc383614985565b9250828202615cd181614985565b91508282048414831517615ce857615ce7615092565b5b5092915050565b600081519050615cfe81614959565b92915050565b600060208284031215615d1a57615d196148a2565b5b6000615d2884828501615cef565b91505092915050565b6000819050919050565b6000615d56615d51615d4c84615d31565b614e7a565b614985565b9050919050565b615d6681615d3b565b82525050565b600081519050919050565b600082825260208201905092915050565b6000819050602082019050919050565b615da181614947565b82525050565b6000615db38383615d98565b60208301905092915050565b6000602082019050919050565b6000615dd782615d6c565b615de18185615d77565b9350615dec83615d88565b8060005b83811015615e1d578151615e048882615da7565b9750615e0f83615dbf565b925050600181019050615df0565b5085935050505092915050565b600060a082019050615e3f6000830188614afe565b615e4c6020830187615d5d565b8181036040830152615e5e8186615dcc565b9050615e6d6060830185614b7b565b615e7a6080830184614afe565b9695505050505050565b6000604082019050615e996000830185614afe565b8181036020830152615eab8184615dcc565b90509392505050565b6000608082019050615ec96000830187615d5d565b8181036020830152615edb8186615dcc565b9050615eea6040830185614b7b565b615ef76060830184614afe565b9594505050505056fea26469706673582212202367284c87fe50ef903686c9730ab8f685fe5854618c6046cf311ef43748ba9e64736f6c63430008140033",
  "linkReferences": {},
  "deployedLinkReferences": {}
}