{
  "_format": "hh-sol-artifact-1",
  "contractName": "StandardTokenFactory",
  "sourceName": "contracts/CreateToken/Meter/contracts/CreateToken/Meter/StandardTokenFactory.sol",
  "abi": [
    {
      "inputs": [
        {
          "internalType": "address",
          "name": "creator_",
          "type": "address"
        },
        {
          "internalType": "string",
          "name": "name_",
          "type": "string"
        },
        {
          "internalType": "string",
          "name": "symbol_",
          "type": "string"
        },
        {
          "internalType": "uint8",
          "name": "decimals_",
          "type": "uint8"
        },
        {
          "internalType": "uint256",
          "name": "tokenSupply_",
          "type": "uint256"
        },
        {
          "components": [
            {
              "internalType": "address",
              "name": "taxaddress",
              "type": "address"
            },
            {
              "internalType": "uint256",
              "name": "taxamount",
              "type": "uint256"
            },
            {
              "internalType": "uint256",
              "name": "mintflag",
              "type": "uint256"
            },
            {
              "internalType": "uint256",
              "name": "pauseflag",
              "type": "uint256"
            },
            {
              "internalType": "uint256",
              "name": "burnflag",
              "type": "uint256"
            },
            {
              "internalType": "uint256",
              "name": "blacklistflag",
              "type": "uint256"
            }
          ],
          "internalType": "struct SharedStructs.status",
          "name": "_state",
          "type": "tuple"
        }
      ],
      "name": "deploy",
      "outputs": [
        {
          "internalType": "contract StandardToken",
          "name": "",
          "type": "address"
        }
      ],
      "stateMutability": "nonpayable",
      "type": "function"
    }
  ],
  "bytecode": "0x608060405234801561001057600080fd5b506141d2806100206000396000f3fe60806040523480156200001157600080fd5b50600436106200002e5760003560e01c8063706fb2ee1462000033575b600080fd5b6200005160048036038101906200004b9190620003d2565b62000069565b60405162000060919062000518565b60405180910390f35b60008686868686866040516200007f90620000ba565b62000090969594939291906200069a565b604051809103906000f080158015620000ad573d6000803e3d6000fd5b5090509695505050505050565b613a86806200071783390190565b6000604051905090565b600080fd5b600080fd5b600073ffffffffffffffffffffffffffffffffffffffff82169050919050565b60006200010982620000dc565b9050919050565b6200011b81620000fc565b81146200012757600080fd5b50565b6000813590506200013b8162000110565b92915050565b600080fd5b600080fd5b6000601f19601f8301169050919050565b7f4e487b7100000000000000000000000000000000000000000000000000000000600052604160045260246000fd5b62000196826200014b565b810181811067ffffffffffffffff82111715620001b857620001b76200015c565b5b80604052505050565b6000620001cd620000c8565b9050620001db82826200018b565b919050565b600067ffffffffffffffff821115620001fe57620001fd6200015c565b5b62000209826200014b565b9050602081019050919050565b82818337600083830152505050565b60006200023c6200023684620001e0565b620001c1565b9050828152602081018484840111156200025b576200025a62000146565b5b6200026884828562000216565b509392505050565b600082601f83011262000288576200028762000141565b5b81356200029a84826020860162000225565b91505092915050565b600060ff82169050919050565b620002bb81620002a3565b8114620002c757600080fd5b50565b600081359050620002db81620002b0565b92915050565b6000819050919050565b620002f681620002e1565b81146200030257600080fd5b50565b6000813590506200031681620002eb565b92915050565b600080fd5b600060c082840312156200033a57620003396200031c565b5b6200034660c0620001c1565b9050600062000358848285016200012a565b60008301525060206200036e8482850162000305565b6020830152506040620003848482850162000305565b60408301525060606200039a8482850162000305565b6060830152506080620003b08482850162000305565b60808301525060a0620003c68482850162000305565b60a08301525092915050565b6000806000806000806101608789031215620003f357620003f2620000d2565b5b60006200040389828a016200012a565b965050602087013567ffffffffffffffff811115620004275762000426620000d7565b5b6200043589828a0162000270565b955050604087013567ffffffffffffffff811115620004595762000458620000d7565b5b6200046789828a0162000270565b94505060606200047a89828a01620002ca565b93505060806200048d89828a0162000305565b92505060a0620004a089828a0162000321565b9150509295509295509295565b6000819050919050565b6000620004d8620004d2620004cc84620000dc565b620004ad565b620000dc565b9050919050565b6000620004ec82620004b7565b9050919050565b60006200050082620004df565b9050919050565b6200051281620004f3565b82525050565b60006020820190506200052f600083018462000507565b92915050565b6200054081620000fc565b82525050565b600081519050919050565b600082825260208201905092915050565b60005b838110156200058257808201518184015260208101905062000565565b60008484015250505050565b60006200059b8262000546565b620005a7818562000551565b9350620005b981856020860162000562565b620005c4816200014b565b840191505092915050565b620005da81620002a3565b82525050565b620005eb81620002e1565b82525050565b620005fc81620000fc565b82525050565b6200060d81620002e1565b82525050565b60c0820160008201516200062b6000850182620005f1565b50602082015162000640602085018262000602565b50604082015162000655604085018262000602565b5060608201516200066a606085018262000602565b5060808201516200067f608085018262000602565b5060a08201516200069460a085018262000602565b50505050565b600061016082019050620006b2600083018962000535565b8181036020830152620006c681886200058e565b90508181036040830152620006dc81876200058e565b9050620006ed6060830186620005cf565b620006fc6080830185620005e0565b6200070b60a083018462000613565b97965050505050505056fe608060405260016005553480156200001657600080fd5b5060405162003a8638038062003a8683398181016040528101906200003c9190620008ec565b600081602001511115620000c157600073ffffffffffffffffffffffffffffffffffffffff16816000015173ffffffffffffffffffffffffffffffffffffffff1603620000c0576040517f08c379a0000000000000000000000000000000000000000000000000000000008152600401620000b79062000a28565b60405180910390fd5b5b8460019081620000d2919062000c8b565b508360029081620000e4919062000c8b565b5082600360006101000a81548160ff021916908360ff160217905550856000806101000a81548173ffffffffffffffffffffffffffffffffffffffff021916908373ffffffffffffffffffffffffffffffffffffffff16021790555080600760008201518160000160006101000a81548173ffffffffffffffffffffffffffffffffffffffff021916908373ffffffffffffffffffffffffffffffffffffffff1602179055506020820151816001015560408201518160020155606082015181600301556080820151816004015560a08201518160050155905050620001d18683620001f860201b60201c565b6000600660006101000a81548160ff02191690831515021790555050505050505062001102565b600073ffffffffffffffffffffffffffffffffffffffff168273ffffffffffffffffffffffffffffffffffffffff16036200026a576040517f08c379a0000000000000000000000000000000000000000000000000000000008152600401620002619062000dc2565b60405180910390fd5b6200027e600083836200035d60201b60201c565b806004600082825462000292919062000e13565b9250508190555080600d60008473ffffffffffffffffffffffffffffffffffffffff1673ffffffffffffffffffffffffffffffffffffffff1681526020019081526020016000206000828254620002ea919062000e13565b925050819055508173ffffffffffffffffffffffffffffffffffffffff16600073ffffffffffffffffffffffffffffffffffffffff167fddf252ad1be2c89b69c2b068fc378daa952ba7f163c4a11628f55a4df523b3ef8360405162000351919062000e5f565b60405180910390a35050565b6000811015620003a4576040517f08c379a00000000000000000000000000000000000000000000000000000000081526004016200039b9062000ef2565b60405180910390fd5b600060076005015411156200045c57620003c483620004c460201b60201c565b1562000407576040517f08c379a0000000000000000000000000000000000000000000000000000000008152600401620003fe9062000f8a565b60405180910390fd5b6200041882620004c460201b60201c565b156200045b576040517f08c379a0000000000000000000000000000000000000000000000000000000008152600401620004529062000f8a565b60405180910390fd5b5b60006007600301541115620004bf576200047b6200056460201b60201c565b15620004be576040517f08c379a0000000000000000000000000000000000000000000000000000000008152600401620004b59062000ffc565b60405180910390fd5b5b505050565b6000806007600501541162000510576040517f08c379a000000000000000000000000000000000000000000000000000000000815260040162000507906200106e565b60405180910390fd5b600f60008373ffffffffffffffffffffffffffffffffffffffff1673ffffffffffffffffffffffffffffffffffffffff16815260200190815260200160002060009054906101000a900460ff169050919050565b60008060076003015411620005b0576040517f08c379a0000000000000000000000000000000000000000000000000000000008152600401620005a790620010e0565b60405180910390fd5b600660009054906101000a900460ff16905090565b6000604051905090565b600080fd5b600080fd5b600073ffffffffffffffffffffffffffffffffffffffff82169050919050565b60006200060682620005d9565b9050919050565b6200061881620005f9565b81146200062457600080fd5b50565b60008151905062000638816200060d565b92915050565b600080fd5b600080fd5b6000601f19601f8301169050919050565b7f4e487b7100000000000000000000000000000000000000000000000000000000600052604160045260246000fd5b620006938262000648565b810181811067ffffffffffffffff82111715620006b557620006b462000659565b5b80604052505050565b6000620006ca620005c5565b9050620006d8828262000688565b919050565b600067ffffffffffffffff821115620006fb57620006fa62000659565b5b620007068262000648565b9050602081019050919050565b60005b838110156200073357808201518184015260208101905062000716565b60008484015250505050565b6000620007566200075084620006dd565b620006be565b90508281526020810184848401111562000775576200077462000643565b5b6200078284828562000713565b509392505050565b600082601f830112620007a257620007a16200063e565b5b8151620007b48482602086016200073f565b91505092915050565b600060ff82169050919050565b620007d581620007bd565b8114620007e157600080fd5b50565b600081519050620007f581620007ca565b92915050565b6000819050919050565b6200081081620007fb565b81146200081c57600080fd5b50565b600081519050620008308162000805565b92915050565b600080fd5b600060c0828403121562000854576200085362000836565b5b6200086060c0620006be565b90506000620008728482850162000627565b600083015250602062000888848285016200081f565b60208301525060406200089e848285016200081f565b6040830152506060620008b4848285016200081f565b6060830152506080620008ca848285016200081f565b60808301525060a0620008e0848285016200081f565b60a08301525092915050565b60008060008060008061016087890312156200090d576200090c620005cf565b5b60006200091d89828a0162000627565b965050602087015167ffffffffffffffff811115620009415762000940620005d4565b5b6200094f89828a016200078a565b955050604087015167ffffffffffffffff811115620009735762000972620005d4565b5b6200098189828a016200078a565b94505060606200099489828a01620007e4565b9350506080620009a789828a016200081f565b92505060a0620009ba89828a016200083b565b9150509295509295509295565b600082825260208201905092915050565b7f7461782061646472657373206d75737420626520737570706c69656400000000600082015250565b600062000a10601c83620009c7565b915062000a1d82620009d8565b602082019050919050565b6000602082019050818103600083015262000a438162000a01565b9050919050565b600081519050919050565b7f4e487b7100000000000000000000000000000000000000000000000000000000600052602260045260246000fd5b6000600282049050600182168062000a9d57607f821691505b60208210810362000ab35762000ab262000a55565b5b50919050565b60008190508160005260206000209050919050565b60006020601f8301049050919050565b600082821b905092915050565b60006008830262000b1d7fffffffffffffffffffffffffffffffffffffffffffffffffffffffffffffffff8262000ade565b62000b29868362000ade565b95508019841693508086168417925050509392505050565b6000819050919050565b600062000b6c62000b6662000b6084620007fb565b62000b41565b620007fb565b9050919050565b6000819050919050565b62000b888362000b4b565b62000ba062000b978262000b73565b84845462000aeb565b825550505050565b600090565b62000bb762000ba8565b62000bc481848462000b7d565b505050565b5b8181101562000bec5762000be060008262000bad565b60018101905062000bca565b5050565b601f82111562000c3b5762000c058162000ab9565b62000c108462000ace565b8101602085101562000c20578190505b62000c3862000c2f8562000ace565b83018262000bc9565b50505b505050565b600082821c905092915050565b600062000c606000198460080262000c40565b1980831691505092915050565b600062000c7b838362000c4d565b9150826002028217905092915050565b62000c968262000a4a565b67ffffffffffffffff81111562000cb25762000cb162000659565b5b62000cbe825462000a84565b62000ccb82828562000bf0565b600060209050601f83116001811462000d03576000841562000cee578287015190505b62000cfa858262000c6d565b86555062000d6a565b601f19841662000d138662000ab9565b60005b8281101562000d3d5784890151825560018201915060208501945060208101905062000d16565b8683101562000d5d578489015162000d59601f89168262000c4d565b8355505b6001600288020188555050505b505050505050565b7f45524332303a206d696e7420746f20746865207a65726f206164647265737300600082015250565b600062000daa601f83620009c7565b915062000db78262000d72565b602082019050919050565b6000602082019050818103600083015262000ddd8162000d9b565b9050919050565b7f4e487b7100000000000000000000000000000000000000000000000000000000600052601160045260246000fd5b600062000e2082620007fb565b915062000e2d83620007fb565b925082820190508082111562000e485762000e4762000de4565b5b92915050565b62000e5981620007fb565b82525050565b600060208201905062000e76600083018462000e4e565b92915050565b7f45524332303a207472616e7366657220746f20746865207a65726f206164647260008201527f6573730000000000000000000000000000000000000000000000000000000000602082015250565b600062000eda602383620009c7565b915062000ee78262000e7c565b604082019050919050565b6000602082019050818103600083015262000f0d8162000ecb565b9050919050565b7f546f6b656e207472616e7366657220726566757365642e20526563656976657260008201527f206973206f6e20626c61636b6c69737400000000000000000000000000000000602082015250565b600062000f72603083620009c7565b915062000f7f8262000f14565b604082019050919050565b6000602082019050818103600083015262000fa58162000f63565b9050919050565b7f546f6b656e206973205061757365642e00000000000000000000000000000000600082015250565b600062000fe4601083620009c7565b915062000ff18262000fac565b602082019050919050565b60006020820190508181036000830152620010178162000fd5565b9050919050565b7f426c61636b6c6973743a2044697361626c656420426c61636b6c697374000000600082015250565b600062001056601d83620009c7565b915062001063826200101e565b602082019050919050565b60006020820190508181036000830152620010898162001047565b9050919050565b7f5061757361626c653a2044697361626c65642050617573650000000000000000600082015250565b6000620010c8601883620009c7565b9150620010d58262001090565b602082019050919050565b60006020820190508181036000830152620010fb81620010b9565b9050919050565b61297480620011126000396000f3fe608060405234801561001057600080fd5b50600436106101375760003560e01c80635c975abb116100b8578063a9059cbb1161007c578063a9059cbb14610340578063b351dfe814610370578063c19d93fb1461038c578063dd62ed3e146103af578063e47d6060146103df578063fc8234cb1461040f57610137565b80635c975abb1461028657806370a08231146102a45780638da5cb5b146102d457806395d89b41146102f2578063a457c2d71461031057610137565b8063320b2ad9116100ff578063320b2ad9146101f6578063395093511461020057806340c10f191461023057806342966c681461024c57806349538af41461026857610137565b806306fdde031461013c578063095ea7b31461015a57806318160ddd1461018a57806323b872dd146101a8578063313ce567146101d8575b600080fd5b610144610419565b6040516101519190611aaf565b60405180910390f35b610174600480360381019061016f9190611b6a565b6104ab565b6040516101819190611bc5565b60405180910390f35b6101926104c9565b60405161019f9190611bef565b60405180910390f35b6101c260048036038101906101bd9190611c0a565b6104d3565b6040516101cf9190611bc5565b60405180910390f35b6101e06105d4565b6040516101ed9190611c79565b60405180910390f35b6101fe6105eb565b005b61021a60048036038101906102159190611b6a565b61076b565b6040516102279190611bc5565b60405180910390f35b61024a60048036038101906102459190611b6a565b610817565b005b61026660048036038101906102619190611c94565b610a48565b005b610270610d1c565b60405161027d9190611bef565b60405180910390f35b61028e610d22565b60405161029b9190611bc5565b60405180910390f35b6102be60048036038101906102b99190611cc1565b610d80565b6040516102cb9190611bef565b60405180910390f35b6102dc610dc9565b6040516102e99190611cfd565b60405180910390f35b6102fa610ded565b6040516103079190611aaf565b60405180910390f35b61032a60048036038101906103259190611b6a565b610e7f565b6040516103379190611bc5565b60405180910390f35b61035a60048036038101906103559190611b6a565b610f73565b6040516103679190611bc5565b60405180910390f35b61038a60048036038101906103859190611d44565b61101a565b005b6103946111a0565b6040516103a696959493929190611d84565b60405180910390f35b6103c960048036038101906103c49190611de5565b6111ea565b6040516103d69190611bef565b60405180910390f35b6103f960048036038101906103f49190611cc1565b611271565b6040516104069190611bc5565b60405180910390f35b61041761130e565b005b60606001805461042890611e54565b80601f016020809104026020016040519081016040528092919081815260200182805461045490611e54565b80156104a15780601f10610476576101008083540402835291602001916104a1565b820191906000526020600020905b81548152906001019060200180831161048457829003601f168201915b5050505050905090565b60006104bf6104b861148d565b8484611495565b6001905092915050565b6000600454905090565b60006104e084848461165e565b6000600e60008673ffffffffffffffffffffffffffffffffffffffff1673ffffffffffffffffffffffffffffffffffffffff168152602001908152602001600020600061052b61148d565b73ffffffffffffffffffffffffffffffffffffffff1673ffffffffffffffffffffffffffffffffffffffff168152602001908152602001600020549050828110156105ab576040517f08c379a00000000000000000000000000000000000000000000000000000000081526004016105a290611ef7565b60405180910390fd5b6105c8856105b761148d565b85846105c39190611f46565b611495565b60019150509392505050565b6000600360009054906101000a900460ff16905090565b6105f361148d565b73ffffffffffffffffffffffffffffffffffffffff1660008054906101000a900473ffffffffffffffffffffffffffffffffffffffff1673ffffffffffffffffffffffffffffffffffffffff1614610680576040517f08c379a000000000000000000000000000000000000000000000000000000000815260040161067790611fc6565b60405180910390fd5b6000600760030154116106c8576040517f08c379a00000000000000000000000000000000000000000000000000000000081526004016106bf90612032565b60405180910390fd5b6106d0610d22565b15610710576040517f08c379a00000000000000000000000000000000000000000000000000000000081526004016107079061209e565b60405180910390fd5b6001600660006101000a81548160ff0219169083151502179055507f62e78cea01bee320cd4e420270b5ea74000d11b0c9f74754ebdbfc544b05a25861075461148d565b6040516107619190611cfd565b60405180910390a1565b600061080d61077861148d565b8484600e600061078661148d565b73ffffffffffffffffffffffffffffffffffffffff1673ffffffffffffffffffffffffffffffffffffffff16815260200190815260200160002060008873ffffffffffffffffffffffffffffffffffffffff1673ffffffffffffffffffffffffffffffffffffffff1681526020019081526020016000205461080891906120be565b611495565b6001905092915050565b61081f61148d565b73ffffffffffffffffffffffffffffffffffffffff1660008054906101000a900473ffffffffffffffffffffffffffffffffffffffff1673ffffffffffffffffffffffffffffffffffffffff16146108ac576040517f08c379a00000000000000000000000000000000000000000000000000000000081526004016108a390611fc6565b60405180910390fd5b6000600760020154116108f4576040517f08c379a00000000000000000000000000000000000000000000000000000000081526004016108eb9061213e565b60405180910390fd5b600073ffffffffffffffffffffffffffffffffffffffff168273ffffffffffffffffffffffffffffffffffffffff1603610963576040517f08c379a000000000000000000000000000000000000000000000000000000000815260040161095a906121aa565b60405180910390fd5b61096f600083836118de565b806004600082825461098191906120be565b9250508190555080600d60008473ffffffffffffffffffffffffffffffffffffffff1673ffffffffffffffffffffffffffffffffffffffff16815260200190815260200160002060008282546109d791906120be565b925050819055508173ffffffffffffffffffffffffffffffffffffffff16600073ffffffffffffffffffffffffffffffffffffffff167fddf252ad1be2c89b69c2b068fc378daa952ba7f163c4a11628f55a4df523b3ef83604051610a3c9190611bef565b60405180910390a35050565b610a5061148d565b73ffffffffffffffffffffffffffffffffffffffff1660008054906101000a900473ffffffffffffffffffffffffffffffffffffffff1673ffffffffffffffffffffffffffffffffffffffff1614610add576040517f08c379a0000000000000000000000000000000000000000000000000000000008152600401610ad490611fc6565b60405180910390fd5b600060076004015411610b25576040517f08c379a0000000000000000000000000000000000000000000000000000000008152600401610b1c90612216565b60405180910390fd5b600073ffffffffffffffffffffffffffffffffffffffff16610b4561148d565b73ffffffffffffffffffffffffffffffffffffffff1603610b9b576040517f08c379a0000000000000000000000000000000000000000000000000000000008152600401610b92906122a8565b60405180910390fd5b610bae610ba661148d565b6000836118de565b6000600d6000610bbc61148d565b73ffffffffffffffffffffffffffffffffffffffff1673ffffffffffffffffffffffffffffffffffffffff16815260200190815260200160002054905081811015610c3c576040517f08c379a0000000000000000000000000000000000000000000000000000000008152600401610c339061233a565b60405180910390fd5b8181610c489190611f46565b600d6000610c5461148d565b73ffffffffffffffffffffffffffffffffffffffff1673ffffffffffffffffffffffffffffffffffffffff168152602001908152602001600020819055508160046000828254610ca49190611f46565b92505081905550600073ffffffffffffffffffffffffffffffffffffffff16610ccb61148d565b73ffffffffffffffffffffffffffffffffffffffff167fddf252ad1be2c89b69c2b068fc378daa952ba7f163c4a11628f55a4df523b3ef84604051610d109190611bef565b60405180910390a35050565b60055481565b60008060076003015411610d6b576040517f08c379a0000000000000000000000000000000000000000000000000000000008152600401610d6290612032565b60405180910390fd5b600660009054906101000a900460ff16905090565b6000600d60008373ffffffffffffffffffffffffffffffffffffffff1673ffffffffffffffffffffffffffffffffffffffff168152602001908152602001600020549050919050565b60008054906101000a900473ffffffffffffffffffffffffffffffffffffffff1681565b606060028054610dfc90611e54565b80601f0160208091040260200160405190810160405280929190818152602001828054610e2890611e54565b8015610e755780601f10610e4a57610100808354040283529160200191610e75565b820191906000526020600020905b815481529060010190602001808311610e5857829003601f168201915b5050505050905090565b600080600e6000610e8e61148d565b73ffffffffffffffffffffffffffffffffffffffff1673ffffffffffffffffffffffffffffffffffffffff16815260200190815260200160002060008573ffffffffffffffffffffffffffffffffffffffff1673ffffffffffffffffffffffffffffffffffffffff16815260200190815260200160002054905082811015610f4b576040517f08c379a0000000000000000000000000000000000000000000000000000000008152600401610f42906123cc565b60405180910390fd5b610f68610f5661148d565b858584610f639190611f46565b611495565b600191505092915050565b6000806007600101541115610ffd576000600760010154606484610f97919061241b565b610fa1919061244c565b9050610fc0610fae61148d565b858386610fbb9190611f46565b61165e565b610ff7610fcb61148d565b600760000160009054906101000a900473ffffffffffffffffffffffffffffffffffffffff168361165e565b50611010565b61100f61100861148d565b848461165e565b5b6001905092915050565b61102261148d565b73ffffffffffffffffffffffffffffffffffffffff1660008054906101000a900473ffffffffffffffffffffffffffffffffffffffff1673ffffffffffffffffffffffffffffffffffffffff16146110af576040517f08c379a00000000000000000000000000000000000000000000000000000000081526004016110a690611fc6565b60405180910390fd5b6000600760050154116110f7576040517f08c379a00000000000000000000000000000000000000000000000000000000081526004016110ee906124da565b60405180910390fd5b80600f60008473ffffffffffffffffffffffffffffffffffffffff1673ffffffffffffffffffffffffffffffffffffffff16815260200190815260200160002060006101000a81548160ff0219169083151502179055508173ffffffffffffffffffffffffffffffffffffffff167f6a12b3df6cba4203bd7fd06b816789f87de8c594299aed5717ae070fac781bac826040516111949190611bc5565b60405180910390a25050565b60078060000160009054906101000a900473ffffffffffffffffffffffffffffffffffffffff16908060010154908060020154908060030154908060040154908060050154905086565b6000600e60008473ffffffffffffffffffffffffffffffffffffffff1673ffffffffffffffffffffffffffffffffffffffff16815260200190815260200160002060008373ffffffffffffffffffffffffffffffffffffffff1673ffffffffffffffffffffffffffffffffffffffff16815260200190815260200160002054905092915050565b600080600760050154116112ba576040517f08c379a00000000000000000000000000000000000000000000000000000000081526004016112b1906124da565b60405180910390fd5b600f60008373ffffffffffffffffffffffffffffffffffffffff1673ffffffffffffffffffffffffffffffffffffffff16815260200190815260200160002060009054906101000a900460ff169050919050565b61131661148d565b73ffffffffffffffffffffffffffffffffffffffff1660008054906101000a900473ffffffffffffffffffffffffffffffffffffffff1673ffffffffffffffffffffffffffffffffffffffff16146113a3576040517f08c379a000000000000000000000000000000000000000000000000000000000815260040161139a90611fc6565b60405180910390fd5b6000600760030154116113eb576040517f08c379a00000000000000000000000000000000000000000000000000000000081526004016113e290612032565b60405180910390fd5b6113f3610d22565b611432576040517f08c379a000000000000000000000000000000000000000000000000000000000815260040161142990612546565b60405180910390fd5b6000600660006101000a81548160ff0219169083151502179055507f5db9ee0a495bf2e6ff9c91a7834c1ba4fdd244a5e8aa4e537bd38aeae4b073aa61147661148d565b6040516114839190611cfd565b60405180910390a1565b600033905090565b600073ffffffffffffffffffffffffffffffffffffffff168373ffffffffffffffffffffffffffffffffffffffff1603611504576040517f08c379a00000000000000000000000000000000000000000000000000000000081526004016114fb906125d8565b60405180910390fd5b600073ffffffffffffffffffffffffffffffffffffffff168273ffffffffffffffffffffffffffffffffffffffff1603611573576040517f08c379a000000000000000000000000000000000000000000000000000000000815260040161156a9061266a565b60405180910390fd5b80600e60008573ffffffffffffffffffffffffffffffffffffffff1673ffffffffffffffffffffffffffffffffffffffff16815260200190815260200160002060008473ffffffffffffffffffffffffffffffffffffffff1673ffffffffffffffffffffffffffffffffffffffff168152602001908152602001600020819055508173ffffffffffffffffffffffffffffffffffffffff168373ffffffffffffffffffffffffffffffffffffffff167f8c5be1e5ebec7d5bd14f71427d1e84f3dd0314c0f7b2291e5b200ac8c7c3b925836040516116519190611bef565b60405180910390a3505050565b600073ffffffffffffffffffffffffffffffffffffffff168373ffffffffffffffffffffffffffffffffffffffff16036116cd576040517f08c379a00000000000000000000000000000000000000000000000000000000081526004016116c4906126fc565b60405180910390fd5b600073ffffffffffffffffffffffffffffffffffffffff168273ffffffffffffffffffffffffffffffffffffffff160361173c576040517f08c379a00000000000000000000000000000000000000000000000000000000081526004016117339061278e565b60405180910390fd5b6117478383836118de565b6000600d60008573ffffffffffffffffffffffffffffffffffffffff1673ffffffffffffffffffffffffffffffffffffffff168152602001908152602001600020549050818110156117ce576040517f08c379a00000000000000000000000000000000000000000000000000000000081526004016117c590612820565b60405180910390fd5b81816117da9190611f46565b600d60008673ffffffffffffffffffffffffffffffffffffffff1673ffffffffffffffffffffffffffffffffffffffff1681526020019081526020016000208190555081600d60008573ffffffffffffffffffffffffffffffffffffffff1673ffffffffffffffffffffffffffffffffffffffff168152602001908152602001600020600082825461186c91906120be565b925050819055508273ffffffffffffffffffffffffffffffffffffffff168473ffffffffffffffffffffffffffffffffffffffff167fddf252ad1be2c89b69c2b068fc378daa952ba7f163c4a11628f55a4df523b3ef846040516118d09190611bef565b60405180910390a350505050565b6000811015611922576040517f08c379a00000000000000000000000000000000000000000000000000000000081526004016119199061278e565b60405180910390fd5b600060076005015411156119c35761193983611271565b15611979576040517f08c379a0000000000000000000000000000000000000000000000000000000008152600401611970906128b2565b60405180910390fd5b61198282611271565b156119c2576040517f08c379a00000000000000000000000000000000000000000000000000000000081526004016119b9906128b2565b60405180910390fd5b5b60006007600301541115611a1a576119d9610d22565b15611a19576040517f08c379a0000000000000000000000000000000000000000000000000000000008152600401611a109061291e565b60405180910390fd5b5b505050565b600081519050919050565b600082825260208201905092915050565b60005b83811015611a59578082015181840152602081019050611a3e565b60008484015250505050565b6000601f19601f8301169050919050565b6000611a8182611a1f565b611a8b8185611a2a565b9350611a9b818560208601611a3b565b611aa481611a65565b840191505092915050565b60006020820190508181036000830152611ac98184611a76565b905092915050565b600080fd5b600073ffffffffffffffffffffffffffffffffffffffff82169050919050565b6000611b0182611ad6565b9050919050565b611b1181611af6565b8114611b1c57600080fd5b50565b600081359050611b2e81611b08565b92915050565b6000819050919050565b611b4781611b34565b8114611b5257600080fd5b50565b600081359050611b6481611b3e565b92915050565b60008060408385031215611b8157611b80611ad1565b5b6000611b8f85828601611b1f565b9250506020611ba085828601611b55565b9150509250929050565b60008115159050919050565b611bbf81611baa565b82525050565b6000602082019050611bda6000830184611bb6565b92915050565b611be981611b34565b82525050565b6000602082019050611c046000830184611be0565b92915050565b600080600060608486031215611c2357611c22611ad1565b5b6000611c3186828701611b1f565b9350506020611c4286828701611b1f565b9250506040611c5386828701611b55565b9150509250925092565b600060ff82169050919050565b611c7381611c5d565b82525050565b6000602082019050611c8e6000830184611c6a565b92915050565b600060208284031215611caa57611ca9611ad1565b5b6000611cb884828501611b55565b91505092915050565b600060208284031215611cd757611cd6611ad1565b5b6000611ce584828501611b1f565b91505092915050565b611cf781611af6565b82525050565b6000602082019050611d126000830184611cee565b92915050565b611d2181611baa565b8114611d2c57600080fd5b50565b600081359050611d3e81611d18565b92915050565b60008060408385031215611d5b57611d5a611ad1565b5b6000611d6985828601611b1f565b9250506020611d7a85828601611d2f565b9150509250929050565b600060c082019050611d996000830189611cee565b611da66020830188611be0565b611db36040830187611be0565b611dc06060830186611be0565b611dcd6080830185611be0565b611dda60a0830184611be0565b979650505050505050565b60008060408385031215611dfc57611dfb611ad1565b5b6000611e0a85828601611b1f565b9250506020611e1b85828601611b1f565b9150509250929050565b7f4e487b7100000000000000000000000000000000000000000000000000000000600052602260045260246000fd5b60006002820490506001821680611e6c57607f821691505b602082108103611e7f57611e7e611e25565b5b50919050565b7f45524332303a207472616e7366657220616d6f756e742065786365656473206160008201527f6c6c6f77616e6365000000000000000000000000000000000000000000000000602082015250565b6000611ee1602883611a2a565b9150611eec82611e85565b604082019050919050565b60006020820190508181036000830152611f1081611ed4565b9050919050565b7f4e487b7100000000000000000000000000000000000000000000000000000000600052601160045260246000fd5b6000611f5182611b34565b9150611f5c83611b34565b9250828203905081811115611f7457611f73611f17565b5b92915050565b7f4f776e61626c653a2063616c6c6572206973206e6f7420746865206f776e6572600082015250565b6000611fb0602083611a2a565b9150611fbb82611f7a565b602082019050919050565b60006020820190508181036000830152611fdf81611fa3565b9050919050565b7f5061757361626c653a2044697361626c65642050617573650000000000000000600082015250565b600061201c601883611a2a565b915061202782611fe6565b602082019050919050565b6000602082019050818103600083015261204b8161200f565b9050919050565b7f5061757361626c653a2070617573656400000000000000000000000000000000600082015250565b6000612088601083611a2a565b915061209382612052565b602082019050919050565b600060208201905081810360008301526120b78161207b565b9050919050565b60006120c982611b34565b91506120d483611b34565b92508282019050808211156120ec576120eb611f17565b5b92915050565b7f4d696e7461626c653a2044697361626c6564204d696e74000000000000000000600082015250565b6000612128601783611a2a565b9150612133826120f2565b602082019050919050565b600060208201905081810360008301526121578161211b565b9050919050565b7f45524332303a206d696e7420746f20746865207a65726f206164647265737300600082015250565b6000612194601f83611a2a565b915061219f8261215e565b602082019050919050565b600060208201905081810360008301526121c381612187565b9050919050565b7f4275726e61626c653a2044697361626c6564204275726e000000000000000000600082015250565b6000612200601783611a2a565b915061220b826121ca565b602082019050919050565b6000602082019050818103600083015261222f816121f3565b9050919050565b7f45524332303a206275726e2066726f6d20746865207a65726f2061646472657360008201527f7300000000000000000000000000000000000000000000000000000000000000602082015250565b6000612292602183611a2a565b915061229d82612236565b604082019050919050565b600060208201905081810360008301526122c181612285565b9050919050565b7f45524332303a206275726e20616d6f756e7420657863656564732062616c616e60008201527f6365000000000000000000000000000000000000000000000000000000000000602082015250565b6000612324602283611a2a565b915061232f826122c8565b604082019050919050565b6000602082019050818103600083015261235381612317565b9050919050565b7f45524332303a2064656372656173656420616c6c6f77616e63652062656c6f7760008201527f207a65726f000000000000000000000000000000000000000000000000000000602082015250565b60006123b6602583611a2a565b91506123c18261235a565b604082019050919050565b600060208201905081810360008301526123e5816123a9565b9050919050565b7f4e487b7100000000000000000000000000000000000000000000000000000000600052601260045260246000fd5b600061242682611b34565b915061243183611b34565b925082612441576124406123ec565b5b828204905092915050565b600061245782611b34565b915061246283611b34565b925082820261247081611b34565b9150828204841483151761248757612486611f17565b5b5092915050565b7f426c61636b6c6973743a2044697361626c656420426c61636b6c697374000000600082015250565b60006124c4601d83611a2a565b91506124cf8261248e565b602082019050919050565b600060208201905081810360008301526124f3816124b7565b9050919050565b7f5061757361626c653a206e6f7420706175736564000000000000000000000000600082015250565b6000612530601483611a2a565b915061253b826124fa565b602082019050919050565b6000602082019050818103600083015261255f81612523565b9050919050565b7f45524332303a20617070726f76652066726f6d20746865207a65726f2061646460008201527f7265737300000000000000000000000000000000000000000000000000000000602082015250565b60006125c2602483611a2a565b91506125cd82612566565b604082019050919050565b600060208201905081810360008301526125f1816125b5565b9050919050565b7f45524332303a20617070726f766520746f20746865207a65726f20616464726560008201527f7373000000000000000000000000000000000000000000000000000000000000602082015250565b6000612654602283611a2a565b915061265f826125f8565b604082019050919050565b6000602082019050818103600083015261268381612647565b9050919050565b7f45524332303a207472616e736665722066726f6d20746865207a65726f20616460008201527f6472657373000000000000000000000000000000000000000000000000000000602082015250565b60006126e6602583611a2a565b91506126f18261268a565b604082019050919050565b60006020820190508181036000830152612715816126d9565b9050919050565b7f45524332303a207472616e7366657220746f20746865207a65726f206164647260008201527f6573730000000000000000000000000000000000000000000000000000000000602082015250565b6000612778602383611a2a565b91506127838261271c565b604082019050919050565b600060208201905081810360008301526127a78161276b565b9050919050565b7f45524332303a207472616e7366657220616d6f756e742065786365656473206260008201527f616c616e63650000000000000000000000000000000000000000000000000000602082015250565b600061280a602683611a2a565b9150612815826127ae565b604082019050919050565b60006020820190508181036000830152612839816127fd565b9050919050565b7f546f6b656e207472616e7366657220726566757365642e20526563656976657260008201527f206973206f6e20626c61636b6c69737400000000000000000000000000000000602082015250565b600061289c603083611a2a565b91506128a782612840565b604082019050919050565b600060208201905081810360008301526128cb8161288f565b9050919050565b7f546f6b656e206973205061757365642e00000000000000000000000000000000600082015250565b6000612908601083611a2a565b9150612913826128d2565b602082019050919050565b60006020820190508181036000830152612937816128fb565b905091905056fea264697066735822122037f1905206ab91135bf7b92408d9891776878f951973a934a5dd4121e27a6b4164736f6c63430008140033a26469706673582212209fe32221185459867e03193b7bc65f33bd269e6fd00d3b43fbd2096138b132c564736f6c63430008140033",
  "linkReferences": {},
  "deployedLinkReferences": {}
}