{
  "_format": "hh-sol-artifact-1",
  "contractName": "CreateManage",
  "sourceName": "contracts/CreateToken/Meter/contracts/CreateToken/Meter/CreateManage.sol",
  "abi": [
    {
      "inputs": [
        {
          "internalType": "address",
          "name": "_owner",
          "type": "address"
        },
        {
          "internalType": "contract StandardTokenFactory",
          "name": "_standardTokenFactory",
          "type": "address"
        }
      ],
      "stateMutability": "nonpayable",
      "type": "constructor"
    },
    {
      "anonymous": false,
      "inputs": [
        {
          "indexed": false,
          "internalType": "address",
          "name": "tokenAddress",
          "type": "address"
        }
      ],
      "name": "CreateStandardSuccess",
      "type": "event"
    },
    {
      "anonymous": false,
      "inputs": [
        {
          "indexed": false,
          "internalType": "uint256",
          "name": "value",
          "type": "uint256"
        }
      ],
      "name": "OwnerWithdrawSuccess",
      "type": "event"
    },
    {
      "anonymous": false,
      "inputs": [],
      "name": "SetFeeSuccess",
      "type": "event"
    },
    {
      "anonymous": false,
      "inputs": [
        {
          "indexed": false,
          "internalType": "address",
          "name": "tokenAddress",
          "type": "address"
        }
      ],
      "name": "createLiquditySuccess",
      "type": "event"
    },
    {
      "anonymous": false,
      "inputs": [
        {
          "indexed": false,
          "internalType": "address",
          "name": "ownerAddress",
          "type": "address"
        }
      ],
      "name": "setOwnerSucess",
      "type": "event"
    },
    {
      "inputs": [
        {
          "internalType": "address",
          "name": "creator_",
          "type": "address"
        },
        {
          "internalType": "string",
          "name": "name_",
          "type": "string"
        },
        {
          "internalType": "string",
          "name": "symbol_",
          "type": "string"
        },
        {
          "internalType": "uint8",
          "name": "decimals_",
          "type": "uint8"
        },
        {
          "internalType": "uint256",
          "name": "tokenSupply_",
          "type": "uint256"
        },
        {
          "components": [
            {
              "internalType": "address",
              "name": "taxaddress",
              "type": "address"
            },
            {
              "internalType": "uint256",
              "name": "taxamount",
              "type": "uint256"
            },
            {
              "internalType": "uint256",
              "name": "mintflag",
              "type": "uint256"
            },
            {
              "internalType": "uint256",
              "name": "pauseflag",
              "type": "uint256"
            },
            {
              "internalType": "uint256",
              "name": "burnflag",
              "type": "uint256"
            },
            {
              "internalType": "uint256",
              "name": "blacklistflag",
              "type": "uint256"
            }
          ],
          "internalType": "struct SharedStructs.status",
          "name": "_state",
          "type": "tuple"
        }
      ],
      "name": "createStandard",
      "outputs": [],
      "stateMutability": "payable",
      "type": "function"
    },
    {
      "inputs": [],
      "name": "fee",
      "outputs": [
        {
          "internalType": "uint256",
          "name": "",
          "type": "uint256"
        }
      ],
      "stateMutability": "view",
      "type": "function"
    },
    {
      "inputs": [],
      "name": "getBalance",
      "outputs": [
        {
          "internalType": "uint256",
          "name": "",
          "type": "uint256"
        }
      ],
      "stateMutability": "view",
      "type": "function"
    },
    {
      "inputs": [
        {
          "internalType": "address",
          "name": "creater",
          "type": "address"
        }
      ],
      "name": "getCreatedToken",
      "outputs": [
        {
          "internalType": "address[]",
          "name": "",
          "type": "address[]"
        }
      ],
      "stateMutability": "view",
      "type": "function"
    },
    {
      "inputs": [],
      "name": "owner",
      "outputs": [
        {
          "internalType": "address",
          "name": "",
          "type": "address"
        }
      ],
      "stateMutability": "view",
      "type": "function"
    },
    {
      "inputs": [
        {
          "internalType": "uint256",
          "name": "_fee",
          "type": "uint256"
        }
      ],
      "name": "setFee",
      "outputs": [],
      "stateMutability": "nonpayable",
      "type": "function"
    },
    {
      "inputs": [
        {
          "internalType": "address",
          "name": "newowner",
          "type": "address"
        }
      ],
      "name": "setOwner",
      "outputs": [],
      "stateMutability": "nonpayable",
      "type": "function"
    }
  ],
  "bytecode": "0x60806040523480156200001157600080fd5b506040516200102e3803806200102e833981810160405281019062000037919062000179565b816000806101000a81548173ffffffffffffffffffffffffffffffffffffffff021916908373ffffffffffffffffffffffffffffffffffffffff160217905550620f424060028190555080600360006101000a81548173ffffffffffffffffffffffffffffffffffffffff021916908373ffffffffffffffffffffffffffffffffffffffff1602179055505050620001c0565b600080fd5b600073ffffffffffffffffffffffffffffffffffffffff82169050919050565b6000620000fc82620000cf565b9050919050565b6200010e81620000ef565b81146200011a57600080fd5b50565b6000815190506200012e8162000103565b92915050565b60006200014182620000ef565b9050919050565b620001538162000134565b81146200015f57600080fd5b50565b600081519050620001738162000148565b92915050565b60008060408385031215620001935762000192620000ca565b5b6000620001a3858286016200011d565b9250506020620001b68582860162000162565b9150509250929050565b610e5e80620001d06000396000f3fe6080604052600436106100705760003560e01c806369fe0e2d1161004e57806369fe0e2d14610106578063701680b61461012f5780638da5cb5b1461014b578063ddca3f431461017657610070565b806312065fe01461007557806313af4035146100a057806336646180146100c9575b600080fd5b34801561008157600080fd5b5061008a6101a1565b6040516100979190610656565b60405180910390f35b3480156100ac57600080fd5b506100c760048036038101906100c291906106e3565b6101a9565b005b3480156100d557600080fd5b506100f060048036038101906100eb91906106e3565b6102d1565b6040516100fd91906107ce565b60405180910390f35b34801561011257600080fd5b5061012d6004803603810190610128919061081c565b61039e565b005b61014960048036038101906101449190610a6d565b6103d4565b005b34801561015757600080fd5b50610160610613565b60405161016d9190610b42565b60405180910390f35b34801561018257600080fd5b5061018b610637565b6040516101989190610656565b60405180910390f35b600047905090565b60008054906101000a900473ffffffffffffffffffffffffffffffffffffffff1673ffffffffffffffffffffffffffffffffffffffff163373ffffffffffffffffffffffffffffffffffffffff1614610237576040517f08c379a000000000000000000000000000000000000000000000000000000000815260040161022e90610bba565b60405180910390fd5b806000806101000a81548173ffffffffffffffffffffffffffffffffffffffff021916908373ffffffffffffffffffffffffffffffffffffffff1602179055507f2ad00119c52384b34359201efdeae8e4bcc95b285f433b645adb782ef8ffb36760008054906101000a900473ffffffffffffffffffffffffffffffffffffffff166040516102c69190610b42565b60405180910390a150565b6060600160008373ffffffffffffffffffffffffffffffffffffffff1673ffffffffffffffffffffffffffffffffffffffff16815260200190815260200160002080548060200260200160405190810160405280929190818152602001828054801561039257602002820191906000526020600020905b8160009054906101000a900473ffffffffffffffffffffffffffffffffffffffff1673ffffffffffffffffffffffffffffffffffffffff1681526020019060010190808311610348575b50505050509050919050565b806002819055507f0a4987adc1364e3702695bde0b67f8b845289f283f5c7d8e223b3682c030ceb460405160405180910390a150565b600254341015610419576040517f08c379a000000000000000000000000000000000000000000000000000000000815260040161041090610c26565b60405180910390fd5b6000600360009054906101000a900473ffffffffffffffffffffffffffffffffffffffff1673ffffffffffffffffffffffffffffffffffffffff1663706fb2ee8888888888886040518763ffffffff1660e01b815260040161048096959493929190610d4d565b6020604051808303816000875af115801561049f573d6000803e3d6000fd5b505050506040513d601f19601f820116820180604052508101906104c39190610dfb565b9050600160008873ffffffffffffffffffffffffffffffffffffffff1673ffffffffffffffffffffffffffffffffffffffff168152602001908152602001600020819080600181540180825580915050600190039060005260206000200160009091909190916101000a81548173ffffffffffffffffffffffffffffffffffffffff021916908373ffffffffffffffffffffffffffffffffffffffff16021790555060008060009054906101000a900473ffffffffffffffffffffffffffffffffffffffff1690508073ffffffffffffffffffffffffffffffffffffffff166108fc349081150290604051600060405180830381858888f193505050501580156105d1573d6000803e3d6000fd5b507f11d95a3a35d0b4b9b14fd17216057aeefef842668d998184cb9f2e114a467a91826040516106019190610b42565b60405180910390a15050505050505050565b60008054906101000a900473ffffffffffffffffffffffffffffffffffffffff1681565b60025481565b6000819050919050565b6106508161063d565b82525050565b600060208201905061066b6000830184610647565b92915050565b6000604051905090565b600080fd5b600080fd5b600073ffffffffffffffffffffffffffffffffffffffff82169050919050565b60006106b082610685565b9050919050565b6106c0816106a5565b81146106cb57600080fd5b50565b6000813590506106dd816106b7565b92915050565b6000602082840312156106f9576106f861067b565b5b6000610707848285016106ce565b91505092915050565b600081519050919050565b600082825260208201905092915050565b6000819050602082019050919050565b610745816106a5565b82525050565b6000610757838361073c565b60208301905092915050565b6000602082019050919050565b600061077b82610710565b610785818561071b565b93506107908361072c565b8060005b838110156107c15781516107a8888261074b565b97506107b383610763565b925050600181019050610794565b5085935050505092915050565b600060208201905081810360008301526107e88184610770565b905092915050565b6107f98161063d565b811461080457600080fd5b50565b600081359050610816816107f0565b92915050565b6000602082840312156108325761083161067b565b5b600061084084828501610807565b91505092915050565b600080fd5b600080fd5b6000601f19601f8301169050919050565b7f4e487b7100000000000000000000000000000000000000000000000000000000600052604160045260246000fd5b61089c82610853565b810181811067ffffffffffffffff821117156108bb576108ba610864565b5b80604052505050565b60006108ce610671565b90506108da8282610893565b919050565b600067ffffffffffffffff8211156108fa576108f9610864565b5b61090382610853565b9050602081019050919050565b82818337600083830152505050565b600061093261092d846108df565b6108c4565b90508281526020810184848401111561094e5761094d61084e565b5b610959848285610910565b509392505050565b600082601f83011261097657610975610849565b5b813561098684826020860161091f565b91505092915050565b600060ff82169050919050565b6109a58161098f565b81146109b057600080fd5b50565b6000813590506109c28161099c565b92915050565b600080fd5b600060c082840312156109e3576109e26109c8565b5b6109ed60c06108c4565b905060006109fd848285016106ce565b6000830152506020610a1184828501610807565b6020830152506040610a2584828501610807565b6040830152506060610a3984828501610807565b6060830152506080610a4d84828501610807565b60808301525060a0610a6184828501610807565b60a08301525092915050565b6000806000806000806101608789031215610a8b57610a8a61067b565b5b6000610a9989828a016106ce565b965050602087013567ffffffffffffffff811115610aba57610ab9610680565b5b610ac689828a01610961565b955050604087013567ffffffffffffffff811115610ae757610ae6610680565b5b610af389828a01610961565b9450506060610b0489828a016109b3565b9350506080610b1589828a01610807565b92505060a0610b2689828a016109cd565b9150509295509295509295565b610b3c816106a5565b82525050565b6000602082019050610b576000830184610b33565b92915050565b600082825260208201905092915050565b7f4f6e6c79206d616e616765722063616e20646f20697400000000000000000000600082015250565b6000610ba4601683610b5d565b9150610baf82610b6e565b602082019050919050565b60006020820190508181036000830152610bd381610b97565b9050919050565b7f42616c616e636520697320696e737566666963656e7400000000000000000000600082015250565b6000610c10601683610b5d565b9150610c1b82610bda565b602082019050919050565b60006020820190508181036000830152610c3f81610c03565b9050919050565b600081519050919050565b60005b83811015610c6f578082015181840152602081019050610c54565b60008484015250505050565b6000610c8682610c46565b610c908185610b5d565b9350610ca0818560208601610c51565b610ca981610853565b840191505092915050565b610cbd8161098f565b82525050565b610ccc8161063d565b82525050565b60c082016000820151610ce8600085018261073c565b506020820151610cfb6020850182610cc3565b506040820151610d0e6040850182610cc3565b506060820151610d216060850182610cc3565b506080820151610d346080850182610cc3565b5060a0820151610d4760a0850182610cc3565b50505050565b600061016082019050610d636000830189610b33565b8181036020830152610d758188610c7b565b90508181036040830152610d898187610c7b565b9050610d986060830186610cb4565b610da56080830185610647565b610db260a0830184610cd2565b979650505050505050565b6000610dc8826106a5565b9050919050565b610dd881610dbd565b8114610de357600080fd5b50565b600081519050610df581610dcf565b92915050565b600060208284031215610e1157610e1061067b565b5b6000610e1f84828501610de6565b9150509291505056fea26469706673582212206c76b45bb6de4611062493d4900f200354be92004aab09db42911c1a32d6135064736f6c63430008140033",
  "linkReferences": {},
  "deployedLinkReferences": {}
}