{
  "_format": "hh-sol-artifact-1",
  "contractName": "CreateManage",
  "sourceName": "contracts/CreateToken/Meter/contracts/CreateToken/Meter/CreateVerify.sol",
  "abi": [
    {
      "inputs": [
        {
          "internalType": "address",
          "name": "_owner",
          "type": "address"
        },
        {
          "internalType": "address",
          "name": "router_Addr",
          "type": "address"
        },
        {
          "internalType": "contract StandardTokenFactory",
          "name": "_standardTokenFactory",
          "type": "address"
        },
        {
          "internalType": "contract LiquidityTokenFactory",
          "name": "_liquidityTokenFactory",
          "type": "address"
        }
      ],
      "stateMutability": "nonpayable",
      "type": "constructor"
    },
    {
      "anonymous": false,
      "inputs": [
        {
          "indexed": false,
          "internalType": "address",
          "name": "",
          "type": "address"
        }
      ],
      "name": "CreateStandardSuccess",
      "type": "event"
    },
    {
      "anonymous": false,
      "inputs": [
        {
          "indexed": false,
          "internalType": "uint256",
          "name": "value",
          "type": "uint256"
        }
      ],
      "name": "OwnerWithdrawSuccess",
      "type": "event"
    },
    {
      "anonymous": false,
      "inputs": [],
      "name": "SetFeeSuccess",
      "type": "event"
    },
    {
      "anonymous": false,
      "inputs": [
        {
          "indexed": false,
          "internalType": "address",
          "name": "",
          "type": "address"
        }
      ],
      "name": "createLiquditySuccess",
      "type": "event"
    },
    {
      "anonymous": false,
      "inputs": [
        {
          "indexed": false,
          "internalType": "address",
          "name": "",
          "type": "address"
        }
      ],
      "name": "setOwnerSucess",
      "type": "event"
    },
    {
      "inputs": [
        {
          "internalType": "address",
          "name": "creator_",
          "type": "address"
        },
        {
          "internalType": "address",
          "name": "reciever",
          "type": "address"
        },
        {
          "internalType": "string",
          "name": "name_",
          "type": "string"
        },
        {
          "internalType": "string",
          "name": "symbol_",
          "type": "string"
        },
        {
          "internalType": "uint8",
          "name": "decimal_",
          "type": "uint8"
        },
        {
          "internalType": "uint256",
          "name": "supply",
          "type": "uint256"
        },
        {
          "internalType": "uint256",
          "name": "settingflag",
          "type": "uint256"
        },
        {
          "internalType": "uint256[4]",
          "name": "fees",
          "type": "uint256[4]"
        },
        {
          "components": [
            {
              "internalType": "address",
              "name": "taxaddress",
              "type": "address"
            },
            {
              "internalType": "uint256",
              "name": "taxamount",
              "type": "uint256"
            },
            {
              "internalType": "uint256",
              "name": "mintflag",
              "type": "uint256"
            },
            {
              "internalType": "uint256",
              "name": "pauseflag",
              "type": "uint256"
            },
            {
              "internalType": "uint256",
              "name": "burnflag",
              "type": "uint256"
            },
            {
              "internalType": "uint256",
              "name": "blacklistflag",
              "type": "uint256"
            }
          ],
          "internalType": "struct SharedStructs.status",
          "name": "_state",
          "type": "tuple"
        }
      ],
      "name": "createLiquidity",
      "outputs": [],
      "stateMutability": "payable",
      "type": "function"
    },
    {
      "inputs": [
        {
          "internalType": "address",
          "name": "creator_",
          "type": "address"
        },
        {
          "internalType": "string",
          "name": "name_",
          "type": "string"
        },
        {
          "internalType": "string",
          "name": "symbol_",
          "type": "string"
        },
        {
          "internalType": "uint8",
          "name": "decimals_",
          "type": "uint8"
        },
        {
          "internalType": "uint256",
          "name": "tokenSupply_",
          "type": "uint256"
        },
        {
          "components": [
            {
              "internalType": "address",
              "name": "taxaddress",
              "type": "address"
            },
            {
              "internalType": "uint256",
              "name": "taxamount",
              "type": "uint256"
            },
            {
              "internalType": "uint256",
              "name": "mintflag",
              "type": "uint256"
            },
            {
              "internalType": "uint256",
              "name": "pauseflag",
              "type": "uint256"
            },
            {
              "internalType": "uint256",
              "name": "burnflag",
              "type": "uint256"
            },
            {
              "internalType": "uint256",
              "name": "blacklistflag",
              "type": "uint256"
            }
          ],
          "internalType": "struct SharedStructs.status",
          "name": "_state",
          "type": "tuple"
        }
      ],
      "name": "createStandard",
      "outputs": [],
      "stateMutability": "payable",
      "type": "function"
    },
    {
      "inputs": [],
      "name": "fee",
      "outputs": [
        {
          "internalType": "uint256",
          "name": "",
          "type": "uint256"
        }
      ],
      "stateMutability": "view",
      "type": "function"
    },
    {
      "inputs": [],
      "name": "getBalance",
      "outputs": [
        {
          "internalType": "uint256",
          "name": "",
          "type": "uint256"
        }
      ],
      "stateMutability": "view",
      "type": "function"
    },
    {
      "inputs": [
        {
          "internalType": "address",
          "name": "creater",
          "type": "address"
        }
      ],
      "name": "getCreatedToken",
      "outputs": [
        {
          "internalType": "address[]",
          "name": "",
          "type": "address[]"
        }
      ],
      "stateMutability": "view",
      "type": "function"
    },
    {
      "inputs": [],
      "name": "owner",
      "outputs": [
        {
          "internalType": "address",
          "name": "",
          "type": "address"
        }
      ],
      "stateMutability": "view",
      "type": "function"
    },
    {
      "inputs": [
        {
          "internalType": "uint256",
          "name": "_fee",
          "type": "uint256"
        }
      ],
      "name": "setFee",
      "outputs": [],
      "stateMutability": "nonpayable",
      "type": "function"
    },
    {
      "inputs": [
        {
          "internalType": "address",
          "name": "newowner",
          "type": "address"
        }
      ],
      "name": "setOwner",
      "outputs": [],
      "stateMutability": "nonpayable",
      "type": "function"
    }
  ],
  "bytecode": "0x60806040523480156200001157600080fd5b506040516200181e3803806200181e833981810160405281019062000037919062000247565b836000806101000a81548173ffffffffffffffffffffffffffffffffffffffff021916908373ffffffffffffffffffffffffffffffffffffffff160217905550678ac7230489e8000060038190555082600160006101000a81548173ffffffffffffffffffffffffffffffffffffffff021916908373ffffffffffffffffffffffffffffffffffffffff16021790555081600460006101000a81548173ffffffffffffffffffffffffffffffffffffffff021916908373ffffffffffffffffffffffffffffffffffffffff16021790555080600560006101000a81548173ffffffffffffffffffffffffffffffffffffffff021916908373ffffffffffffffffffffffffffffffffffffffff16021790555050505050620002b9565b600080fd5b600073ffffffffffffffffffffffffffffffffffffffff82169050919050565b6000620001858262000158565b9050919050565b620001978162000178565b8114620001a357600080fd5b50565b600081519050620001b7816200018c565b92915050565b6000620001ca8262000178565b9050919050565b620001dc81620001bd565b8114620001e857600080fd5b50565b600081519050620001fc81620001d1565b92915050565b60006200020f8262000178565b9050919050565b620002218162000202565b81146200022d57600080fd5b50565b600081519050620002418162000216565b92915050565b6000806000806080858703121562000264576200026362000153565b5b60006200027487828801620001a6565b94505060206200028787828801620001a6565b93505060406200029a87828801620001eb565b9250506060620002ad8782880162000230565b91505092959194509250565b61155580620002c96000396000f3fe60806040526004361061007b5760003560e01c8063701680b61161004e578063701680b61461013a5780638da5cb5b14610156578063c6649aee14610181578063ddca3f431461019d5761007b565b806312065fe01461008057806313af4035146100ab57806336646180146100d457806369fe0e2d14610111575b600080fd5b34801561008c57600080fd5b506100956101c8565b6040516100a291906109bb565b60405180910390f35b3480156100b757600080fd5b506100d260048036038101906100cd9190610a48565b6101d0565b005b3480156100e057600080fd5b506100fb60048036038101906100f69190610a48565b6102f8565b6040516101089190610b33565b60405180910390f35b34801561011d57600080fd5b5061013860048036038101906101339190610b81565b6103c5565b005b610154600480360381019061014f9190610dd2565b6103fb565b005b34801561016257600080fd5b5061016b61063a565b6040516101789190610ea7565b60405180910390f35b61019b60048036038101906101969190610f78565b61065e565b005b3480156101a957600080fd5b506101b261099c565b6040516101bf91906109bb565b60405180910390f35b600047905090565b60008054906101000a900473ffffffffffffffffffffffffffffffffffffffff1673ffffffffffffffffffffffffffffffffffffffff163373ffffffffffffffffffffffffffffffffffffffff161461025e576040517f08c379a0000000000000000000000000000000000000000000000000000000008152600401610255906110d7565b60405180910390fd5b806000806101000a81548173ffffffffffffffffffffffffffffffffffffffff021916908373ffffffffffffffffffffffffffffffffffffffff1602179055507f2ad00119c52384b34359201efdeae8e4bcc95b285f433b645adb782ef8ffb36760008054906101000a900473ffffffffffffffffffffffffffffffffffffffff166040516102ed9190610ea7565b60405180910390a150565b6060600260008373ffffffffffffffffffffffffffffffffffffffff1673ffffffffffffffffffffffffffffffffffffffff1681526020019081526020016000208054806020026020016040519081016040528092919081815260200182805480156103b957602002820191906000526020600020905b8160009054906101000a900473ffffffffffffffffffffffffffffffffffffffff1673ffffffffffffffffffffffffffffffffffffffff168152602001906001019080831161036f575b50505050509050919050565b806003819055507f0a4987adc1364e3702695bde0b67f8b845289f283f5c7d8e223b3682c030ceb460405160405180910390a150565b600354341015610440576040517f08c379a000000000000000000000000000000000000000000000000000000000815260040161043790611143565b60405180910390fd5b6000600460009054906101000a900473ffffffffffffffffffffffffffffffffffffffff1673ffffffffffffffffffffffffffffffffffffffff1663706fb2ee8888888888886040518763ffffffff1660e01b81526004016104a79695949392919061126a565b6020604051808303816000875af11580156104c6573d6000803e3d6000fd5b505050506040513d601f19601f820116820180604052508101906104ea9190611318565b9050600260008873ffffffffffffffffffffffffffffffffffffffff1673ffffffffffffffffffffffffffffffffffffffff168152602001908152602001600020819080600181540180825580915050600190039060005260206000200160009091909190916101000a81548173ffffffffffffffffffffffffffffffffffffffff021916908373ffffffffffffffffffffffffffffffffffffffff16021790555060008060009054906101000a900473ffffffffffffffffffffffffffffffffffffffff1690508073ffffffffffffffffffffffffffffffffffffffff166108fc349081150290604051600060405180830381858888f193505050501580156105f8573d6000803e3d6000fd5b507f11d95a3a35d0b4b9b14fd17216057aeefef842668d998184cb9f2e114a467a91826040516106289190610ea7565b60405180910390a15050505050505050565b60008054906101000a900473ffffffffffffffffffffffffffffffffffffffff1681565b6003543410156106a3576040517f08c379a000000000000000000000000000000000000000000000000000000000815260040161069a90611143565b60405180910390fd5b6000600560009054906101000a900473ffffffffffffffffffffffffffffffffffffffff1673ffffffffffffffffffffffffffffffffffffffff1663b304372d600160009054906101000a900473ffffffffffffffffffffffffffffffffffffffff168c8c8c8c8c8c6040518863ffffffff1660e01b815260040161072e9796959493929190611345565b6020604051808303816000875af115801561074d573d6000803e3d6000fd5b505050506040513d601f19601f820116820180604052508101906107719190611412565b90508073ffffffffffffffffffffffffffffffffffffffff166367d2465685856040518363ffffffff1660e01b81526004016107ae9291906114db565b600060405180830381600087803b1580156107c857600080fd5b505af11580156107dc573d6000803e3d6000fd5b505050508073ffffffffffffffffffffffffffffffffffffffff166307ce3bb6836040518263ffffffff1660e01b81526004016108199190611504565b600060405180830381600087803b15801561083357600080fd5b505af1158015610847573d6000803e3d6000fd5b50505050600260008b73ffffffffffffffffffffffffffffffffffffffff1673ffffffffffffffffffffffffffffffffffffffff168152602001908152602001600020819080600181540180825580915050600190039060005260206000200160009091909190916101000a81548173ffffffffffffffffffffffffffffffffffffffff021916908373ffffffffffffffffffffffffffffffffffffffff16021790555060008060009054906101000a900473ffffffffffffffffffffffffffffffffffffffff1690508073ffffffffffffffffffffffffffffffffffffffff166108fc349081150290604051600060405180830381858888f19350505050158015610957573d6000803e3d6000fd5b507fd38b5c5c827552bf78686fe20cff5da58946cbe6fab7a370a203e365ced42253826040516109879190610ea7565b60405180910390a15050505050505050505050565b60035481565b6000819050919050565b6109b5816109a2565b82525050565b60006020820190506109d060008301846109ac565b92915050565b6000604051905090565b600080fd5b600080fd5b600073ffffffffffffffffffffffffffffffffffffffff82169050919050565b6000610a15826109ea565b9050919050565b610a2581610a0a565b8114610a3057600080fd5b50565b600081359050610a4281610a1c565b92915050565b600060208284031215610a5e57610a5d6109e0565b5b6000610a6c84828501610a33565b91505092915050565b600081519050919050565b600082825260208201905092915050565b6000819050602082019050919050565b610aaa81610a0a565b82525050565b6000610abc8383610aa1565b60208301905092915050565b6000602082019050919050565b6000610ae082610a75565b610aea8185610a80565b9350610af583610a91565b8060005b83811015610b26578151610b0d8882610ab0565b9750610b1883610ac8565b925050600181019050610af9565b5085935050505092915050565b60006020820190508181036000830152610b4d8184610ad5565b905092915050565b610b5e816109a2565b8114610b6957600080fd5b50565b600081359050610b7b81610b55565b92915050565b600060208284031215610b9757610b966109e0565b5b6000610ba584828501610b6c565b91505092915050565b600080fd5b600080fd5b6000601f19601f8301169050919050565b7f4e487b7100000000000000000000000000000000000000000000000000000000600052604160045260246000fd5b610c0182610bb8565b810181811067ffffffffffffffff82111715610c2057610c1f610bc9565b5b80604052505050565b6000610c336109d6565b9050610c3f8282610bf8565b919050565b600067ffffffffffffffff821115610c5f57610c5e610bc9565b5b610c6882610bb8565b9050602081019050919050565b82818337600083830152505050565b6000610c97610c9284610c44565b610c29565b905082815260208101848484011115610cb357610cb2610bb3565b5b610cbe848285610c75565b509392505050565b600082601f830112610cdb57610cda610bae565b5b8135610ceb848260208601610c84565b91505092915050565b600060ff82169050919050565b610d0a81610cf4565b8114610d1557600080fd5b50565b600081359050610d2781610d01565b92915050565b600080fd5b600060c08284031215610d4857610d47610d2d565b5b610d5260c0610c29565b90506000610d6284828501610a33565b6000830152506020610d7684828501610b6c565b6020830152506040610d8a84828501610b6c565b6040830152506060610d9e84828501610b6c565b6060830152506080610db284828501610b6c565b60808301525060a0610dc684828501610b6c565b60a08301525092915050565b6000806000806000806101608789031215610df057610def6109e0565b5b6000610dfe89828a01610a33565b965050602087013567ffffffffffffffff811115610e1f57610e1e6109e5565b5b610e2b89828a01610cc6565b955050604087013567ffffffffffffffff811115610e4c57610e4b6109e5565b5b610e5889828a01610cc6565b9450506060610e6989828a01610d18565b9350506080610e7a89828a01610b6c565b92505060a0610e8b89828a01610d32565b9150509295509295509295565b610ea181610a0a565b82525050565b6000602082019050610ebc6000830184610e98565b92915050565b600067ffffffffffffffff821115610edd57610edc610bc9565b5b602082029050919050565b600080fd5b6000610f00610efb84610ec2565b610c29565b90508060208402830185811115610f1a57610f19610ee8565b5b835b81811015610f435780610f2f8882610b6c565b845260208401935050602081019050610f1c565b5050509392505050565b600082601f830112610f6257610f61610bae565b5b6004610f6f848285610eed565b91505092915050565b60008060008060008060008060006102208a8c031215610f9b57610f9a6109e0565b5b6000610fa98c828d01610a33565b9950506020610fba8c828d01610a33565b98505060408a013567ffffffffffffffff811115610fdb57610fda6109e5565b5b610fe78c828d01610cc6565b97505060608a013567ffffffffffffffff811115611008576110076109e5565b5b6110148c828d01610cc6565b96505060806110258c828d01610d18565b95505060a06110368c828d01610b6c565b94505060c06110478c828d01610b6c565b93505060e06110588c828d01610f4d565b92505061016061106a8c828d01610d32565b9150509295985092959850929598565b600082825260208201905092915050565b7f4f6e6c79206d616e616765722063616e20646f20697400000000000000000000600082015250565b60006110c160168361107a565b91506110cc8261108b565b602082019050919050565b600060208201905081810360008301526110f0816110b4565b9050919050565b7f42616c616e636520697320696e737566666963656e7400000000000000000000600082015250565b600061112d60168361107a565b9150611138826110f7565b602082019050919050565b6000602082019050818103600083015261115c81611120565b9050919050565b600081519050919050565b60005b8381101561118c578082015181840152602081019050611171565b60008484015250505050565b60006111a382611163565b6111ad818561107a565b93506111bd81856020860161116e565b6111c681610bb8565b840191505092915050565b6111da81610cf4565b82525050565b6111e9816109a2565b82525050565b60c0820160008201516112056000850182610aa1565b50602082015161121860208501826111e0565b50604082015161122b60408501826111e0565b50606082015161123e60608501826111e0565b50608082015161125160808501826111e0565b5060a082015161126460a08501826111e0565b50505050565b6000610160820190506112806000830189610e98565b81810360208301526112928188611198565b905081810360408301526112a68187611198565b90506112b560608301866111d1565b6112c260808301856109ac565b6112cf60a08301846111ef565b979650505050505050565b60006112e582610a0a565b9050919050565b6112f5816112da565b811461130057600080fd5b50565b600081519050611312816112ec565b92915050565b60006020828403121561132e5761132d6109e0565b5b600061133c84828501611303565b91505092915050565b600060e08201905061135a600083018a610e98565b6113676020830189610e98565b6113746040830188610e98565b81810360608301526113868187611198565b9050818103608083015261139a8186611198565b90506113a960a08301856111d1565b6113b660c08301846109ac565b98975050505050505050565b60006113cd826109ea565b9050919050565b60006113df826113c2565b9050919050565b6113ef816113d4565b81146113fa57600080fd5b50565b60008151905061140c816113e6565b92915050565b600060208284031215611428576114276109e0565b5b6000611436848285016113fd565b91505092915050565b600060049050919050565b600081905092915050565b6000819050919050565b600061146b83836111e0565b60208301905092915050565b6000602082019050919050565b61148d8161143f565b611497818461144a565b92506114a282611455565b8060005b838110156114d35781516114ba878261145f565b96506114c583611477565b9250506001810190506114a6565b505050505050565b600060a0820190506114f060008301856109ac565b6114fd6020830184611484565b9392505050565b600060c08201905061151960008301846111ef565b9291505056fea2646970667358221220273642239e9caf4acdf6c189c2696f40295d294856b4940c264a0d0dd786dd9864736f6c63430008140033",
  "linkReferences": {},
  "deployedLinkReferences": {}
}